:100000000C9425030C945D030C945D030C945D0328
:100010000C945D030C945D030C945D030C945D03E0
:100020000C945D030C945D030C94B71F0C94731F28
:100030000C94B4200C945D030C945D030C945D034C
:100040000C945D030C945D030C945D030C945D03B0
:100050000C945D030C9490200C945D030C945D0350
:100060000C945D030C945D030C945D030C945D0390
:100070000C945D030C945D030C945D030C945D0380
:100080000C945D030C945D030C945D030C945D0370
:100090000C945D030C945D030C945D030C945D0360
:1000A0000C945D030C945D030C945D03050109023F
:1000B000A10185020901A1000509190129081500FE
:1000C0002501950875018102050109300931158165
:1000D000257F95027508810609381581257F9501D0
:1000E00075088106050C0A38021581257F95017572
:1000F000088106C0C005010980A101850319012AF4
:10010000B700150126B700950175108100C0050CD8
:100110000901A101850419012AA002150126A002E6
:10012000950175108100C005010906A1018506052C
:100130000719E029E71500250195087501810205D9
:1001400007190029EF1500250195F07501810205B9
:10015000081901290595057501910295017503910D
:1001600001C00660FF0961A1010962150026FF00B8
:100170009520750881020963150026FF00952075FA
:10018000089102C005010906A101050719E029E748
:1001900015002501950875018102950175088101F9
:1001A0000507190029FF150026FF0095067508812F
:1001B000000508190129051500250195057501910E
:1001C00002950175039101C00000000000000000CD
:1001D000000000000000000000000000000000001F
:1001E0000000000000000000000000007E0F00D4AE
:1001F000FFFFFFC7000000780000000000000000C3
:100200002A2B280000000000000000000000000071
:1002100000000029000000002C1E3420212224347C
:100220002627252E362D3738271E1F20212223244E
:1002300025263333362E37381F0405060708090AEA
:100240000B0C0D0E0F101112131415161718191A86
:100250001B1C1D2F3130232D350405060708090A04
:100260000B0C0D0E0F101112131415161718191A66
:100270001B1C1D2F3130354C1E0F0500047F3F1F06
:10028000643214643214783C1E1E140A0500010105
:100290000101010101010102020202020202020245
:1002A0000303030303030303040404040404040515
:1002B00005050505060606060607070707070808D9
:1002C0000808090909090A0A0A0B0B0B0C0C0C0D8A
:1002D0000D0D0E0E0E0F0F0F101011111112121323
:1002E000131414151516161717181819191A1A1B9E
:1002F0001B1C1D1D1E1E1F202021222223242425FD
:100300002626272829292A2B2C2D2D2E2F30313235
:1003100032333435363738393A3B3C3D3E3F404145
:1003200042434445464748494A4C4D4E4F5051532D
:1003300054555658595A5B5D5E5F616264656668E4
:10034000696B6C6D6F7072737577787A7B7D7E8068
:1003500082838587888A8C8E8F91939596989A9CB4
:100360009EA0A2A3A5A7A9ABADAFB1B3B5B7BABCC8
:10037000BEC0C2C4C6C9CBCDCFD1D4D6D8DBDDDF99
:10038000E2E4E7E9EBEEF0F3F5F8FAFDFFFFAA7F10
:1003900055402223252628292A2C2D2F303233356B
:1003A00036383A3B3D3E4042434547494A4C4E5021
:1003B00051535557595A5C5E6062646668696B6D4B
:1003C0006F71737577797B7D7F81838587898A8C4F
:1003D0008E90929496989A9C9E9FA1A3A5A7A8AA56
:1003E000ACAEAFB1B3B4B6B8B9BBBCBEBFC1C2C38B
:1003F000C5C6C7C9CACBCCCDCED0D1D2D2D3D4D525
:10040000D6D7D7D8D9D9DADADBDBDBDCDCDCDCDC4D
:10041000DDDDDDDDDCDCDCDCDCDBDBDBDADAD9D925
:10042000D8D7D7D6D5D4D3D2D2D1D0CECDCCCBCAB3
:10043000C9C7C6C5C3C2C1BFBEBCBBB9B8B6B4B3D9
:10044000B1AFAEACAAA8A7A5A3A19F9E9C9A98966F
:100450009492908E8C8A89878583817F7D7B797742
:100460007573716F6D6B6968666462605E5C5A5922
:1004700057555351504E4C4A4947454342403E3DE3
:100480003B3A3836353332302F2D2C2A2928262571
:100490002322290035001E001F0020002100220019
:1004A000230024002500260027002D002E002A000E
:1004B0004B002B0014001A000800150017001C0048
:1004C00018000C00120013002F00300031004E0005
:1004D000390004001600070009000A000B000D0097
:1004E0000E000F0033003400000028000000E1007F
:1004F0001D001B000600190005000500110010007A
:100500003600370038005200E5000000E000E3004C
:10051000E20000002C00000000002C00000021522E
:100520000000500051004F0035003A003B003C00F5
:100530003D003E003F0040004100420043004400B7
:1005400045004C0001000100010020782478237848
:10055000217826780100010001000100010001005E
:100560000100010001000100010001002778287846
:1005700025780100010001000100010001000000D8
:100580000100000001000100010001000100010064
:100590000100010001000100010001000100010053
:1005A0000000010001000100000001000000000047
:1005B000010000000100000001000100010009022B
:1005C0005B00030100A0FA0904000001030101001F
:1005D00009211101000122440007058103080001DF
:1005E0000904010002030000000921110100012299
:1005F00022000705820320000107050303200001F4
:100600000904020001030000000921110100012278
:10061000B60007058403200001120100020000005B
:1006200008414843530001010200010E03730065B5
:100630000072006900630061000000080368006147
:100640000066000000040309040011241FBECFEF60
:10065000DAE0DEBFCDBF04B603FE18C08091E80229
:100660009091E902A091EA02B091EB028730904BA1
:10067000A740B04B59F41092E8021092E902109290
:10068000EA021092EB02E0E0F8E3099522E0A2EA28
:10069000B1E001C01D92A83EB207E1F711E0A0E071
:1006A000B1E0E6ECF1E502C005900D92A23AB10787
:1006B000D9F70E94DB200C947A280C940000482F74
:1006C0002091E4029091AB0257E0291302C080E030
:1006D000089530E0529FF001539FF00D1124E4552E
:1006E000FD4F8181681306C08081481303C0858156
:1006F0008111EECF2F5F3F4F2770E7CFE8EDF0E09D
:1007000080818E7F80831092E2001092DA00109236
:10071000E100A0EEB0E08C9181608C9380818F77B6
:10072000808319BCA7EDB0E08C918E7F8C93808183
:100730008F7E808310927C0208952091E400309196
:10074000E50095E6A9012091EC00822F817020FF41
:1007500006C08091E80080FF06C080E008952091E7
:10076000E80022FD1AC08091A102882389F085301B
:1007700089F08091EB0085FD0FC02091E40030915D
:10078000E50042175307F9F29150E1F684E008952D
:1007900082E0089583E0089581E008958091A302A6
:1007A00087FF13C08091E80082FF06C08091E800B7
:1007B0008B778093E80004C08091A1028111F2CF71
:1007C00008958091A1028823D9F38091E80080FFE9
:1007D000F8CF8091E8008E77ECCF982F9093E900C6
:1007E000242F762F50E0891731F07091EC00209182
:1007F000ED005091F00021FD07C09F5F973071F729
:100800008093E90081E008953091EB003E7F3093C2
:10081000EB003091ED003D7F3093ED003091EB0027
:1008200031603093EB007093EC002093ED00509317
:10083000F0002091EE0027FDE0CF80E00895B0E0C9
:10084000A0E0E5E2F4E00C94DA26C8EDD0E088817F
:100850008F7E8883E7EDF0E080818160808384E093
:1008600082BF81E080937C0288818E7F888302EE44
:1008700010E0F80110821092DA0081EEC82ED12C1F
:10088000F601108288818F778883888180688883C9
:1008900088818F7D888319BC1092A1021092A202D8
:1008A0001092A00210929F0290EEE92EF12CF70117
:1008B00080818B7F808388818160888342E060E0D3
:1008C00080E00E94ED03F60180818E7F8083F80135
:1008D000808181608083808188608083F70180814E
:1008E0008E7F8083888180618883CDB7DEB7E8E022
:1008F0000C94F626FC018091A9029091AA02861719
:100900009707A0F06115710529F49091E8009E7792
:100910009093E80090E06115710551F4911108C0C1
:100920008091E80082FF34C080E00895BC01F2CFDE
:100930008091A1028823C1F18530C1F18091E80046
:1009400083FD30C08091E80082FDEACF8091E8000D
:1009500080FFE1CF8091F3002091F200382F6115E4
:10096000710519F02830310558F091E02830310533
:1009700009F090E02091E8002E772093E800CBCF9B
:1009800081918093F100615071092F5F3F4FE7CF54
:100990008091A102882341F0853041F08091E800E8
:1009A00083FFBECF81E0089582E0089583E008953B
:1009B00080917E0208959C014FB7F8948091760251
:1009C00090917702A0917802B09179024FBF821B7B
:1009D000930B08952FB7F894809176029091770247
:1009E000A0917802B09179022FBF089520911A0149
:1009F0002223C9F020917A0227FF15C0E62FE69541
:100A0000E695E695EE31D8F4E80FF92FF11D677001
:100A100021E030E001C0220F6A95EAF7209582813B
:100A2000282322830895FC013296089621916213AF
:100A300003C0DF0111971C92E817F907B9F7089571
:100A400020911A012223C1F020917A0227FF14C0BD
:100A5000E62FE695E695E695EE31F8F4E80FF92FE6
:100A6000F11D677021E030E001C0220F6A95EAF7BE
:100A70008281822B82830895FC0132962FEF30E031
:100A80004191641751F02F3F19F4411101C0232FF8
:100A90003F5F3630A9F72F3F09F40895820F911D6B
:100AA00027FD9A95FC0162830895A3E0B0E0EBE591
:100AB000F5E00C94E026209173023091740228171F
:100AC0003907A1F09093740280937302E091710250
:100AD000F0917202309751F024E029839B838A833E
:100AE0000680F781E02DCE01019609952396E2E07C
:100AF0000C94FC26A3E0B0E0E0E8F5E00C94E026DE
:100B000020916F023091700228173907A1F090935D
:100B1000700280936F02E0917102F091720230973F
:100B200051F023E029839B838A830680F781E02D9F
:100B3000CE01019609952396E2E00C94FC26E09103
:100B40007102F0917202309729F00190F081E02D4E
:100B50000995089580E00895FA01811101C0FB0113
:100B600009950895089580916702982F9E7F61F4FA
:100B7000817082608093670280916A02893718F0E1
:100B800088E780936A0208958635B0F381708465A2
:100B9000F1CFAF92BF92DF92EF92FF920F931F932C
:100BA000CF93DF93182F062FE901493708F048E764
:100BB000E42FF0E0E357FD4F011110C0E4915E2FE8
:100BC0004E2F4983E8835A83DF91CF911F910F9174
:100BD000FF90EF90DF90BF90AF900895202F30E00E
:100BE0004491D42EE42EF12C56E0159FC00111241F
:100BF000EFEFF0E0BF010E948C26812F90E0880F7C
:100C0000991F55E5569FD001579FB00D11248A1B9F
:100C10009B0B982F990F890F5F01A21AB30AAE9C04
:100C2000D001AF9CB00DBE9CB00D11245B2F089F6E
:100C300080011124012F11275F01A01AB10AAE9C77
:100C40008001AF9C100DBE9C100D11245F01A81AED
:100C5000B108A29EC001A39E900DB29E900D1124DA
:100C6000892F9927E81BF90BEE9DC001EF9D900D90
:100C7000FE9D900D1124E92F62307105A1F050F412
:100C80006115710509F49DCF6130710581F0EB2F7D
:100C9000512F97CF6430710569F080F0663071058F
:100CA00009F48FCFF4CFE42F4B2F592F8ACFE42FA5
:100CB000412F87CFEB2F542F492F83CF4B2F5D2D03
:100CC000E12F7FCF0E94EA049C0190914002809125
:100CD0004102982B21F030933D0220933C029091E9
:100CE000420280914302982B21F030933B022093E3
:100CF0003A02E0917102F0917202309749F082E07D
:100D000080933E020480F581E02D8EE392E0099508
:100D100008958091390280FD16C081FD16C082FDC4
:100D200016C0809138028823A1F0883280F428E030
:100D3000829FC001112468E270E00E94A026862FE5
:100D4000672B39F0089582E0089584E0089588E0E3
:100D5000089581E008958091390280FD14C081FDDD
:100D600014C082FD16C080913702882381F08E3135
:100D700080F420E5829FC00111246EE170E00E94A2
:100D8000A026862F089584E1089588E2089588E0DA
:100D9000089580E50895282F35EB2303C001112421
:100DA00097FF04C080589109892F089580589F4F5C
:100DB000FBCF80E00895F894E82FE295EF70F0E023
:100DC00031A1282F2F7081E090E001C0880F2A9573
:100DD000EAF7982F9095932391A392A1892B82A350
:100DE0007894089590917A0292FF10C041E0282FE4
:100DF0002471243009F040E031E0282F2871283098
:100E000009F030E0431711F02CE0822793FF10C067
:100E100041E0282F2471243109F040E031E0282FEF
:100E20002871283109F030E0431711F02CE08227B7
:100E300030917B0230FF10C051E0282F217121300A
:100E400009F050E041E0282F2871283009F040E0F7
:100E5000541711F029E0822731FF10C041E0282FFC
:100E60002171213109F040E031E0282F287128312B
:100E700009F030E0431711F029E0822794FD877EC6
:100E8000089582389105B9F1B0F48133910509F4E0
:100E90007DC048F48932910509F46DC08A3291050C
:100EA00009F47BC008958533910509F45FC0893347
:100EB000910509F10895833E9105D9F138F4803EFA
:100EC000910529F1823E910579F10895863E9105BB
:100ED000D9F1873E910509F43EC0843E910541F564
:100EE00020917B0221FF24C080917A0284FD19C0E9
:100EF00087EE90E0089520917A02237009F05AC09D
:100F000020917B0223FF14C089E290E00895209194
:100F10007A0220FD38C030917B0230FF09C024FFE7
:100F200043C090E080E0089520917A0222FDF7CF3F
:100F3000089520917A0222FD3AC030917B0230FD63
:100F400039C024FFF5CFEDCF20917A0223FFF0CFF7
:100F500024FDE7CFCDCF20917A0223FD2EC0309122
:100F60007B0231FFEECF84EE90E0089520917A026B
:100F700025FFDECFC9CF20917A0225FD21C0209127
:100F80007B0223FFD5CF89E390E0D2CF20917A0274
:100F900026FFCECF8AE290E0089520917A0226FFC4
:100FA000C7CF81E390E0089583EE90E0089582EE4C
:100FB00090E0089580EE90E0089586EE90E0089528
:100FC00085E390E008951F93CF93DF930E9441073C
:100FD000EC01C11580E5D807F0F5C11580E4D8070C
:100FE00008F09CC0C03ED10520F5CD3CD10508F0ED
:100FF00082C0C83AD10578F4C53AD10508F073C06B
:10100000C130D10519F1209709F1C430D105F0F4B0
:10101000D0E0C0E01BC0C33CD105D0F7C85AD0E037
:10102000CC0FDD1FC25EDE4F0990D881C02DD46485
:101030000DC0C11580E2D80708F0D1C0C11581E00C
:10104000D80708F05AC0C83ED10510F7CE01DF918D
:10105000CF911F910895C03682E5D80718F5C034A6
:1010600082E5D80708F06BC0C03282E5D80708F0E7
:101070005FC0C11582E5D80708F497C02C2F2695CC
:10108000269580E2289F900111248C2F8370C1E067
:10109000D0E002C0CC0FDD1F8A95E2F7C22BD32B24
:1010A000DD68D4CFC03A82E5D80760F4C03882E565
:1010B000D80708F459C0CF71D0E0DC2FCC27C46F1B
:1010C000D06AC4CFC03C82E5D80708F462C0C03EF5
:1010D00082E5D80708F09CCFDC2FCC27CC27DF7126
:1010E000C06FD06AB3CFC55AD0E0C55EDE4FC881AD
:1010F000D0E0D064ABCFD065A9CF8D2F0E94F2068F
:10110000182FCE0199270E944107C12FD0E0DC2F74
:10111000CC27CC27DF71C82BD92B98CFCE019927AC
:101120000E944107CC27DF70C82BD92BD06A8ECF05
:10113000CF71D0E0DC2FCC27C16FD06A87CF2C2FA6
:1011400026952695277080E2289F900111248C2FE8
:101150008370C1E0D0E002C0CC0FDD1F8A95E2F7BA
:10116000C22BD32BDC6872CF2C2F269526952770A7
:1011700080E2289F900111248C2F8370C1E0D0E081
:1011800002C0CC0FDD1F8A95E2F7C22BD32BDA68A1
:101190005DCF8C2F8F710E94F206C82FD0E0DC2F1C
:1011A000CC27CC27DF71D06251CF8C2F8F710E945A
:1011B000F20655E0D695C7955A95E1F7CF70D0E085
:1011C000DC2FCC27282F30E084FF05C044E0220F1D
:1011D000331F4A95E1F7C22BD32BD06937CF8D2F20
:1011E0008F710E94F206182FCE0199270E944107A5
:1011F000C12FD0E0DC2FCC27CC27DF71C82BD92B17
:10120000D2CF809590910E02982390930E0208956C
:101210008091E4029091AB02981301C008958F5F12
:101220008770FACF292F953078F58F3068F590E0E8
:101230003FE0239F800D911D1124682F677023E0EC
:10124000969587952A95E1F7FC01EE0FFF1FE80FB1
:10125000F91FEA53FE4F50E040E080E0219130E07A
:10126000062E02C0369527950A94E2F7217033279F
:10127000042E01C0220F0A94EAF7822B4F5F5F4FC2
:101280004330510559F7089580E00895292F95308E
:1012900098F58F3088F590E03FE0239F800D911DF9
:1012A0001124282F277041E001C0440F2A95EAF746
:1012B00023E0969587952A95E1F7FC01EE0FFF1F35
:1012C000E80FF91FEA53FE4F30E020E070E0519143
:1012D000DF011197CB01022E02C0969587950A94E3
:1012E000E2F7817081958527842385278C932F5F72
:1012F0003F4F2330310559F7089580931F02089519
:1013000090911F0221E030E0F90101C0EE0F8A95B3
:10131000EAF7D90102C0AA0FBB1F6A95E2F7EA2BD0
:1013200001C0220F4A95EAF7892F8E23E81305C0E2
:10133000292B822F0E947D09089520952923F9CF1A
:1013400021E030E001C0220F8A95EAF720958091D4
:101350001F0282230E947D0908959091EB018095E0
:1013600089238093EB01282F277069F4891759F09E
:1013700090917B0292FF07C08695869586950E9484
:10138000A0091092EB01089521E030E001C0220F86
:101390008A95EAF780911F02822B0E947D090895A9
:1013A00080930F020895662309F45DC08D3C41F4DB
:1013B0000E94AB068195809341020E9462060895C7
:1013C0008E3C19F40E94AB06F6CF8F3C31F40E949C
:1013D000AB06819580934002F0CF803D19F40E94C6
:1013E000AB06F8CF893D29F40E948906809342021A
:1013F000E4CF8A3D21F40E9489068195F7CF8B3D89
:1014000031F40E948906819580934302D6CF8C3DAA
:1014100019F40E948906F8CF9FE2980F983070F473
:10142000815D990B21E030E001C0220F8A95EAF737
:1014300080913F02822B80933F02BFCF8D3D31F4DC
:1014400080913902816080933902B7CF8E3D21F4BB
:10145000809139028260F7CF8F3D09F0AECF809145
:1014600039028460F0CF409140028D3C59F4809164
:10147000410287FF0DC01092410241110BC0109232
:10148000370208C08E3C81F48091410218169CF30B
:10149000442381F08091420290914302892B09F00C
:1014A0008CCF1092380289CF8F3C49F447FFF0CFA0
:1014B00010924002809141028111ECCFE0CF803D3B
:1014C00019F41416ACF3E4CF90914202893D29F44B
:1014D0001916F4F610924202DBCF8A3D19F497FFF9
:1014E000D7CFF8CF909143028B3D29F497FFD0CF0F
:1014F00010924302CDCF8C3D19F41916CCF3C8CF0E
:101500009FE2980F983090F4815D990B21E030E0D4
:10151000B90102C0660F771F8A95E2F7CB0180956B
:1015200090913F02892380933F02B2CF8D3D31F4E9
:10153000809139028E7F80933902AACF8E3D21F4AB
:10154000809139028D7FF7CF8F3D09F0A1CF809137
:1015500039028B7FF0CF0F931F93CF93DF938B01D3
:10156000EA019091A102943061F58093E9008FEF38
:101570009091E800815095FD06C095ED9A95F1F7A0
:1015800000008111F5CF8091E80085FF1AC00E940C
:101590009D03811111C08091E80085FD06C08091F6
:1015A000E8008E778093E800F2CFF80181918F01F7
:1015B0008093F100219779F78091E8008E778093EE
:1015C000E800DF91CF911F910F91089543E050E023
:1015D000BC0184E00E94AB0A089546E050E0BC01E3
:1015E00084E00E94AB0A0895CF93DF93EC018091D1
:1015F0001A01811111C048E050E0BE0181E00E9453
:10160000AB0A80E2FE01AFE7B2E001900D928A954D
:10161000E1F7DF91CF91089580917A0287FF05C0AD
:1016200040E284E050E0BE01EACF48E081E0FACF3A
:1016300081E08093E00080E28093D8001092C9009E
:101640008FE19EE40197F1F700C0000087E090EB86
:10165000DC018093E8029093E902A093EA02B09340
:10166000EB0288E19CE00FB6F894A89580936000A7
:101670000FBE90936000FFCF8091670280FD12C083
:101680001092500210924F02109251021092530287
:101690001092520210925402109256021092550269
:1016A00010925702279A35B13F7725B120684FB77E
:1016B000F8948FE492E0FC015191CF0168E025B9E4
:1016C000000000C057FF35B9550F000000C000C032
:1016D00000C035B900C06A9591F7F2E088359F07E0
:1016E00051F74FBF8FE594E00197F1F700C000007C
:1016F0000895EF92FF920F931F93CF93DF938C0186
:10170000CFE4D2E0F12CE12CF801948160916902E0
:1017100080916802E114F104E9F49923E9F09E0153
:1017200040916A020E94C905FFEFEF1AFF0A239653
:1017300083E0E816F10441F70E943C0BF801848134
:1017400090E00196817099278483CDB7DEB7E6E0FB
:101750000C94F826992319F39E0140E0E3CFB0E002
:10176000A0E0E5EBFBE00C94D626EC014C81042FC5
:1017700010E09801D8010E946B289B01AC010E94E7
:1017800036284B015C01E0E2F0E0E01BF10BA5E53F
:10179000B0E0AC019B010E9436286B017C019F01E7
:1017A000DF010E94C1269B01AC010E9441289B01E0
:1017B000AC01280D391D4A1D5B1DC701B6010E94F1
:1017C0004928F22E822F90E039E23F15A0F143E044
:1017D000249F9001112435952795122F10959FE491
:1017E000C92E92E0D92E00E085E5E82EEF18802F73
:1017F000869589F58E2D9601412F609169020E9490
:10180000C9050F5F53E0C50ED11C033081F70E945C
:101810003C0B9C8181E0992319F0903219F48FEFF1
:101820008093190180911901890F8C83CDB7DEB7A0
:10183000ECE00C94F22625E530E0A901481B590B99
:10184000CA019A01220F331F280F391F37FFC3CF58
:101850002F5F3F4FC0CF8F2DCECF0F931F93CF93CE
:10186000DF931092500210924F0210925102109288
:101870005302109252021092540210925602109289
:10188000550210925702CFE4D2E010E000E08091C0
:101890004D02082E000C990B081719078CF1809146
:1018A0001801082E000C990B801791074CF19E012E
:1018B00040916A0260916902809168020E94C905A4
:1018C0000F5F1F4F23960330110509F70E943C0B51
:1018D0008091170190914D02980F90934D022091A5
:1018E0001801280F20931801121614F492301CF0DE
:1018F000819580931701DF91CF911F910F910895EA
:10190000198218821A82DCCFB0E0A0E0EAE8FCE09D
:101910000C94D926FC018281DD24DA9480FD02C07A
:10192000DD24D3940FE412E0D0E0C0E023E0B22E37
:10193000F80111821082128294E0E92EF12CC12C60
:1019400080914C028C0D8430C4F16B2D0E947E2658
:10195000892F082E000C990B8C179D0791F480910C
:101960006A028E9DA0018F9D500D112455954795BB
:1019700055954795980160916902809168020E948F
:10198000C905CD0CF1E0EF1AF108D1F621960D5FF3
:101990001F4FC330D10561F60E943C0B80914C0271
:1019A00091E0D91210C081110CC082E080934C02EA
:1019B000CDB7DEB7E9E00C94F52687FFCACF8D5F7F
:1019C000C8CF8150F3CF90E00196BE010E94A026BF
:1019D000EDCFEF92FF921F93CF93DF93EC018FE453
:1019E000E82E82E0F82E10E08C81970140916A0287
:1019F00060916902810F0E94C9051B5A83E0E80EBD
:101A0000F11C1F3F89F70E943C0B9A818C8190FF4B
:101A100008C08F5F8C83DF91CF911F91FF90EF9073
:101A200008958150F7CF9091670290FF14C0809382
:101A3000500260934F02409351028093530260938F
:101A40005202409354028093560260935502409391
:101A500057020E943C0B0895A3E0B0E0E2E3FDE0F2
:101A60000C94DE268C0180914E0281110AC09E01E9
:101A70002F5F3F4F48E76FEF0E94C9058A8180932F
:101A80004E02F8016481613069F080914E0240E0BD
:101A9000662361F040E0623011F440914E0280E034
:101AA00060E004C060914E0240E080E00E94130DAF
:101AB000F801848190E0019663E070E00E94A02626
:101AC00084832396E4E00C94FA26A3E0B0E0EBE6EE
:101AD000FDE00C94E0269091670290FF0AC09E0101
:101AE0002F5F3F4F0E94C9054B8169818A810E9407
:101AF000130D2396E2E00C94FC26CF93DF93EC01C8
:101B0000E7E6F2E0438162818C810E94650D8C8161
:101B10008F5F8C83DF91CF910895CF93DF93EC019A
:101B2000EC81F0E0EE56FC4F4491E7E6F2E0628192
:101B300081810E94650D8C818F5F8C83DF91CF91B5
:101B40000895CF93DF93C1E8D2E060E0CE010E9418
:101B5000E3272196C11584E0D807B9F7DF91CF912B
:101B600008951F93CF93DF93122F8430E0F46530F4
:101B7000D0F44F30C0F4C42FD0E0CC0FDD1F9EE175
:101B8000699FC00DD11D112496E9899FC00DD11DFB
:101B90001124632FCE0189960E94E327612FCE0185
:101BA0008A960E94E327DF91CF911F910895B0E0BC
:101BB000A0E0EDEDFDE00C94DA2692E9E92E94E048
:101BC000F92ED12C8701C12C1CC04C2F81E021E0C3
:101BD00030E08D1540F0FE01EE0FFF1FE00FF11F0A
:101BE000859194919C016C2D8D2D0E94B10D2196B3
:101BF000CF30D10551F7C394025E1F4F85E0C81660
:101C000019F0D0E0C0E0E1CFD39486E9E80EF11CF2
:101C100084E0D812D7CFCDB7DEB7E8E00C94F62633
:101C2000CF93C82F6FEF811164E285E290E00E94AC
:101C3000E3276FEFC11163E086E290E00E94E327A3
:101C40006FEFC11169E087E290E00E94E327CF9136
:101C5000089580E00E94100E60E088E290E00E940B
:101C6000E3270E94D70D0E94A10D81E00E94100E73
:101C700008950F931F93CF93DF93843030F5653031
:101C800020F54F3010F5C42FD0E0CC0FDD1F2EE132
:101C9000629FC00DD11D112436E9839FC00DD11D57
:101CA0001124CE0189960E94BF27082F10E0102F23
:101CB0000027CE018A960E94BF279801282BC901D0
:101CC000DF91CF911F910F91089590E080E0F8CFC0
:101CD000462F753040F46F3030F4843020F4672F95
:101CE0000E94390E089590E080E00895CF92DF922F
:101CF000FF920F931F93CF93DF936C0100911F020C
:101D000080910F02082BC3E0D0E010E0FC2EC80148
:101D10000C2E02C0959587950A94E2F780FD0CC0C1
:101D20002197A0F7F12C8F2DDF91CF911F910F916B
:101D3000FF90DF90CF900895B6018C2F0E94680E1F
:101D40000E94E307019761F3EECFCF93DF93EC019D
:101D50000E94760EBE010E94680E0E94E307DF918A
:101D6000CF910895FC0124812223C1F080819181CB
:101D70000E94A50E92959F70963091F058F4925F54
:101D80009F70923058F4803F19F030F4883E30F460
:101D900081E008959A5FF4CF843FD1F380E0089505
:101DA000883EB0F3813FD1F7F3CFA6E0B0E0EBED92
:101DB000FEE00C94DF2649835A8349815A81992396
:101DC000A1F0222391F0CA010E94760E182F682FED
:101DD00089819A810E94460969817A81812F0E94B6
:101DE000680E2696E3E00C94FB26CA010E941209B5
:101DF000182FF2CF85E290E00E94BF27843289F449
:101E000086E290E00E94BF27833059F487E290E099
:101E10000E94BF2791E0893009F090E0892F8170FE
:101E2000089580E0FCCFB0E0A0E0E9E1FFE00C9491
:101E3000D226FC016280448081E08483E2E9F3E001
:101E40007490E1E1F4E0E49100916A020695015892
:101E500010E0000F111F012F1127C8E5D2E02FE479
:101E6000C22E22E0D22E37E6832E32E0932EAA2411
:101E7000AA94B12C55245A94E719EE2EF12C82E045
:101E8000861530F080916802888380916902898389
:101E9000411016C01B821A8296014A81698188818D
:101EA0000E94C905259683E0C80ED11C8C169D069C
:101EB00031F70E943C0BCDB7DEB7E0E10C94EE2683
:101EC0008B818823E9F081508B83859DC00111248B
:101ED0006C8170E00E948C26FB01FF27EE56FC4FC0
:101EE0008491E82FE719E59DC0011124B7010E94F4
:101EF0008C2680916A02689FB00111247A83CCCF2E
:101F00000E949527B5010E94A0268017910724F60C
:101F100082E0861588F40E949527B5010E94A026CC
:101F200088830E949527209169022695622F70E090
:101F30000E94A026280F29831A8280916A02893C78
:101F400020F088EC8C838B83A7CF8431D8F784E191
:101F5000F9CFB0E0A0E0EFEAFFE00C94D62649010B
:101F60005A016B017C010E94B3058401A4016A2D12
:101F70007B2D88E090E00E94F52794014A2D5B2D8F
:101F8000B601C70100E20E942227622F84E290E09E
:101F90000E94E327CDB7DEB7ECE00C94F226A3E075
:101FA000B0E0E5EDFFE00C94D326F82E762EE42E7B
:101FB000622E9091670290FF2EC0E92FE695AE2F1A
:101FC000B0E0A859BE4F8C9180934A029E7F923018
:101FD00031F59E012F5F3F4F8F2D0E94C9054B8128
:101FE00069818A810E94130DF092680270926902E1
:101FF000E0926A02662079F02091670260916B029C
:1020000070916C023F2D472D5E2D80916D02909155
:102010006E020E94A90F2396EFE00C94EF26823007
:1020200019F4E0906A02E0CF863019F4F09068026B
:10203000DBCF8930D9F38931B9F6E9518E2F817020
:10204000582EE695F0E0E357FC4FE4910E2F10E098
:102050008FE4C82E82E0D82EB12CA12C93E0892EDB
:10206000912CC501B4010E948C268F2D511013C0F4
:10207000860F96014E2D672D0E94C905A00EB11E38
:1020800083E0C80ED11C88E5C81682E0D80649F75F
:102090000E943C0BA9CF861BECCFE7E6F2E0438120
:1020A00021E1421B08F440E021E0628181810E942D
:1020B000CF0F0895E7E6F2E0438121E1420F08F4F3
:1020C0004FEF21E0628181810E94CF0F0895E7E602
:1020D000F2E0628121E1621B08F460E021E04381CB
:1020E00081810E94CF0F0895E7E6F2E0628121E14D
:1020F000620F08F46FEF21E0438181810E94CF0FCE
:102100000895E7E6F2E0818121E0438162818A500F
:102110000E94CF0F0895E7E6F2E0818121E043813C
:102120006281865F0E94CF0F089580916B028823A1
:1021300019F0815080936B02209167023091680200
:102140004091690250916A0260916B0270916C0239
:1021500080916D0290916E020E94A90F0895809166
:102160006B02833018F48F5F80936B0220916702BB
:10217000309168024091690250916A0260916B024D
:1021800070916C0280916D0290916E020E94A90F75
:1021900008959091670290FF34C09170811132C010
:1021A000926090936702662391F0209167023091CC
:1021B00068024091690250916A0260916B027091CD
:1021C0006C0280916D0290916E020E94A90F609145
:1021D0006702669570E04BE050E08CE091E00E9471
:1021E000A527892BB1F010924B0281E08093470222
:1021F00020E040916A0260916902809168020E9429
:10220000CF0F08958B3210F09465CBCF880F982BA9
:10221000C8CF81E080934B020E94EA04909345026C
:1022200080934402E2CF809167028695815009F441
:102230008AE261E00E94C910089580916702869544
:102240008F5F8B3208F081E061E00E94C910089531
:102250009091670290FF08C09695981728F09617FE
:1022600018F40E941D11089561E00E94C91008959C
:10227000E7E6F2E083E0808311828FEF828388E7D4
:1022800083831482758123E030E04FEF58E760E0EC
:10229000868197810E94A90F089590917B0292FBFD
:1022A000222720F9281779F080FB92F990937B027E
:1022B00060917A0270917B0284E090E00E94012894
:1022C00082E00E94AD09089590E080E00E94CD2751
:1022D000863E9E4F19F40E94FA0E089580E00895FC
:1022E00080910E0290910D02892B8093A401909110
:1022F0000C029923A1F0892B8093A40180911A01EB
:102300008823E1F180917A0287FF38C08EE1E6EA06
:10231000F1E090E08150A0F5911110920C0240E2A2
:1023200050E06CEE71E084EA91E00E94B227892BC4
:1023300021F180E2E4EAF1E0ACEEB1E001900D922F
:102340008A95E1F7E0917102F09172023097A9F05D
:1023500080911A01882359F080917A0287FF07C083
:102360008091A4018093A50186E08093A40102805E
:10237000F381E02D84EA91E00995089586E0C7CFC6
:102380002191222339F29F5FC5CF10920E028091D6
:102390001A01E6EAF1E0882329F180917A0287FFA9
:1023A00021C08EE1DF011D928A95E9F790E080E07F
:1023B0000E947A0590E080E00E94550510920D027F
:1023C0000E94701186E0EEE3F2E0DF011D928A9533
:1023D000E9F71092370210923802109239020E94E7
:1023E0006206089586E0DECFAAE2B0E0EAEFF1E10E
:1023F0000C94DF2683EA92E02091F100DC012D931A
:10240000CD01B2E08B3A9B07B9F78091A4028330EB
:1024100009F472C0B8F4813009F449C0823009F47B
:10242000B3C08091E80083FF8BC28091A30290919A
:10243000A4029A3008F084C2E92FF0E0E458F74D86
:102440000C94B4268A3009F48EC08B3009F471C024
:10245000893039F78091A302813219F78091A70260
:102460009091A802009711F00297D9F68091E800A8
:10247000877F8093E8008091E80082FF38C09091C8
:10248000F3008091F200029731F48091F1008130E5
:1024900011F0863021F48091F10080937E028091CA
:1024A000E8008B778093E8000E94CE03BACF80913A
:1024B000A302813A09F0B5CF8091E800877F80932D
:1024C000E8008091A7029091A802892B61F460E254
:1024D0008FE792E070E00E947A048091E8008B77A9
:1024E0008093E8009ECF60E090E080E0F3CF8091A1
:1024F000A1028111C0CF95CF8091A302813A09F04A
:1025000090CF8091A7029091A802892B09F089CFE2
:102510008091E800877F8093E8008091E80080FF49
:10252000FCCF80911A018093F1008091E8008E77B2
:10253000B9CF8091A302813209F073CF8091A702B5
:102540009091A802892B09F06CCF8091E800877FD9
:102550008093E8000E94CE038091A50280931A0127
:102560000E94C5115ECF8091A302813209F059CF3C
:102570008091E800877F8093E8000E94CE038091DD
:10258000A60280937D024DCF8091A302813A09F08B
:1025900048CF8091E800877F8093E8008091E80031
:1025A00080FFFCCF80917D02BECF803899F08238C9
:1025B00009F0C6C18091A7028F70873008F0C0C1B2
:1025C0008093E9008091EB0085FB882780F91092C9
:1025D000E90006C080919F029091A0029111826053
:1025E0009091E800977F9093E8008093F10010921B
:1025F000F1008091E8008E779FC1882309F48DC196
:10260000823009F09DC18091A502811190C1809115
:10261000A7028F702FEF280F263008F091C180930A
:10262000E9002091EB0020FF82C1933031F48091CA
:10263000EB0080628093EB007AC19091EB00906197
:102640009093EB0021E030E001C0220F8A95EAF779
:102650002093EA001092EA008091EB008860EACFB4
:1026600081116EC11091A5021F778091E3008078DF
:10267000812B8093E3008091E800877F8093E800BE
:102680000E94CE038091E80080FFFCCF8091E300A0
:1026900080688093E30082E0111183E08093A102BF
:1026A0004FC18058823008F04BC12091A502309173
:1026B000A6022C3DE3E03E07A1F583E08A838AE28F
:1026C00089834FB7F894DE01139620E03EE051E293
:1026D000E32FF0E050935700E49120FF03C0E29510
:1026E000EF703F5FEF708E2F90E0EA30C0F0C7963A
:1026F0008D939D932F5F243159F74FBF8091E80050
:10270000877F8093E8006AE270E0CE0101960E9424
:102710007A048091E8008B778093E80011C1C0961D
:10272000E7CF8091A7029091A802432F552743300D
:10273000510509F44AC078F54130510509F47AC0D1
:102740008BE590E0EEEBF5E04230510509F0F8C082
:102750002091E800277F2093E8002091A902309182
:10276000AA028217930708F49C0140E02115310565
:1027700009F065C0411163C08091E80082FDC9CFB6
:102780008091A102882329F2853019F28091E80016
:1027900083FFF2CFBECF4132510509F43CC0423233
:1027A000510509F0CDC08330910508F0C9C0FC0186
:1027B000EE0FFF1FEA56FE4F0190F081E02D8D567F
:1027C0009E4FDC018C9190E01AC0332721303105F7
:1027D000D1F02115310561F02230310509F0B0C08A
:1027E000EBE2F6E0E4918E2F90E0EBE2F6E007C03A
:1027F000E5E4F6E0E4918E2F90E0E5E4F6E0009762
:1028000009F49EC0A5CFEBE3F6E0E4918E2F90E0B3
:10281000EBE3F6E0F4CF8330910508F091C0880F28
:10282000991FFC01E456FE4F0190F081E02D89E0F4
:1028300090E08ECF82E190E0E9E1F6E089CF8091EF
:10284000A102882309F465CF853009F462CF809115
:10285000E80083FD5ECF8091E80082FD8DCF8091FE
:10286000E80080FF83CF9091F3008091F200211562
:10287000310519F08830910550F041E0089709F0D2
:1028800040E08091E8008E778093E8006FCF44911C
:102890004093F1003196215031090196E8CF8038FC
:1028A00009F04EC08091E800877F8093E800809116
:1028B000A2028093F1009DCE811142C01091A50229
:1028C0001230F0F58091E800877F8093E800109344
:1028D000A2020E94CE03112311F084E005C0809172
:1028E000E30087FDFACF81E08093A10242E061EC32
:1028F00081E00E94ED0342E261EC84E00E94ED037E
:1029000042E261EC82E00E94ED0342E260EC83E08F
:102910000E94ED038091A10213C08091A502813035
:1029200079F481E0933009F080E08093A002109266
:10293000E9008091E800877F8093E8000E94CE0341
:102940008091E80083FF0AC08091E800877F809330
:10295000E8008091EB0080628093EB00AA96E3E0B0
:102960000C94FB260E94C5112FEF84E39CE02150BC
:1029700080409040E1F700C0000088E19CE00FB685
:10298000F894A895809360000FBE90936000FFCFED
:10299000882321F00E9401090E9470110895882364
:1029A00039F090910E02982B90930E020E947011B4
:1029B0000895882399F19CEF980F913A40F4682F7D
:1029C00084EA91E00E94F6040E947011089590E25A
:1029D000980F983050F4877091E001C0990F8A9554
:1029E000EAF7892F0E940109EFCF9BE5980F9330FA
:1029F00028F490E080E00E947A05089598E5980F09
:102A00009B3128F490E080E00E945505089593E3FF
:102A1000980F933118F460E00E94D3090895CF9382
:102A2000C82F8823D9F18CEF8C0F813AC8F580919B
:102A30001A01882311F180917A0287FF1EC0EC2FC2
:102A4000E695E695E695F0E0EC55FE4F828190E044
:102A50004C2F477021E030E002C0220F331F4A950F
:102A6000E2F782239323892B91F06C2F84EA91E083
:102A70000E94F6040E9470110AC0E6EAF1E08CEAB6
:102A800091E02191C21789F38E179F07D1F76C2F20
:102A900084EA91E00E9420050E947011CF91089570
:102AA00080E28C0F883068F4C77021E030E001C00C
:102AB000220FCA95EAF780910E02822B80930E02B4
:102AC000EBCFEBE5EC0FE33040F4F0E0E55EFE4FDA
:102AD000808190E00E947A05E1CFE8E5EC0FEB31D0
:102AE00050F4F0E0EE0FFF1FE25EFE4F8081918117
:102AF0000E945505D3CF83E38C0F833178F661E0D4
:102B00008C2F0E94D309CACF1F93CF93DF93182F26
:102B1000D0E0C0E0893311F4C0E5D0E0812F0E94FD
:102B20000F15209739F4812F0E94D914DF91CF918E
:102B30001F9108958FE99FE00197F1F700C0000011
:102B40002197EFCF0F931F93CF93DF93C62FD42FEF
:102B5000022FFC0185818823A9F06093E7020E947F
:102B6000EA049093E6028093E502C77081E001C019
:102B7000880FCA95EAF70E94CF14DF91CF911F9179
:102B80000F9108958091E702681332C08091E502A9
:102B90009091E6020E94DB04883C910548F510E222
:102BA0001D0FCD17B9F080E28C0F883040F4C7704C
:102BB00081E001C0880FCA95EAF70E94C814183056
:102BC00048F481E09D2F977001C0880F9A95EAF72D
:102BD0000E94CF14802F0E948415183070F6D77091
:102BE00081E001C0880FDA95EAF70E94C814C5CFCA
:102BF000C77081E001C0880FCA95EAF7F6CFA8E058
:102C0000B0E0E5E0F6E10C94D2268C01DC011496EC
:102C10008C911497882309F4B8C021E04C91119647
:102C20005C91119712966C91129713967C91139761
:102C300015969C910E94D50E7C01F8018581882310
:102C400009F43CC1C70197578038910508F096C533
:102C5000FFE0FE1508F489C08FEF93E00E94BF27C4
:102C6000811183C061E8A62E62E0B62EE11047C054
:102C7000FE01339686E0DF011D928A95E9F75AE05E
:102C8000452E7501BFEFEB1AFB0AC5010E94BF2755
:102C900089831A82882309F468C0813009F079C0D9
:102CA0006501E2E0CE0ED11CC7010E94BF278A83D6
:102CB000882309F45AC09FEF980F933070F5F3E022
:102CC000AF0EB11CC6010E94BF278B83882309F475
:102CD0004CC01C82DE0111967D01F7012081222368
:102CE00081F2213009F095C091818281913009F003
:102CF00052C0F2E0EF0EF11C0E94841553C0A114E3
:102D000024E0B20691F1C5010E94BF27811101C0E4
:102D1000EA943FEFA31AB30AA9CF56018430D1F643
:102D200042E0E42EF12C56012FEFA21AB20AC6019E
:102D30000E94BF27E1E0F0E0EC0FFD1FEE0DFF1D4C
:102D40008083882391F08C3741F4E2E0F0E0EC0FCF
:102D5000FD1FEE0DFF1D1082BDCF3FEFE31AF30AFA
:102D6000650187E0E816F104F1F68091EB018770C8
:102D700061F0D80115968C91882339F080917B02FF
:102D800082FF03C082E00E94AD092896E0E10C9426
:102D9000EE2657019FCF923049F422E0E20EF11C5B
:102DA0000E940F15EFEFEE1AFE0A97CF933031F421
:102DB00032E0E30EF11C0E94D914F4CF943021F0DC
:102DC0008FEFE81AF80AEECF92E0E90EF11C30E03E
:102DD00020E0B7016F5F7F4FD70111964C91805370
:102DE000990B8A30910550F021503109D8F2EFE962
:102DF000FFE03197F1F700C00000F6CF429EF001EE
:102E0000439EF00D11249C012E0F3F1F842F7B0148
:102E1000E0CFE22FF0E0E850FE4F5490822F8695ED
:102E20008695869590E0FC01E851FE4F64902770EE
:102E3000712C022E02C0759467940A94E2F731E077
:102E400063227724FC01E852FE4F8490912C022EDD
:102E500002C0959487940A94E2F7A1E08A2299240B
:102E6000FC01E853FE4FC490D12C02C0D594C79406
:102E70002A95E2F7B1E0CB22DD246114710419F048
:102E800081EE0E940F158114910419F086EE0E94C4
:102E90000F15852D0E9484158114910419F086EE7A
:102EA0000E94D9146114710419F081EE0E94D914A2
:102EB000C114D10409F476CF8CE21ECFF701E8519A
:102EC000FC47E730F10508F045C4EA57F74D0C948C
:102ED000B42626E241EE61EEC8010E94A21545CF5C
:102EE00027E245EE65EEF8CF26E241EE60EEF4CF44
:102EF00027E245EE64EEF0CF26E241EE62EEECCF43
:102F000027E245EE66EEE8CF28E241E0EBCF809184
:102F10007A02816080937A0295C080917B028860FA
:102F200080937B028FC080917A028260F3CF809180
:102F30007A028460EFCF80917A028860EBCF809133
:102F40007B028160EDCF80917B028260E9CF80912E
:102F50007A028061DFCF80917A028062DBCF80913C
:102F60007A028064D7CF0E94C51180917A0280686E
:102F7000D1CF80917A028C60CDCF80917B0283602B
:102F8000CFCF80917A028E7FC5CF80917B02877FE1
:102F9000C7CF80917A028D7FBDCF80917A028B7FDF
:102FA000B9CF80917A02877FB5CF80917B028E7FE7
:102FB000B7CF80917B028D7FB3CF80917A028F7ED5
:102FC000A9CF80917A028F7DA5CF80917A028F7BE5
:102FD000A1CF0E94C51180917A028F779BCF8091FB
:102FE0007A02837F97CF80917B028C7F99CF8091EB
:102FF0007A0282FB992790F921E0922790FB82F9CF
:1030000090FB83F987CF80917B02982F90959170E8
:103010008E7F892B90FB81F983CF90917A02892F43
:103020008F7B96FF806476CF0E94C51190917A02C3
:10303000892F97FB87F980586DCF61E08EE090E093
:103040000E94E32760917A0270917B0284E090E015
:103050000E9401280E94C51188CE60E0EFCF9091B8
:103060007A02892F8F7E94FF806154CF90917A02EB
:10307000892F8E7F90FF81604DCF90917B02892FA9
:10308000877F93FF88604CCF8091C40169E28111F2
:1030900065E384EA91E00E94F60459C3F7E7EF166E
:1030A000FCE7FF0609F022C381E00E94C40943E067
:1030B00062E081E00E94800958CE8091670280FF23
:1030C00019C0282F2E7F209367023091680240910B
:1030D000690250916A0260916B0270916C0280915A
:1030E0006D0290916E020E94A90F10924B020E94F5
:1030F0003C0B3BCE81608093670261E086950E9425
:10310000C91033CE43E151E16DE171E10E94AC059C
:103110002CCE4DE151E163E171E1F8CF41E850E19E
:103120006BE870E1F3CF4BE850E161E870E1EECF7E
:1031300047E650E164E770E1E9CF44E750E167E634
:1031400070E1E4CF4DE450E16AE570E1DFCF4AE59C
:1031500050E16DE470E1DACF45E950E16FEA70E1EA
:10316000D5CF4FEA50E165E970E1D0CF61E081E071
:10317000C6CF65E082E00E942811F7CD68E086E0C6
:10318000FACF6EE089E0F7CF64E18FE0F4CF67E13A
:1031900085E1F1CF61E088E1B2CF62E289E1EBCF76
:1031A00061E083E2ACCF6AE285E2E5CF27E7E21691
:1031B0002CE7F20609F457C038E7E3163CE7F306BC
:1031C00009F455C0F8018581E080F180882309F475
:1031D00082C0C7010E94760ED82E682FC7010E94B8
:1031E0004609B7018D2D0E94680E0E94E3077C01FD
:1031F000882ED8011596AC90159716969C909294AF
:103200003FE093228091EB018770F1F0CA2CAA2055
:10321000E1F08F2D807F803451F080E28E0D883078
:1032200098F0911004C08F2D807E803269F08091DB
:103230007B0282FF09C082E00E94AD098091EB0110
:103240008770CC24C3948111C12CBF2CB2942FE081
:10325000B222BBE0BB1508F4A6C0EB2DF0E0E357AB
:10326000F74D0C94B42681E00E94A00920CF82E0A3
:10327000FBCFEBE5EE16ECE7FE0659F1FCE5EF16A9
:10328000FCE7FF06E1F02AE5E2162CE7F20609F07A
:1032900099CF81E01BC00E94C5113FEF84E39CE001
:1032A000315080409040E1F700C000000E94180BB0
:1032B0006FEF7FEF90E080E00E94012831C28091A3
:1032C0007B0282FB882780F991E089270E944D11BB
:1032D00079CF80E0FBCFC7010E941209D82E81CFA1
:1032E000EF2DEF70DE2E8F2D807F19F0D29490EFAE
:1032F000D922AA20B9F0DD2069F080E28E0D883055
:1033000010F0811009C080910E02D82AD0920E02CE
:103310000E9470118E2D45C080910D02D82AD09246
:103320000D02F6CF8E2D0E94D914DD20E1F180E24E
:103330008E0D883010F0811004C08D2D0E9401097F
:1033400006C0D09480910D02D822D0920D020E9426
:10335000701129C0FF2DFF70DF2E8F2D807F8032EE
:1033600019F0D29480EFD822882059F021E08216FB
:1033700009F481C0AA2009F48DC0992009F44FC036
:10338000C9CF80917B0282FD46C0AA20F1F1DD20E9
:1033900039F080910E02D82AD0920E020E9470114C
:1033A00080E00E940F15AB2DA850BB0B149710F4B2
:1033B0000E949F05CC20A9F08091EB0180FD11C0F7
:1033C000F80115828695869586950E94C409C801E4
:1033D0000E94FF158091EB018695869586950E9447
:1033E000A00920E0D8014C9111965C91119712969A
:1033F0006C91129713967C91139714968C91149755
:1034000015969C910E94D50EC0CC80E00E94D914E4
:10341000DD2049F292CFAA20A1F0911004C08D2D99
:103420000E94CF14C0CF31E09312BDCF80910C0227
:103430009D2D9823D91609F4B6CFD82AD0920C0224
:10344000B2CF9110B0CF8D2D0E94C81490910C0274
:103450008D2D892329F08D2D8095892380930C0251
:103460008091C5019D2D982309F49DCFD094D82239
:10347000D092C50198CFAA2029F085E0891508F4DB
:1034800092CFCDCF94E0991508F48DCF8D2D0E9469
:10349000C81489CF9920D1F3A9E38A1209C0BFEFDC
:1034A000E7EEF3E0B150E040F040E1F700C000008B
:1034B0008E2D0E94D91477CF8F2D86958695837097
:1034C00061F0813009F06FCFC7019370A11002C085
:1034D00080E090E00E94550566CFC7019370A1106F
:1034E00002C080E090E00E947A055DCF6A2D8E2DAB
:1034F0000E94D30958CF8F2D837091F5A11053CF1F
:103500004E2D429546954770440F440F8E2D8F7077
:10351000042E01C0880F0A94EAF72E2D2071E4FED4
:1035200007C02FE030E001C0220F4A95EAF720954E
:103530003F2D369536953370323069F050F4409116
:103540000F02313029F0822B84230E94D0092BCF27
:10355000842B822BFACF282B80910F028227F5CF64
:103560008695AA2011F08F2D8170882309F41BCF36
:103570004E2D429546954770440F440F8E2D8F7007
:10358000042E01C0880F0A94EAF72E2D2071E4FE64
:1035900007C02FE030E001C0220F4A95EAF72095DE
:1035A0003F2D369536953370323069F050F44091A6
:1035B0001F02313029F0822B84230E947D09F3CE33
:1035C000842B822BFACF282B80911F028227F5CFE4
:1035D0002F2D2F70F22EAA2029F0822F0E94C409CD
:1035E0008E2D1ECF8E2D0E94C8148F2D0E94A009F3
:1035F000DACE8E2D32EF8316B1F1381570F090EFE0
:103600008916D1F0A1EF8A1691F0AA2009F45EC0C4
:10361000911080CE8F2D8F712AC0B3EF8B1651F190
:10362000E4EF8E12F2CF80917B0282FD2FC08F2DAE
:103630008F71AA20D9F21BC0AA2081F0F4E0F915FD
:1036400008F4B1CE2F2D2F7181E090E001C0880FDA
:103650002A95EAF790911F028927AFCF25E0291517
:1036600008F4A1CEEFCF8F2D8F71A110BFCF0E9494
:10367000C40999CE80E0AA2009F49FCF9F2D9F71A5
:1036800081E001C0880F9A95EAF797CFAA2099F0B8
:103690003F2D3F71F32E832F0E94C40980917B023E
:1036A00082FF07C0A8E0FA9EC001112483608093C6
:1036B000EB018F2DDCCF81E00E94AD09B1E0B9159F
:1036C00008F071CE82E00E94AD096DCE992059F0CC
:1036D000893309F0EDCEEFEFF7EE23E0E150F04053
:1036E0002040E1F7E3CE8F2D8F7180CF82E0B8E7E5
:1036F000EB16BCE7FB0609F4D8CC83E0E8168CE7B0
:10370000F80609F4D5CD08F0B4CDE114ACE7FA061B
:1037100009F4C1CDB1E0EB16BCE7FB0609F052CDD0
:103720000E94B214E6E1EE16ECE7FE0609F0B6CC14
:1037300080910E028A7A91E009F490E09093C4019E
:1037400069E2811165E384EA91E00E9420050E940C
:1037500070110BCBF6E1EF16FCE7FF0609F494CCF1
:1037600080910E028272F701E052F847E531F105CF
:1037700008F01CCDE756F74D0C94B426F701E8513C
:10378000FC47E730F10508F4A0CB1092E702C7012F
:103790009057839738F684E090E00E94CD2790936D
:1037A0007B0280937A02F701E150F047E232F105A3
:1037B00008F0ADCBE255F74D0C94B426CF93DF93D0
:1037C0008091EA01807F09F04DC08091E901882352
:1037D00009F448C0E091E4025091AB02C091E501C8
:1037E000D091E4016091E6017091E70147E05E1736
:1037F000C9F18E2F90E0E49FF0011124E455FD4FB4
:103800002481222391F1489FF001499FF00D11245A
:10381000DF01A455BD4F11962C9111972C1325C093
:103820002C912D1322C015962C91159721111DC096
:1038300012962D913C91261B370B283C3105A8F49C
:103840008091EA018F7080618093EA01EE54FD4F10
:1038500080818F708061808384EE91E00E94FF15EB
:103860000E940809DF91CF910895FC013196E7701D
:10387000BECFA4E1B0E0EFE3FCE10C94D6268C01CE
:1038800086E0F801DE011F9601900D928A95E1F71E
:10389000F8018481E58094EEA92E91E0B92E9091F3
:1038A000E801911128C0882319F1EE20F1F0C80138
:1038B0000E94B20EF82E8823C1F087E0F801D501EE
:1038C00001900D928A95E1F78091E801813031F401
:1038D0008091E4019091E5010E94A50E0E94DE1BFB
:1038E0008F2D6496ECE00C94F226C8010E94FF151F
:1038F000FF24F394F5CFD080C18082809380F09034
:10390000E9012091E6013091E701A401421B530B2C
:10391000FF2009F4D9C0483C510508F092C0882323
:10392000F9F29091E5018091EA01282F207F09F0BA
:1039300056C0C91214C09091E401D91210C0E11010
:1039400048C08F7080618093EA0184EE91E00E940C
:10395000FF158091EA01F8018683F12CC1CFE110B7
:1039600038C06C2D8D2D0E945F036C2D8D2D0E9413
:103970005F03E82E8111F1CFDF86C88A8F85988991
:103980000E94A50E292F22952F70243058F49F7085
:10399000223088F0992399F0F8019681907F79F48C
:1039A000FE2C9ECF2A5F2F70223068F0C8010E9443
:1039B000FF15EF2CF5CF992311F0882389F3805E52
:1039C000883070F3F3CF803F58F3815F833070F716
:1039D000E7CF8091EA0181608093EA01BECFC912EE
:1039E00007C09091E401D91203C0EE2009F48DC004
:1039F000C8010E94B20E882309F477CFEE2009F4A3
:103A000074CF8091EA01803288F02091E4013091F6
:103A1000E501398728879B868A869091E8019C87F3
:103A20001D868E87CE0108960E94FF1587E0F8015B
:103A3000A4EEB1E001900D928A95E1F70E94DE1BA1
:103A400057CF9091EA01292F207F51F484EE91E025
:103A50000E94FF1587E0F50111928A95E9F77DCF65
:103A6000882309F43DCF8091E5018C1110C080912D
:103A7000E401D8120CC0E1100AC09683C8010E946C
:103A8000FF1587E0F50111928A95E9F729CFC80162
:103A90000E94B20E882309F428CFEE2009F425CF26
:103AA0008091EA01803210F22091E4013091E50129
:103AB0003A8329839C828B829091E8019D831E82A8
:103AC0008F83CE010196B0CF483C5105D0F68823B4
:103AD00009F40ECFFE2CEE2009F407CF8091E5010A
:103AE0008C1120C08091E401D8121CC08091EA01A1
:103AF00080FD0FC0982F907F61F08683903F31F05A
:103B0000982F907F905F8F70892B8683C8010E94C9
:103B1000FF1587E0F801A4EEB1E001900D928A95BF
:103B2000E1F7DECEC8010E94B20E81117FCF8091F5
:103B3000EA0181608093EA01C8010E94FF15D0CE9E
:103B4000ABE1B0E0E6EAFDE10C94DE264E8B5F8B44
:103B5000688F798F8A8F9B8F192F911110920D0288
:103B60001D8A86E0FE017696DE011F9601900D9279
:103B70008A95E1F70A8D002341F021E04F855889AD
:103B800069897A89C8010E94D50E0B8B1C8B87E04E
:103B9000FE013F96DE01189601900D928A95E1F79D
:103BA000CE0108960E94391C81110CC087E0FE01ED
:103BB0003896DE01119601900D928A95E1F78C8579
:103BC00081110BC017E08091E4029091AB02891340
:103BD00031C06B96E4E00C94FA262091AB0230E001
:103BE000C9010196877099274091E4024817190688
:103BF00099F097E0929FD001939FB00D1124A455A6
:103C0000BD4FFE01319601900D929A95E1F7809398
:103C1000AB020E940809D6CF0E94C5111092AB02D8
:103C20001092E40287E0E4EEF1E0DF011D928A9554
:103C3000E9F7C8CF819FC001112484559D4F0E9490
:103C4000391C882331F28091E40290E0019687705C
:103C500099278093E402B7CFA6E0B0E0E2E3FEE16B
:103C60000C94DE260E94EA048C018091100290914F
:103C700011028017910781F019821A820E94EA04CA
:103C8000682F49815A81792F80E090E00E94A01D21
:103C900010931102009310022696E4E00C94FA2689
:103CA000AAE0B0E0E6E5FEE10C94D6268E010F5FB7
:103CB0001F4F8AE0F80111928A95E9F794E5E92E01
:103CC00091E0F92E6801AA24A394B12CF701819107
:103CD0007F018F3F09F446C0F894E82FE295EF701A
:103CE000F0E021A18F70A50102C0440F551F8A95F5
:103CF000E2F7CA01922F982B91A392A18095892374
:103D000082A3789400C0E9E5F1E021E030E0912C55
:103D1000812C41914F3F09F467C0A42FA295AF7049
:103D2000B0E090968C9190E04F7002C09595879589
:103D30004A95E2F780FD58C0C901882A992A220FC6
:103D4000331F51E0E836F50721F7F70131978081FD
:103D50008F3F11F00E94DB0680EA8A95F1F7F601A9
:103D600091828082F2E0CF0ED11C49E5E41641E059
:103D7000F40609F0ABCF4AE050E0B80185E192E0EB
:103D80000E94B227892B99F18AE0F801A5E1B2E0FF
:103D900001900D928A95E1F781E0809314020E94D0
:103DA000EA04909313028093120280911202909180
:103DB00013020E94DB040597F0F04AE050E065E151
:103DC00072E08DE292E00E94B227892BC9F08AE06E
:103DD000E5E1F2E0ADE2B2E001900D928A95E1F703
:103DE00081E01092140208C090E080E0A6CF80919C
:103DF00014028111DACF80E02A96ECE00C94F226CE
:103E000080E0EFCFA8E0B0E0E8E0FFE10C94E0262E
:103E100066EE7EEF90E080E00E94012860E082E0A4
:103E200090E00E94E32760E083E090E00E94E327B7
:103E300010920F0260E074E184E090E00E9401289B
:103E400060E086E090E00E94E3276FEF87E090E07B
:103E50000E94E32740E050E0BA0188E090E00E9431
:103E6000F52760E084E290E00E94E32760E087E1CC
:103E700090E00E94E32760E08CE090E00E94E3275E
:103E800060E08DE090E00E94E32719821A821B8295
:103E90001C821D821E821F82188648E050E068E165
:103EA00070E0CE0101960E94D32740E050E0BA01B5
:103EB00080E290E00E94F52780E00E94100E0E94B0
:103EC000290E40E050E0BA018FE090E00E94F52713
:103ED00040E050E0BA0183E190E00E94F527289687
:103EE000E2E00C94FC261F920F920FB60F92112461
:103EF0002F933F934F935F936F937F938F939F93F2
:103F0000AF93BF93CF93DF93EF93FF93D091E900EB
:103F1000DF708091EC00C82FC17080FDC0E8109266
:103F2000E9008091F000877F8093F00078940E94F0
:103F3000F4111092E9008091F00088608093F00005
:103F4000CD2BCF70C093E900FF91EF91DF91CF911E
:103F5000BF91AF919F918F917F916F915F914F91A1
:103F60003F912F910F900FBE0F901F9018951F92A9
:103F70000F920FB60F9211242F933F934F935F939D
:103F80006F937F938F939F93AF93BF93EF93FF9321
:103F90008091E10082FF09C08091E20082FF05C0AC
:103FA0008091E1008B7F8093E1008091DA0080FFB7
:103FB00024C08091D80080FF20C08091DA008E7FDD
:103FC0008093DA008091D90080FF9DC080E189BD97
:103FD00082E189BD09B400FEFDCF81E08093A1029A
:103FE00080917C02811109C00E947E030E941F04FF
:103FF0008091E20084608093E2008091E10080FF84
:1040000017C08091E20080FF13C08091E2008E7F94
:104010008093E2008091E20080618093E2008091D1
:10402000D80080628093D80019BC85E08093A102FB
:104030008091E10084FF2BC08091E20084FF27C0C3
:1040400080E189BD82E189BD89B5982F917080FF9B
:10405000FBCF8091D8008F7D8093D8008091E100C4
:104060008F7E8093E1008091E2008F7E8093E2005A
:104070008091E20081608093E2008091A202882317
:1040800009F447C084E08093A1028091A10280914D
:10409000E10083FF27C08091E20083FF23C080916D
:1040A000E100877F8093E10082E08093A10210927B
:1040B000A2028091E1008E7F8093E1008091E20076
:1040C0008E7F8093E2008091E20080618093E20025
:1040D00042E060E080E00E94ED038091F0008860A3
:1040E0008093F000FF91EF91BF91AF919F918F91DD
:1040F0007F916F915F914F913F912F910F900FBEE4
:104100000F901F90189519BC1092A10210927C027A
:1041100074CF8091E30087FD93E09093A102B5CF27
:1041200078941F921FB61F9211248F939F93AF9381
:10413000BF938091760290917702A0917802B0911E
:1041400079020196A11DB11D8093760290937702AA
:10415000A0937802B0937902BF91AF919F918F9114
:104160001F901FBE1F9018951F921FB61F921124FB
:104170008F939F93AF93BF9380917502811113C06A
:104180008091760290917702A0917802B0917902A5
:104190004196A11DB11D8093760290937702A09362
:1041A0007802B0937902BF91AF919F918F911F9048
:1041B0001FBE1F901895CDB7DEB7A6970FB6F8941F
:1041C000DEBF0FBECDBF85B7806885BF85B780686D
:1041D00085BF84B7877F84BF0FB6F894A895809178
:1041E0006000886180936000109260000FBE80E8DC
:1041F00090E00FB6F89480936100909361000FBE39
:1042000089ED96E09093A3018093A2010E947E0322
:104210000E941F048091E20084608093E200789401
:104220008091A1028823A1F01091E9001F70909164
:10423000EC00892F817090FD80E8182B1092E90026
:104240008091E80083FD0E94F4111F701093E90033
:1042500082E084BD93E095BD9AEF97BD80936E0098
:104260000E94FA0E811102C00E94290E04E511E09D
:10427000A9E5EA2EA1E0FA2ED8018D918D018F3F9C
:1042800011F00E94DB06E016F106B1F709E511E036
:10429000F8E6EF2EF1E0FF2EF80181918F018F3FBC
:1042A00011F00E94DB06E016F106B1F78AE0EDE2BC
:1042B000F2E0DF01282F1D922A95E9F7E5E1F2E00F
:1042C000DF011D928A95E9F70E946411811102C0F5
:1042D0000E94021F82E090E00E94BF27809321028B
:1042E00084E090E00E94CD2790937B0280937A0235
:1042F0000E94501EBFEFE6E7F1E0B150E040F04011
:10430000E1F700C000000E94501E80912D0280FF46
:1043100008C06FEF7FEF90E080E00E9401280E94CC
:10432000180B83E090E00E94BF270E94D009809183
:104330002002811173C00E946411811104C00E9487
:10434000021F0E94381188E090E00E94C7274B01AD
:104350005C0184E290E00E94BF27282F30E040E01B
:1043600050E060E070E080E090E000E20E9407270B
:10437000282939294A295B2920936702309368024A
:104380004093690250936A0260936B0270936C02CF
:1043900080936D0290936E022E7F89F50E943811F2
:1043A00088E090E00E94C7276B017C0184E290E0E6
:1043B0000E94BF27282F30E040E050E060E070E02E
:1043C00080E090E00E940727B22FA32FF42FE52F63
:1043D0005B0197018601BC29A12BFE29E32BB09339
:1043E0006702A0936802F0936902E0936A02609307
:1043F0006B02B0926C0280936D0290936E020E94E9
:10440000B30510924B028091670280FF04C060E008
:1044100086950E94C91081E08093200284E091E09B
:10442000909372028093710277E3472E72E0572EC9
:10443000ECE26E2EE2E07E2E8091A10200E112E11C
:10444000853009F497C00E94501E52E2A52E52E01A
:10445000B52E6DE2862E62E0962ED401F5012191F3
:1044600031918D919D916E167F0609F48DC02817AC
:104470003907A9F3312CF401019111914F01D501B4
:10448000CD90DD905D01C016D10661F1C026D12628
:10449000212CEE24E394F12CC6018E219F21892B3F
:1044A000B9F029A23AA20E94EA049CA38BA3B1E02E
:1044B000BDA391E098012E213F21232B09F490E028
:1044C0009EA349A15AA16BA17CA18DA10E94A01D10
:1044D0002394EE0CFF1CEFE02E12DECFF501329795
:1044E000118300833394F5E03F12C5CF8FB7F89462
:1044F0004091760250917702609178027091790232
:104500008FBF48C08091A102843021F110927502C2
:1045100088E190E0A0E40FB6F894A895809360003D
:104520000FBEA093600083B7817F846083BF83B791
:10453000816083BF7894889583B78E7F83BF0FB6E1
:10454000F894A89580916000886180936000109233
:1045500060000FBE8091A002882361F00E94501E6F
:10456000EDE2F2E081919191892B09F099C34E1609
:104570005F06C1F78091A102853009F4C3CF0E9484
:10458000C5110E949F055FCF2817390709F072CF28
:104590000E942C1E80914B028823D1F180914A0207
:1045A000E0916702E695E81BE0934602823009F04D
:1045B00045C1F0E0E757FD4FE4910E2F10E02DE8E4
:1045C000E22E2DE0F22E80914702882361F01092B6
:1045D00047020E94EA04909345028093440210929D
:1045E0004902109248020E94EA04E0914402F091CC
:1045F00045028E1B9F0B8F3F9F4750F4E00FF11F2A
:10460000F0934502E093440284E492E0F7010995B7
:1046100086E0EEE3F2E0DE01119601900D928A95BC
:10462000E1F7D0903F021091400200914102E090EA
:104630004202F09043021092400210924102109206
:10464000420210924302812F802B09F445C08091D1
:104650003C0290913D020E94DB049C019091370244
:10466000992309F446C325313105B0F19F3F19F074
:104670009F5F90933702112359F00E94AB069FEF82
:1046800011160CF491E0899F802D11248093400233
:10469000002359F00E94AB0691E010160CF09FEF3A
:1046A000899F802D112480934102809140028823AC
:1046B00099F0C0904102CC2079F00E94CB0688236B
:1046C00009F42CC1809340028C2D0E94CB068823D4
:1046D00009F426C1809341028E2D8F2909F445C02B
:1046E00080913A0290913B020E94DB049C019091E0
:1046F0003802992309F4F8C221353105B0F19F3F02
:1047000019F09F5F90933802EE2059F00E948906BD
:104710009FEF1E140CF491E0899F802D112480934B
:104720004202FF2059F00E94890691E01F140CF00C
:104730009FEF899F802D1124809343028091420234
:10474000882399F0E0904302EE2079F00E94CB0696
:10475000882309F4E7C0809342028E2D0E94CB0685
:10476000882309F4E1C08093430280913F028D11B8
:1047700017C080914002882311F0181311C02091B6
:104780004102222311F020130BC090914302992380
:1047900011F09F1105C030914202332309F496C2F3
:1047A0000E94620686E0FE013196AEE3B2E001901F
:1047B0000D928A95E1F70E949F0590912C0289172E
:1047C00069F080932C028FB7F89440917602509153
:1047D000770260917802709179028FBF8091A10277
:1047E000843009F029CE83E08093E9008091E800CD
:1047F00082FF22CE8091E80090E085FF0CC00E94ED
:104800009D0340E2E42EF12C8E010F5F1F4F8823A1
:1048100009F496C091E08091E8008B778093E800DE
:10482000992309F409CE8981EFEFE80FE33108F00D
:10483000A0C0F0E0E053F74D0C94B426863059F454
:10484000F0E0EA57FD4FE4910E2F10E09DE7E92ECE
:104850009DE0F92EB8CE893061F4E695F0E0ED5791
:10486000FD4FE4910E2F10E089EEE82E8CE0F82E3B
:10487000AACE8F3061F4E695F0E0E058FD4FE49168
:104880000E2F10E0B4E8EB2EBCE0FB2E9CCE853161
:1048900059F4F0E0E358FD4FE4910E2F10E0ADE243
:1048A000EA2EACE0FA2E8FCE08E210E07FEAE72E87
:1048B0007BE0F72E883109F486CE833249F4EBE7AA
:1048C000F2E005911491FCE2EF2EFDE0FF2E7BCE8D
:1048D00004EF11E069E7E62E6BE0F62E843209F46E
:1048E00072CE00ED17E052EBE52E55E0F52E853245
:1048F00009F069CE8BEAE89F812D11248695982FC7
:10490000990F890FE81BF0E0E858FD4FE4910E2F56
:1049100010E0E3E1EE2EEFE0FE2E55CE81E0D2CEA8
:1049200081E0D8CE81E017CF81E01DCF8091F100EA
:10493000D8018D938D01B1E0EB1AF10809F46ACF2B
:104940008091E80085FDF2CF8091E8008B7780931D
:10495000E8000E949D03882399F35CCF1A828CE0C3
:104960008B8324C08A81823009F4B5C128F4813058
:1049700061F08FEF89831AC0833009F18430C9F761
:104980001B821C821D821E8211C02FB7F894609179
:1049900076027091770280917802909179022FBF10
:1049A0000E94BA266B837C838D839E8340E250E015
:1049B000BE016F5F7F4F82E00E94AB0A3DCD2B812D
:1049C000822F90E0FE013196225F8530910570F7CD
:1049D000DC01AA0FBB1FA35DBD4F3C9111964C910A
:1049E00043833483019632962813EFCFDFCF8A8139
:1049F000823089F0853009F0BCCF8091670280FF5A
:104A000015C0809167028E7F8093670210924B02DF
:104A10000E943C0BCBCF6B817C818D819E810E945B
:104A2000BA2688E290E00E94E327C0CF816080939D
:104A3000670260E086950E94C910B8CF4C816B81F7
:104A40008A810E94390E9827892798279E838D8313
:104A5000ADCF2D813E813227232732274C816B81B8
:104A60008A810E94B10DA2CF0E94D70D9FCF9A815B
:104A7000923009F07ECF8830D9F1893009F463C0D3
:104A80008B81823009F1A8F4813009F08FCF8C81BD
:104A9000E8E78E9FC00111246FEF70E00E948C2622
:104AA000462F20E060916902809168020E94CF0F3A
:104AB0007DCF8330C9F0843009F078CF20E0409179
:104AC0006A026D818C81F2CF8C81882309F499CFA1
:104AD0008091670281608093670260E086950E9402
:104AE000C91060E08C81A7CF8C8180936B025ECF70
:104AF0008B818230E1F078F4813009F057CF8091DA
:104B00006A02FFEF8F9FC001112468E770E00E94E6
:104B10008C266C834BCF833099F0843009F046CFDC
:104B2000809168028C83809169028D833FCF809150
:104B3000670280FF03C086958C8338CF80E0FCCF6E
:104B400080916B02F9CF2091670230916802409109
:104B5000690250916A0260916B0270916C028091BF
:104B60006D0290916E020E94A90F20CF80E18A838E
:104B70001DCF81E08A838FE7F3CE0A811B81102746
:104B800001271027CE0101967C01CC80DC01AC0D01
:104B9000B11D6D01C8018F579D4FEC14FD0409F440
:104BA00005CF0F37B1E01B0750F40E94BF27F70174
:104BB00084830F5F1F4FBFEFEB1AFB0AEBCFD701C8
:104BC00014961C92F6CF0A811B811027012710270B
:104BD000FE0131966F01EC80E00EF12EF11CC80150
:104BE0008F579D4F0E151F0509F4E0CE0F37F1E0EA
:104BF0001F0728F4D60114966C910E94E327BFEF9B
:104C0000CB1ADB0A0F5F1F4FEACF0E94A10DCECE59
:104C100084E0ADCF0A811B81102701271027FE01F8
:104C200031967F01CC80CF018C0D911D6C01C801A4
:104C30008996CE14DF0409F4B9CE0835A2E01A072C
:104C400050F40E94BF27F70184830F5F1F4FBFEF0F
:104C5000EB1AFB0AECCFD70114961C92F6CF0A810F
:104C60001B81102701271027FE0131966F01EC8070
:104C7000E00EF12EF11CC8018996E016F10609F448
:104C800095CE0835F2E01F0728F4D60114966C91F2
:104C90000E94E327BFEFCB1ADB0A0F5F1F4FEBCF5A
:104CA00009BD19BD09B400FEFDCF8091D8008F7DEC
:104CB0008093D8008091E00082608093E000809132
:104CC000E00081FDFCCF0E94C51154CC822B892BC2
:104CD00009F468CD65CD88E290E00E94BF271B8271
:104CE0001C821D828E8362CE2B30310508F009CDE7
:104CF0003CCD2B30310508F0BBCCEECC87FB082E29
:104D0000062687FD819567FD61950E943D270EF47B
:104D1000919507FC81950895AA1BBB1B51E107C023
:104D2000AA1FBB1FA617B70710F0A61BB70B881F3B
:104D3000991F5A95A9F780959095BC01CD010895CA
:104D400097FB072E16F4009407D077FD09D00E9438
:104D50008C2607FC05D03EF4909581959F4F0895D1
:104D6000709561957F4F0895EE0FFF1F0590F491A8
:104D7000E02D0994692796276927782787277827C0
:104D800008950E946B28332312F48A1B9B0B0C940A
:104D9000CB260E946B28B7FF0895821B930B0895C2
:104DA0002F923F924F925F926F927F928F929F923B
:104DB000AF92BF92CF92DF92EF92FF920F931F9329
:104DC000CF93DF93CDB7DEB7CA1BDB0B0FB6F894DA
:104DD000DEBF0FBECDBF09942A88398848885F841A
:104DE0006E847D848C849B84AA84B984C884DF808B
:104DF000EE80FD800C811B81AA81B981CE0FD11D6F
:104E00000FB6F894DEBF0FBECDBFED010895002EA2
:104E1000083090F0982F872F762F652F542F432F2F
:104E2000322F22270850F4CF220F331F441F551F63
:104E3000661F771F881F991F0A95B2F7002D0895E6
:104E400097FD1094002E083098F00850232F342F2F
:104E5000452F562F672F782F892F912DF4CF15943A
:104E600097958795779567955795479537952795A2
:104E70000A95AAF71124002D0895991B79E004C022
:104E8000991F961708F0961B881F7A95C9F7809589
:104E900008958F929F92AF92BF92CF92DF92EF923E
:104EA000FF92CF93DF93EC01688179818A819B81A6
:104EB000611571058105910521F464E279ED8BE5B9
:104EC00097E02DE133EF41E050E00E9417284901BF
:104ED0005A019B01AC01A7EAB1E40E9436286B019C
:104EE0007C01ACEEB4EFA50194010E944428DC01E2
:104EF000CB018C0D9D1DAE1DBF1DB7FF03C00197DB
:104F0000A109B04888839983AA83BB839F77DF91E7
:104F1000CF91FF90EF90DF90CF90BF90AF909F9098
:104F20008F9008950E944927089580E091E00E94A3
:104F300049270895B0E0A0E080930001909301011B
:104F4000A0930201B09303010895FC014150504029
:104F500030F001900616D1F73197CF0108958827D8
:104F600099270895FB01DC0104C08D9101908019FF
:104F700021F441505040C8F7881B990B0895F999C6
:104F8000FECF92BD81BDF89A992780B50895A6E11C
:104F9000B0E044E050E00C940928A8E1B0E042E021
:104FA00050E00C940928DC01A40FB51F415050407B
:104FB00048F0CB01840F951F2E910E94E4274150A9
:104FC0005040D0F70895262FF999FECF92BD81BDAC
:104FD000F89A019700B4021639F01FBA20BD0FB637
:104FE000F894FA9AF99A0FBE08950396272F0E9413
:104FF000E4270E94E327252F0E94E427242F0C9406
:10500000E4270196272F0E94E4270C94E327DC0174
:10501000CB01FC01F999FECF06C0F2BDE1BDF89AC3
:10502000319600B40D9241505040B8F70895052EC6
:1050300097FB1EF400940E942E2857FD07D00E9473
:10504000492807FC03D04EF40C942E285095409527
:10505000309521953F4F4F4F5F4F08959095809524
:10506000709561957F4F8F4F9F4F08950E946B28D9
:10507000A59F900DB49F900DA49F800D911D1124AC
:105080000895B7FF0C9436280E943628821B930B94
:105090000895A1E21A2EAA1BBB1BFD010DC0AA1F79
:1050A000BB1FEE1FFF1FA217B307E407F50720F091
:1050B000A21BB30BE40BF50B661F771F881F991F0C
:1050C0001A9469F760957095809590959B01AC0155
:1050D000BD01CF010895A29FB001B39FC001A39F5E
:1050E000700D811D1124911DB29F700D811D112421
:1050F000911D0895F894FFCFD512FD12A014FD1252
:10510000A01430135113A0144F145C1474177817A3
:10511000691770177C178017841770197019AA19EE
:10512000AA195C1A761AD319D3197B1AE81AF91A34
:10513000F91A5D18821889188E18931898189D18F6
:10514000A218A718AC18B118B618B918BE18C1180B
:10515000C418C718CA18CD18D018D318C1173618D4
:10516000C91793179717CD179B17D117DD17A717D7
:105170002F18AB17E117AF17E5170D18B317E9177D
:105180001418B917EF17F7179F17D517A317D917C3
:10519000BD17F31703181D182D188D17C5173D18C7
:1051A000AE24B224F7241E2529253425372537259A
:1051B0003725B924B924B625B925BD25E32505260B
:0651C00008260A262F2636
:1051C60001000000D804F40AED0AE60A01191A1BC8
:1051D6001C1D1E1F20212201020101818283E20083
:1051E600E900EA00B500B600B700CD008301CC00A7
:1051F6008A01920194012102230224022502260239
:1052060027022A02B300B4006F0070009F01CB0191
:105216009F02A0029091929395F0F1F4F5F6F7674C
:10522600C6663635349796940001020202020606D7
:10523600060909090909090F0F0F0F0F0F15151593
:105246001819191919191919191919232425252590
:105256002525254422B684016201AC00D005E90566
:02526600090637
:00000001FF
