:100000000C94AC020C94E4020C94E4020C94E40210
:100010000C94E4020C94E4020C94E4020C94E402C8
:100020000C94E4020C94E4020C941D250C94F1252C
:100030000C942A200C94E4020C94E4020C94E40244
:100040000C94E4020C94E4020C94E4020C94E40298
:100050000C94E4020C94B1200C94E4020C94E4029D
:100060000C94E4020C94E4020C94E4020C94E40278
:100070000C94E4020C94E4020C94E4020C94E40268
:100080000C94E4020C94E4020C94E4020C94E40258
:100090000C94E4020C94E4020C94E4020C94E40248
:1000A0000C94E4020C94E4020C94E4022900350060
:1000B0001E001F0020002100220023002400250034
:1000C000260027002D002E002A004B002B001400D4
:1000D0001A000800150017001C0018000C00120080
:1000E00013002F00300031004E00390004001600CC
:1000F000070009000A000B000D000E000F0033007E
:100100003400000028000000E1001D001B00060074
:1001100019000500050011001000360037003800F6
:100120005200E5000000E000E300E20000002C00C7
:10013000000000002C00000021520000500051007F
:100140004F0035003A003B003C003D003E003F00C0
:100150004000410042004300440045004C000100C3
:100160000100010020782478237821782678010086
:100170000100010001000100010001000100010077
:10018000010001000100277828782578010001008E
:100190000100010001000100000001000000010059
:1001A0000100010001000100010001000100010047
:1001B0000100010001000100010000000100010038
:1001C000010000000100000000000100000001002B
:1001D00000000100010001001E0F0500047F3F1F09
:1001E000643214643214783C1E1E140A052223253E
:1001F0002628292A2C2D2F3032333536383A3B3DEC
:100200003E4042434547494A4C4E50515355575939
:100210005A5C5E6062646668696B6D6F7173757756
:10022000797B7D7F81838587898A8C8E9092949655
:10023000989A9C9E9FA1A3A5A7A8AAACAEAFB1B364
:10024000B4B6B8B9BBBCBEBFC1C2C3C5C6C7C9CAB4
:10025000CBCCCDCED0D1D2D2D3D4D5D6D7D7D8D976
:10026000D9DADADBDBDBDCDCDCDCDCDDDDDDDDDCD4
:10027000DCDCDCDCDBDBDBDADAD9D9D8D7D7D6D5E6
:10028000D4D3D2D2D1D0CECDCCCBCAC9C7C6C5C3A8
:10029000C2C1BFBEBCBBB9B8B6B4B3B1AFAEACAAF5
:1002A000A8A7A5A3A19F9E9C9A98969492908E8CA5
:1002B0008A89878583817F7D7B79777573716F6D7F
:1002C0006B6968666462605E5C5A59575553515059
:1002D0004E4C4A4947454342403E3D3B3A3836350D
:1002E0003332302F2D2C2A292826252322FFAA7FBE
:1002F0005540000101010101010101010202020258
:1003000002020202020303030303030303040404BF
:100310000404040405050505050606060606070788
:1003200007070708080808090909090A0A0A0B0B40
:100330000B0C0C0C0D0D0D0E0E0E0F0F0F101011DF
:100340001111121213131414151516161717181865
:1003500019191A1A1B1B1C1D1D1E1E1F20202122CD
:1003600022232424252626272829292A2B2C2D2D13
:100370002E2F30313232333435363738393A3B3C30
:100380003D3E3F404142434445464748494A4C4D23
:100390004E4F50515354555658595A5B5D5E5F61EC
:1003A0006264656668696B6C6D6F7072737577787F
:1003B0007A7B7D7E8082838587888A8C8E8F9193DD
:1003C0009596989A9C9EA0A2A3A5A7A9ABADAFB104
:1003D000B3B5B7BABCBEC0C2C4C6C9CBCDCFD1D4E9
:1003E000D6D8DBDDDFE2E4E7E9EBEEF0F3F5F8FA8F
:1003F000FDFF0E0373006500720069006300610079
:10040000000008036800610066000000040309049E
:1004100009023B00020100A0FA09040000010301E7
:100420000100092111010001224400070581030890
:10043000000109040100010300000009211101006D
:100440000122B6000705820320000112010002000C
:100450000000084148435300010102000105010961
:1004600002A10185020901A1000509190129081548
:100470000025019508750181020501093009311532
:1004800081257F95027508810609381581257F959C
:100490000175088106050C0A38021581257F950132
:1004A00075088106C0C005010980A10185031901F5
:1004B0002AB700150126B700950175108100C00507
:1004C0000C0901A101850419012AA002150126A029
:1004D00002950175108100C005010906A10185067C
:1004E000050719E029E71500250195087501810226
:1004F0000507190029EF1500250195F07501810206
:1005000005081901290595057501910295017503E5
:100510009101C005010906A101050719E029E715A8
:100520000025019508750181029501750881010575
:1005300007190029FF150026FF00950675088100A0
:100540000508190129051500250195057501910278
:10055000950175039101C00011241FBECFEFDAE0B1
:10056000DEBFCDBF04B603FE18C080913C0390915E
:100570003D03A0913E03B0913F038730904BA740CD
:10058000B04B59F410923C0310923D0310923E037D
:1005900010923F03E0E0F8E3099511E0A0E0B1E03C
:1005A000E8EDF3E502C005900D92AC3DB107D9F737
:1005B00023E0ACEDB1E001C01D92AC33B207E1F72E
:1005C0000E9432120C9496290C9400008230B8F4E8
:1005D0006530A8F44F3098F450E09FE0699F400DDB
:1005E000511D1124FA019BE4899FE00DF11D112496
:1005F000EE0FFF1FE455FF4F85919491089581E020
:1006000090E008950E94E602089581E008950E9416
:100610000503089581E008950E94050308950E944E
:100620000C03089508950E9412030895A6E0B0E017
:10063000ECE1F3E00C94422849835A839E83309185
:10064000E30189819A8131111AC03E81332399F0E7
:10065000222389F00E94AC08182F682F89819A8183
:100660000E94880869817A81812F0E94970F2696BF
:10067000E3E00C945E280E949A08182FF3CF0E94A2
:10068000AC0869817A81F1CFFC01262F408151812C
:1006900062817381848195810E9416030895CF93AE
:1006A000DF93EC0161E00E944403BE010E94070356
:1006B000DF91CF910895CF93DF93EC0160E00E942A
:1006C0004403BE010E941303DF91CF910895089562
:1006D0000E945D070E9467032FEF84E39CE0215096
:1006E00080409040E1F700C0000008950E94680338
:1006F0000E94D52008950E9468030E94F920089561
:100700000F931F93CF93DF938C0161E00E9444030A
:10071000EC01B8010E940F03811106C080E0DF9157
:10072000CF911F910F910895B801CE010E942D1E07
:100730008823A1F3B801CE010E94C31C882371F362
:10074000B801CE010E949F1D882341F3B801CE015C
:100750000E94251C882311F3F8018581882361F00C
:10076000C330FCE7DF07E9F058F4C115ECE7DE071A
:10077000A9F0C130DC47B9F0C8010E940A03CFCF0D
:10078000CB358CE7D807A9F0CC35ECE7DE0771F064
:10079000CA35DC4789F70E94E20CEECF0E9476034F
:1007A000BDCF0E94EA0C0E947B03B8CF0E94D80CF8
:1007B000E3CF0E94E60CE0CF0E9406200E940304D3
:1007C00008950E9407040E940B200895089581E077
:1007D00008950895CF93DF93D82F0E94E703C82F81
:1007E000882319F08D2F0E94E9038C2FDF91CF9180
:1007F00008950895CF93C82F0E94E6038C2F0E947E
:10080000EA03CF91089580E00E94FA0308950E94C0
:10081000761E0E94FA030895CF930E94761EC82F79
:100820008091DE018C1779F0C093DE010E94962042
:100830006093DF017093E0018093E1019093E20106
:100840008C2F0E94FA03CF910895ADE0B0E0EBE267
:10085000F4E00C944328488759876A877B878C8704
:100860009D8791110E94100C1F8286E0FE01389630
:10087000DE01119601900D928A95E1F78D8181112B
:100880000DC029813A814B815C816D817E818F8190
:100890000E94430B2D96E2E00C945F28CE01019656
:1008A0000E944F038111EDCFF5CFFC01248121304F
:1008B00021F4808191810E94DE080895662329F049
:1008C0000E94C9120E949C1308950E942313FACF1C
:1008D000CF93C82F8823B9F08CEF8C0F813AA8F4FE
:1008E0006C2F80910401909105010E94091F8823BB
:1008F00029F08C2F0E94D00B0E94490C8C2F0E9453
:10090000C80B0E94490CCF91089580E28C0F88306B
:1009100048F4C77081E001C0880FCA95EAF70E94C9
:10092000F30BEFCFEBE5EC0FE33040F4F0E0E05AEF
:10093000FE4F808190E00E94AB1EE5CFE8E5EC0F12
:10094000EB3150F4F0E0EE0FFF1FE65DFE4F8081CB
:1009500091810E94D01ED7CF83E38C0F833198F60C
:1009600061E08C2F0E945E04CECF882381F19CEF42
:10097000980F913A28F40E94D00B0E94490C0895D8
:1009800090E2980F983050F4877091E001C0990F71
:100990008A95EAF7892F0E94F90BEFCF9BE5980F14
:1009A000933028F490E080E00E94AB1E089598E513
:1009B000980F9B3128F490E080E00E94D01E0895AB
:1009C00093E3980F933118F460E00E945E04089559
:1009D0001F93CF93DF93182FEB010E946804209799
:1009E00039F4812F0E94B504DF91CF911F910895B2
:1009F0008FE99FE00197F1F700C000002197EFCF4A
:100A000070E060E0893311F460E570E00E94E80472
:100A10000895882321F00E94F30B0E94490C089549
:100A2000882321F00E94F90B0E94490C0895B0E040
:100A3000A0E0EDE1F5E00C943C286C01D62FC72F27
:100A4000FC011581068102950F700E94E90BE82ECA
:100A50008823E9F0E12E1123D1F08C2F807F8034A0
:100A600051F080E28D0F8830F8F0011104C08C2F16
:100A7000807E8032C9F08091050382FF15C082E03C
:100A80000E94AC0C0E94E90B91E0E82EE926BC2EF6
:100A9000B2949FE0B922FBE0FB15B8F1EB2DF0E03A
:100AA000E856F64D0C94FC27E12CF1CF0C2F0F707B
:100AB000C07F11F00295007F112399F0002359F0B7
:100AC00080E28D0F883010F0D11107C0802F0E9476
:100AD000F30B0E94490C8D2F5AC0802F0E94030CEB
:100AE000F8CF8D2F0E94B504002379F080E28D0F9E
:100AF000883010F0D11104C0802F0E94F90B03C080
:100B0000802F0E94090C0E94490CEB2DE850FF0B2E
:100B1000349720F40E94761E0E94FA03EE2089F09A
:100B20000E94E50B80FD0DC0F60115820E94DF0BCF
:100B30000E94E607C6010E9424070E94DF0B0E9464
:100B4000F607CDB7DEB7E9E00C9458282C2F2F70AC
:100B5000F22EC07FC03219F0F29480EFF822DD232C
:100B600041F0D130D1F1112309F444C00023F1F058
:100B7000B2CF8091050382FD15C0112359F0FF20EB
:100B800029F08F2D0E94F30B0E94490C80E00E94F7
:100B90006804BBCF80E00E94B504FF2009F4B5CF04
:100BA0008F2DABCF112369F0011104C08F2D0E944E
:100BB0000905ABCF013009F0A8CF8F2D0E94270C7B
:100BC000A4CF0111A2CF8F2D0E9410058F2D0E945E
:100BD000330C8F2D0E94170C98CF112321F0063073
:100BE00008F093CFE3CF053008F08FCF8F2D0E9410
:100BF00010058BCF0023D1F3D93349F43FEF87EEB3
:100C000093E0315080409040E1F700C000008D2F0C
:100C10000E94B5047ACF8C2F86958695837069F0F3
:100C2000813009F072CF8D2F9C2F9370111102C06B
:100C300080E090E00E94D01E68CF8D2F9C2F937093
:100C4000111102C080E090E00E94AB1E5ECF612FC8
:100C50008D2F0E945E0459CF8C2F8370A1F5111146
:100C600054CF4D2F429546954770440F440F2D2F7A
:100C70002F7030E0042E02C0220F331F0A94E2F7D7
:100C800090E080E0D4FF09C08FE090E002C0880FC0
:100C9000991F4A95E2F780959095C695C695C370C1
:100CA000822B932BC23049F058F4C13019F00E94C6
:100CB000B6072BCF0E94AD0728CF0E94BF0725CFD4
:100CC0000E94AA0722CF8695112311F08C2F8170E4
:100CD000882309F41ACF4D2F429546954770440F4B
:100CE000440F2D2F2F7030E0042E02C0220F331F2F
:100CF0000A94E2F790E080E0D4FF09C08FE090E032
:100D000002C0880F991F4A95E2F780959095C69585
:100D1000C695C370822B932BC23049F058F4C13072
:100D200019F00E942108F1CE0E941808EECE0E9410
:100D30002A08EBCE0E94CE07E8CECF70112329F00F
:100D40008C2F0E94E6078D2F32CF8D2F0E94100529
:100D50008C2F0E94F607D9CED23F41F160F4D03FEC
:100D6000B9F0D13F81F0112309F446C00111B3CE8F
:100D70008C2F8F711FC0D33F01F1D43FA1F7809119
:100D8000050382FD24C08C2F8F71112311F312C033
:100D9000112341F0053008F0B8CE8C2F8F710E94DE
:100DA0000808B3CE063008F0B0CEF7CF8C2F8F7185
:100DB0001111CFCF0E94E607A8CE112329F08C2F66
:100DC0008F710E94DA07A1CE0E94D5079ECE112313
:100DD00049F0CF718C2F0E94E60763E08C2F0E94B0
:100DE0008E0C93CE81E00E94AC0C023008F48DCEC4
:100DF00082E00E94AC0C89CE002359F0D93309F06F
:100E000006CFEFEFF7EE23E0E150F0402040E1F7AE
:100E1000FCCE8C2F8F719DCF0F931F93CF93DF93B9
:100E2000EC01688179818D810E94E9088C010E9422
:100E300033080E94A907B801CE010E941705DF916F
:100E4000CF911F910F910895CF93DF93EC018C8187
:100E5000882399F0CE010E948003811111C00E9465
:100E6000E90B882351F08D81882339F080910503A7
:100E700082FF03C082E00E94AC0CDF91CF91089505
:100E8000CE010E940C07CE010E945B03F6CF90E0DA
:100E900080E00E94AB1E90E080E00E94D01E0E9485
:100EA000100C0E94490C0E94B8130E949C130895D4
:100EB0000E94D80B0E94470708950E94000C0E94D0
:100EC0005807089592959F70963091F058F4925F6C
:100ED0009F70923058F4803F19F030F4883E30F41F
:100EE00081E008959A5FF4CF843FD1F380E00895C4
:100EF000883EB0F3813FD1F7F3CFFC012481222358
:100F000039F0808191810E94DE080E946207089575
:100F100080E00895A6E0B0E0E0E9F7E00C94432813
:100F20002696E2E00C945F28A7E0B0E0EAE9F7E05B
:100F30000C9443282796E2E00C945F2808950E94C1
:100F40009E0708950E949F0790930F0280930E02C0
:100F5000089508950E94A207089520910E023091ED
:100F60000F02822B932B0E94A207089520910E025C
:100F700030910F02822393230E94A20708952091AB
:100F80000E0230910F02822793270E94A207089534
:100F90000E949E0708950E94C80708950E94CB07EB
:100FA00090930D0280930C02089590E080E00E94DF
:100FB000CE07089521E030E0A90102C0440F551F7B
:100FC0008A95E2F7CA010E94CE07089521E030E039
:100FD00002C0220F331F8A95E2F780910C02909194
:100FE0000D02822B932B0E94CE07089521E030E062
:100FF00002C0220F331F8A95E2F720953095809129
:101000000C0290910D02822393230E94CE07089533
:1010100021E030E002C0220F331F8A95E2F7809171
:101020000C0290910D02822793270E94CE0708950B
:1010300020910C0230910D02822B932B0E94CE073F
:10104000089520910C0230910D02822393230E9477
:10105000CE07089520910C0230910D02822793272C
:101060000E94CE0708950895262F277091E001C0B1
:10107000990F2A95EAF723E0769567952A95E1F787
:10108000660F771F660F771FFA01E60FF71F50E014
:1010900040E0682F70E08191DF0111979B01042EE1
:1010A00002C0369527950A94E2F7217021952827EA
:1010B000292328272C934F5F5F4F4430510559F760
:1010C0000895A82FA77023E0969587952A95E1F7B4
:1010D000880F991F880F991FFB01E80FF91F50E037
:1010E00040E080E0219130E00A2E02C0369527953D
:1010F0000A94E2F721703327042E01C0220F0A94CC
:10110000EAF7822B4F5F5F4F4430510559F708953E
:10111000262F953070F48F3060F4682F70E08FE0E8
:10112000989F600D711D112444EE51E0822F0E94A2
:1011300034080895292F953068F48F3058F490E0E2
:1011400064EE71E03FE0239F800D911D11240E9409
:101150006108089580E00895B0E0A0E0E2EBF8E0D7
:101160000C943C287C0100910C0210910D0280919E
:101170000E0290910F02082B192BCFE0D0E0CC2467
:10118000C394D12CBC2EC6010C2E02C0880F991F0F
:101190000A94E2F780239123892B49F4219790F751
:1011A000B12C8B2DCDB7DEB7E9E00C945828B701F0
:1011B0008C2F0E94A30F019789F3F3CFCF93DF9376
:1011C000EC010E94AC08BE010E94A30FDF91CF91F9
:1011D00008951F93CF93DF93EB019091E30199233F
:1011E00039F0CB010E94DE08DF91CF911F91089565
:1011F000882369F0CB010E94AC08182F682FCE011C
:101200000E948808BE01812F0E94A30FEDCFCB0161
:101210000E949A08182FF6CF1F93CF93DF93C091A7
:10122000100217E0809111028C1304C0DF91CF915E
:101230001F910895D0E01C9FF0011D9FF00D112417
:10124000EE5EFD4F20813181428153816481758141
:1012500086810E9494072196C770E4CF20914A02AC
:1012600030914B0240914C0250914D0260914E02E0
:1012700070914F02809150020E9494070895CF937D
:10128000DF9380915002807F09F04DC080914F0222
:10129000882309F448C0E091100250911102C091D6
:1012A0004B02D0914A0260914C0270914D0247E08E
:1012B0005E17C9F18E2F90E0E49FF0011124EE5EDD
:1012C000FD4F2481222391F1489FF001499FF00DA9
:1012D0001124DF01AE5EBD4F11962C9111972C1396
:1012E00025C02C912D1322C015962C9115972111F4
:1012F0001DC012962D913C91261B370B283C3105C1
:10130000A8F4809150028F70806180935002E85E53
:10131000FD4F80818F70806180838AE492E00E941B
:1013200024070E940C09DF91CF910895FC013196AA
:10133000E770BECF482F209110029091110257E024
:10134000291302C080E0089530E0529FF001539FBE
:10135000F00D1124EE5EFD4F8181681306C080817F
:10136000481303C085818111EECF2F5F3F4F277057
:10137000E7CFA4E1B0E0EFEBF9E00C9439288C0161
:1013800086E0F801DE011F9601900D928A95E1F743
:10139000F8018481E5809AE4A92E92E0B92E90911B
:1013A0004E0291111FC08823D1F0EE20A9F0C80190
:1013B0000E947D07F82E882379F087E0F801D50197
:1013C00001900D928A95E1F7C5010E9455040E9493
:1013D0003F090E942E095FC0C8010E942407FF2414
:1013E000F39459C0C080D18082809380F0904F02E6
:1013F00020914C0230914D02A401421B530BFF205F
:1014000009F4F9C0483C510508F0A7C0882309F445
:1014100042C090914B0280915002282F207F09F00A
:101420005CC09D1116C090914A02C91212C0E11011
:101430004EC08F708061809350020E942E098AE412
:1014400092E00E94240780915002F8018683F12CDB
:1014500022C0E1103CC06D2D8C2D0E949A096D2D8B
:101460008C2D0E949A09E82E8111F1CFCF86D88A5F
:101470008F8598890E94DE08292F22952F702430AD
:1014800078F49F702230A8F09923B9F0F801968182
:10149000907F99F4FE2C8F2D6496ECE00C945528E7
:1014A0002A5F2F70223068F0C8010E942407EF2CB9
:1014B000F1CF992311F0882369F3805E883050F3CF
:1014C000F3CF803F38F3815F833070F7E3CF8091B3
:1014D0005002816080935002BACF9D1113C0909149
:1014E0004A02C9120FC0E1100DC08683C8010E94D4
:1014F000240787E0F801AAE4B2E001900D928A95F2
:10150000E1F767CFC8010E947D07882309F464CF03
:10151000EE2009F461CF80915002803288F0209152
:101520004A0230914B02398728879B868A869091A0
:101530004E029C871D868E87CE0108960E94240746
:1015400087E0F801AAE4B2E001900D928A95E1F7F4
:101550000E943F090E942E0942CF90915002292FEC
:10156000207FA1F4682D9A8A898AA6017A899E2D06
:101570000E948A078AE492E00E94240787E0F5012E
:1015800011928A95E9F70E942E0961CF882309F408
:1015900082CF80914B028D1110C080914A02C812F7
:1015A0000CC0E1100AC09683C8010E94240787E09E
:1015B000F50111928A95E9F76ECFC8010E947D0767
:1015C000882309F409CFEE2009F406CF8091500258
:1015D000803208F4B5CF20914A0230914B023A8311
:1015E00029839C828B8290914E029D831E828F83E1
:1015F000CE010196A3CF483C5105B8F5882309F4E4
:10160000EECEFE2CEE2009F4E7CE80914B028D1138
:101610001EC080914A02C8121AC08091500280FDFB
:101620000DC0982F907F51F08683903F09F45ECFD4
:10163000982F907F905F8F70892B57CF87E0F801AC
:10164000AAE4B2E001900D928A95E1F724CFC80197
:101650000E947D07811174CF809150028160809338
:101660005002C8010E94240716CF682D9A8A898AE1
:10167000A6017A899E2D0E948A0787E0F5011192C2
:101680008A95E9F7A6CEAEE0B0E0E9E4FBE00C9481
:101690004228288739874A875B876C877D878E87B2
:1016A000CE0108960E94B9098823B1F06C856623A3
:1016B00041F0288539854A855B857D858E850E9428
:1016C000940717E0809110029091110289133DC098
:1016D0002E96E3E00C945E2887E0FE013896DE014A
:1016E000119601900D928A95E1F78C85882349F334
:1016F0002091110230E0C90101968770992740912D
:1017000010024817190699F097E0929FD001939F15
:10171000B00D1124AE5EBD4FFE01319601900D92C9
:101720009A95E1F7809311020E940C09CACF0E949A
:101730005D07109211021092100287E0EAE4F2E0D5
:10174000DF011D928A95E9F7BCCF819FC00111246A
:101750008E5E9D4F0E94B909882309F4B9CFE091AC
:1017600010021E9FF0011124EE5EFD4F2081318199
:10177000428153816481758186810E9494078091A2
:10178000100290E0019687709927809310029ACFFB
:10179000682F80910401909105010E94891F08958E
:1017A000682F80910401909105010E94971F089570
:1017B00080910401909105010E94A51F08958091D8
:1017C000710286958695869508958091710287703D
:1017D000089590917102977081E009F480E0089576
:1017E00080919502089590919502892B809395029E
:1017F000089580959091950298239093950208956D
:1018000010929502089590919402892B80939402EE
:10181000089580959091940298239093940208954E
:1018200010929402089508950E94130C08959091C7
:101830007202292F282331F0809589238093720228
:101840000E94140C089508950E94230C089590910D
:101850007302292F2823281729F0982B90937302BD
:101860000E94240C089590917302292F282331F0AF
:1018700080958923809373020E94240C089580919F
:101880007302882329F01092730280E00E94240CD6
:101890000895CF93DF93E0910401F09105018091C9
:1018A00095028083E0910401F0910501808190917F
:1018B0009402892B808390917302992381F0E091A7
:1018C0000401F09105018081892B808380910401BE
:1018D000909105010E94F51E81110E943F0CC0915C
:1018E0000401D091050140E250E061E572E0CE01D3
:1018F0000E940929892B59F080E2FE01A1E5B2E09E
:1019000001900D928A95E1F7CE010E94831EDF912E
:10191000CF91089508950E948A0C0895909105032F
:1019200092FF11C098E0899F90011124622B60936F
:1019300071020E94E60780917102869586958695D0
:101940000E948B0C08950E94E60708951092710280
:1019500080E00E948B0C08959091710280958923FC
:1019600080937102282F277069F4891759F090919C
:10197000050392FF07C08695869586950E94F60717
:101980000E94A60C08959091050392FB222720F94E
:10199000281769F080FB92F9909305038091040366
:1019A000909105030E940B0D82E00E94AC0C0895FB
:1019B0008091050382FB882780F991E089270E94A6
:1019C000C30C089581E00E94C30C089580E00E943A
:1019D000C30C08956FEF7FEF90E080E00E946129D3
:1019E000089590E080E00E942D2921E0863E9E4FE0
:1019F00009F020E0822F089582E090E00E941F29E4
:101A0000089583E090E00E941F29089584E090E00B
:101A10000E942D290895BC0184E090E00E94612974
:101A20000895AB01BC018FE090E00E945529089514
:101A3000AB01BC0183E190E00E945529089560E06C
:101A400070E0CB010E94180D089560E070E0CB01BA
:101A50000E94110D0E941F0D0895A8E0B0E0E3E37D
:101A6000FDE00C94432866EE7EEF90E080E00E945B
:101A7000612960E082E090E00E94432960E083E019
:101A800090E00E94432910920F0210920E0260E033
:101A900074E184E090E00E94612960E086E090E0DB
:101AA0000E9443296FEF87E090E00E94432940E0C5
:101AB00050E0BA0188E090E00E94552960E084E29D
:101AC00090E00E94432960E087E190E00E94432972
:101AD00060E08CE090E00E94432960E08DE090E0BF
:101AE0000E94432919821A821B821C821D821E8237
:101AF0001F82188648E050E068E170E0CE01019650
:101B00000E94332940E050E0BA0180E290E00E9458
:101B100055290E94250D2896E2E00C945F280E942A
:101B20002D0D0895682F8EE090E00E9443290895BE
:101B3000A6E0B0E0EEE9FDE00C9441280E948A2086
:101B40008C0180919602909197028017910781F005
:101B500019821A820E948A20682F49815A81792F1E
:101B600080E090E00E942504109397020093960273
:101B70002696E4E00C945D280E9496206093A602CD
:101B80007093A7028093A8029093A9026093A20287
:101B90007093A3028093A4029093A50208950895E0
:101BA00008950E94CF0D089508950E94D40D0895C0
:101BB00089E990E10E943F120E94D00D0E94D10D50
:101BC000089581E008950E94E10D08950E94E10DBD
:101BD0000895089508950E94E90D0E94EA0D089560
:101BE0000E94B8100E94F90308950E9481200E946B
:101BF00093110E94F00D0E94291B0E94D50D08959B
:101C0000A6E0B0E0E6E0FEE00C9437280E94E30D89
:101C100081110CC00E94980D0E946C1B0E94DA1367
:101C20000E940C042696EEE00C9453280E94A91101
:101C300028E9822E22E0922E640110E0F601E19064
:101C4000F1906F01812F0E94DE101F5F153009F4A3
:101C50004BC0E816F90691F38091AA0281FD0E941B
:101C6000E7100E94E60D782E10E066246394812F21
:101C70000E94DE107C01F401A190B1904F018A1501
:101C80009B0561F1A826BF2400E0CC24C394D12C8D
:101C9000C5018C219D21892BC1F07720B1F00983EA
:101CA0001A830E948A209C838B836D8221E0C70166
:101CB0008C219D21892B09F420E049815A816B8177
:101CC0007C818D81922F0E9425040F5FCC0CDD1C3E
:101CD0000F30F1F6F4013297F182E0821F5F153088
:101CE00031F60E94BC0D98CFE816F90609F0B4CF82
:101CF00091CF1F93CF93DF930E94A80FEC01C115E2
:101D000080E5D807F0F5C11580E4D80708F09CC03D
:101D1000C03ED10520F5CD3CD10508F082C0C83ABF
:101D2000D10578F4C53AD10508F073C0C130D105AA
:101D300019F1209709F1C430D105F0F4D0E0C0E0EA
:101D40001BC0C33CD105D0F7C85AD0E0CC0FDD1F73
:101D5000CD59DE4F0990D881C02DD4640DC0C11576
:101D600080E2D80708F0D1C0C11581E0D80708F09B
:101D70005AC0C83ED10510F7CE01DF91CF911F9117
:101D80000895C03682E5D80718F5C03482E5D80733
:101D900008F06BC0C03282E5D80708F05FC0C115FB
:101DA00082E5D80708F497C02C2F2695269580E267
:101DB000289F900111248C2F8370C1E0D0E002C0D5
:101DC000CC0FDD1F8A95E2F7C22BD32BDD68D4CF71
:101DD000C03A82E5D80760F4C03882E5D80708F435
:101DE00059C0CF71D0E0DC2FCC27C46FD06AC4CFEC
:101DF000C03C82E5D80708F462C0C03E82E5D8073F
:101E000008F09CCFDC2FCC27CC27DF71C06FD06AC5
:101E1000B3CFC55AD0E0C756DE4FC881D0E0D064FA
:101E2000ABCFD065A9CF8D2F0E944A10182FCE01BD
:101E300099270E94A80FC12FD0E0DC2FCC27CC27F8
:101E4000DF71C82BD92B98CFCE0199270E94A80FFC
:101E5000CC27DF70C82BD92BD06A8ECFCF71D0E0C2
:101E6000DC2FCC27C16FD06A87CF2C2F26952695E3
:101E7000277080E2289F900111248C2F8370C1E08D
:101E8000D0E002C0CC0FDD1F8A95E2F7C22BD32B26
:101E9000DC6872CF2C2F26952695277080E2289F2C
:101EA000900111248C2F8370C1E0D0E002C0CC0FD0
:101EB000DD1F8A95E2F7C22BD32BDA685DCF8C2F1A
:101EC0008F710E944A10C82FD0E0DC2FCC27CC277E
:101ED000DF71D06251CF8C2F8F710E944A1055E074
:101EE000D695C7955A95E1F7CF70D0E0DC2FCC2777
:101EF000282F30E084FF05C044E0220F331F4A95AD
:101F0000E1F7C22BD32BD06937CF8D2F8F710E9471
:101F10004A10182FCE0199270E94A80FC12FD0E098
:101F2000DC2FCC27CC27DF71C82BD92BD2CF462F63
:101F3000753030F46F3020F4672F0E94020308954B
:101F400090E080E008950E94970F0E94790E089516
:101F500082389105B9F1B0F48133910509F47DC05F
:101F600048F48932910509F46DC08A32910509F46B
:101F70007BC008958533910509F45FC089339105CD
:101F800009F10895833E9105D9F138F4803E910519
:101F900029F1823E910579F10895863E9105D9F1A6
:101FA000873E910509F43EC0843E910541F520919C
:101FB000050321FF24C08091040384FD19C087EE2E
:101FC00090E0089520910403237009F05AC02091F5
:101FD000050323FF14C089E290E0089520910403D3
:101FE00020FD38C03091050330FF09C024FF43C0F5
:101FF00090E080E008952091040322FDF7CF08953A
:102000002091040322FD3AC03091050330FD39C010
:1020100024FFF5CFEDCF2091040323FFF0CF24FD63
:10202000E7CFCDCF2091040323FD2EC030910503CF
:1020300031FFEECF84EE90E008952091040325FF58
:10204000DECFC9CF2091040325FD21C020910503D7
:1020500023FFD5CF89E390E0D2CF2091040326FF60
:10206000CECF8AE290E008952091040326FFC7CFE7
:1020700081E390E0089583EE90E0089582EE90E091
:10208000089580EE90E0089586EE90E0089585E34F
:1020900090E008959091040392FF10C041E0282F32
:1020A0002471243009F040E031E0282F28712830D5
:1020B00009F030E0431711F02CE0822793FF10C0A5
:1020C00041E0282F2471243109F040E031E0282F2D
:1020D0002871283109F030E0431711F02CE08227F5
:1020E0003091050330FF10C051E0282F21712130BD
:1020F00009F050E041E0282F2871283009F040E035
:10210000541711F029E0822731FF10C041E0282F39
:102110002171213109F040E031E0282F2871283168
:1021200009F030E0431711F029E0822794FD877E03
:10213000089580E008950E94EA0C08950E94A91174
:102140002FEF86E791E0215080409040E1F700C0FA
:1021500000000E94A91180E00E94DE1080FF04C0F0
:102160000E949B100E94D52008950E949E10089501
:102170000E94F10C811102C00E948F0D0E94FC0C84
:102180008093AA020E94060D909305038093040396
:102190000E94B5100E94010D90E00E94AA07809154
:1021A0000C0290910D020E94CB07089508950E94A1
:1021B000D610089508950E94DA100895E82FF0E0EF
:1021C000EE0FFF1FE05FFC4F80819181089508951D
:1021D00080EA8A95F1F7089500C008950E94E810FA
:1021E0000895F894E82FE295EF70F0E031A1282FE0
:1021F0002F7081E090E001C0880F2A95EAF7982FB0
:102200009095932391A392A1892B82A3789408950A
:10221000CF93DF93CBEAD1E089918F3F11F00E94F9
:10222000F11081E0C03BD807B9F7CCE9D1E0899142
:102230008F3F11F00E94F11081E0CB3AD807B9F737
:10224000DF91CF910895AF92BF92DF92EF92FF920C
:102250000F931F93CF93DF938C01D62EC62FD0E020
:10226000CE0185559E4F7C01FC0120812F3F09F452
:102270004DC0F894E22FE295EF70F0E031A12F709D
:1022800081E090E001C0880F2A95EAF7932F982B00
:1022900091A392A18095892382A378940E94EC1047
:1022A000ECE9F1E04BEA51E021E030E0B12CA12C67
:1022B00061916F3FA9F1A62FA295AF70B0E0909603
:1022C0008C9190E06F7002C0959587956A95E2F7C2
:1022D00080FD26C0C901A82AB92A220F331F4E1734
:1022E0005F0731F7F70180818F3F11F00E94F110F5
:1022F00061E0A114B10409F460E08D2D0E94EE109C
:10230000CC0FDD1FC00FD11FB982A882DF91CF9102
:102310001F910F91FF90EF90DF90BF90AF900895C5
:1023200090E080E0D8CF0E9408118AE0E0E1F3E07D
:10233000DF01982F1D929A95E9F7E6E0F3E0DF01BF
:102340001D928A95E9F785E00E94E4110E94D7105A
:102350000895AAE0B0E0EFEAF1E10C9440288E0184
:102360000F5F1F4F8AE0F80111928A95E9F7F12C6F
:102370006F2DC8010E942311F394F5E0FF12F8CFEE
:102380004AE050E0B80186E093E00E94092921E08C
:10239000009709F420E0892B41F08AE0F801A6E0DB
:1023A000B3E001900D928A95E1F745E060E173E0BA
:1023B00086E093E00E94E511182F0E94DB10812F28
:1023C0002A96E5E00C945C280895CF92DF92EF9274
:1023D000FF921F93CF93DF936C017B01C42F2223C5
:1023E00049F081E08093AD020E948A209093AC0274
:1023F0008093AB021091AD0211110AC010E0812F41
:10240000DF91CF911F91FF90EF90DF90CF900895D3
:102410008091AB029091AC020E94A220059770F3CC
:10242000D0E0CC0FDD1FAE01B601C7010E94092923
:10243000892B41F0AE01B601C7010E941629109206
:10244000AD02DDCF10E0FBCF0E946E220E94F50DA1
:102450000E947B2208950E9480220E94000E0E940A
:102460009A2208950E9423200E9454220E94D80D8F
:102470000E9424120E942B120E94EB0DFBCF90931E
:10248000DD018093DC010895282F35EB2303C00183
:10249000112497FF04C080589109892F089580580E
:1024A0009F4FFBCF8091B40280FF0DC060910B0164
:1024B00070E0660F771F6038710570F56115710562
:1024C00069F1862F089581FF07C060910B0184E0B8
:1024D000689FB0011124EFCF60910B0182FD0AC00B
:1024E0008091B3028823A9F020910A0160910B0129
:1024F000821710F088E0ECCF869FC001112433E0F2
:10250000880F991F3A95E1F7622F70E00E94C62765
:10251000D2CF68E070E0D5CF8FE7089581E00895CD
:102520008091B40280FF0CC06091070170E0759546
:102530006795759567956115710549F1862F089521
:1025400081FF06C06091070170E075956795F3CF34
:102550006091070182FD0BC09091B2029923A1F016
:102560006091060180910701961738F0682F70E09E
:102570006038710500F38FE70895899FC001112429
:1025800070E00E94C627F4CF61E070E0D7CF81E011
:1025900008958D3C31F40E94521281958093B802C7
:1025A00008958E3C19F40E945212F8CF8F3C31F4FA
:1025B0000E94521281958093B7020895803D19F4CC
:1025C0000E945212F8CF893D29F40E949012809304
:1025D000B90208958A3D21F40E9490128195F7CFA7
:1025E0008B3D31F40E94901281958093BA02089538
:1025F0008C3D19F40E949012F8CF9FE2980F98300A
:1026000070F4815D990B21E030E001C0220F8A95C2
:10261000EAF78091B602822B8093B60208958D3D31
:1026200031F48091B40281608093B40208958E3DAC
:1026300021F48091B4028260F7CF8F3DB9F7809189
:10264000B4028460F1CF4091B7028D3C59F480917F
:10265000B80287FF0DC01092B80241110BC0109252
:10266000B30208C08E3C81F48091B80218169CF326
:10267000442381F08091B9029091BA02892B09F02C
:102680005AC01092B20208958F3C49F447FFF0CF30
:102690001092B7028091B8028111ECCFE0CF803D5B
:1026A00019F41416ACF3E4CF9091B902893D29F4E2
:1026B0001916F4F61092B902DBCF8A3D19F497FF90
:1026C000D7CFF8CF9091BA028B3D29F497FFD0CFA6
:1026D0001092BA02CDCF8C3D19F41916CCF3C8CFA5
:1026E0009FE2980F983090F4815D990B21E030E0E3
:1026F000B90102C0660F771F8A95E2F7CB0180957A
:102700009091B60289238093B602B2CF8D3D31F409
:102710008091B4028E7F8093B402AACF8E3D21F4C3
:102720008091B4028D7FF7CF8F3D09F0A1CF8091CA
:10273000B4028B7FF0CF08950E948A209C01909173
:10274000B7028091B802982B21F03093B102209308
:10275000B0029091B9028091BA02982B21F0309387
:10276000AF022093AE0285EB92E00E949D1E089579
:1027700086E0E5EBF2E0DF011D928A95E9F7109221
:10278000B3021092B2021092B4020895FC01828149
:1027900081110EC0838181110BC08481811108C019
:1027A00091E08581811101C090E0892F81700895A9
:1027B00081E0FCCFA6E0B0E0E0EEF3E10C9442282B
:1027C00086E0E5EBF2E0DE01119601900D928A952C
:1027D000E1F71092B7021092B8021092B90210926B
:1027E000BA028B819C81892B89F08091B0029091F3
:1027F000B1020E94A220AC019091B3029923C9F1C9
:1028000080910C018417150608F440C08D819E81CB
:10281000892B91F08091AE029091AF020E94A2208C
:10282000AC019091B202992309F46AC08091080129
:102830008417150608F472C0BE016F5F7F4F85EBE9
:1028400092E00E94B71F811105C085EB92E00E94C3
:10285000C61381110E949C1386E0FE013196A5EB00
:10286000B2E001900D928A95E1F72696E3E00C9490
:102870005E2820910D018AE0289F900111242417E1
:10288000350720F69F5F9093B30202C09F3FD1F7B8
:102890001B81112359F00E9452129FEF11160CF464
:1028A00091E0899F802D11248093B7021C81112310
:1028B00059F00E9452129FEF11160CF491E0899F7B
:1028C000802D11248093B8028091B702882309F4E7
:1028D0009DCF1091B802112309F498CF0E944412A1
:1028E000882351F08093B702812F0E9444128823DD
:1028F00029F08093B8028ACF81E0F4CF81E0F9CF4C
:10290000209109018AE0289F90011124241735079E
:1029100008F092CF9F5F9093B20202C09F3FD1F721
:102920001D81112359F00E9490129FEF11160CF493
:1029300091E0899F802D11248093B9021E8111237B
:1029400059F00E9490129FEF11160CF491E0899FAC
:10295000802D11248093BA028091B902882309F452
:102960006BCF1091BA02112309F466CF0E94441272
:10297000882351F08093B902812F0E94441288234A
:1029800029F08093BA0258CF81E0F4CF81E0F9CFEB
:10299000EF92FF920F931F93CF93DF93EB01E82FFA
:1029A000D1110EC0442321F0F0E0EE50FD4FE49130
:1029B0006E2F7E2F8E2FCDB7DEB7E6E00C945B280E
:1029C0000D2F10E0282F30E0442329F02E503D4FEA
:1029D000F901249130E0F6E0CF9FC0011124EFEF20
:1029E000F0E0BF010E94B227AB018C2F90E0880F6E
:1029F000991FA5E5A49FB001A59F700D1124861B0A
:102A0000970B982F990F980FBF01601B710B629F56
:102A1000D001639FB00D729FB00D11248B2F9D9F2D
:102A2000B0011124672F7727EF01C61BD70BBE011A
:102A3000629FE001639FD00D729FD00D11247F0132
:102A4000E91AF108E09EB001E19E700DF09E700D54
:102A50001124672F7727E61BF70BE29F8001E39F86
:102A6000100DF29F100D1124E12F722F42305105ED
:102A700099F048F44115510569F04130510581F054
:102A8000EB2F8D2F07C04430510569F080F04630A0
:102A90005105B1F76E2F8FCFE22F7B2F812FFACF09
:102AA000E22F7D2FF7CFEB2F822F712FF3CF7B2FCC
:102AB000822FED2FEFCF41E00E94C81408950895B2
:102AC0000E945B150895CF93DF93762FE901682F5D
:102AD000842F0E946015798368838A83DF91CF9168
:102AE0000895493708F048E70E94631508958091DA
:102AF0001A03982F9E7F61F48170826080931A037D
:102B000080911D03893718F088E780931D0308958D
:102B10008635B0F381708465F1CFB0E0A0E0E3E9E1
:102B2000F5E10C943D2888E090E00E9427296B0194
:102B30007C0184E290E00E941F29282F30E040E0D1
:102B400050E060E070E080E090E000E20E946A28DF
:102B5000B22FA32FF42FE52FD62FC72F9701860171
:102B6000BC29A12BFE295E2F532B2B2F3A2F4F2F41
:102B70006D2F7C2FCDB7DEB7E8E00C945928B0E07C
:102B8000A0E0E5ECF5E10C94392849015A016B010C
:102B90007C010E9477158401A4016A2D7B2D88E0B9
:102BA00090E00E94552994014A2D5B2DB601C70182
:102BB00000E20E948528622F84E290E00E9443296F
:102BC000CDB7DEB7ECE00C945528EAE1F3E083E002
:102BD000808311828FEF828388E7838314827581DB
:102BE00023E030E04FEF58E760E0868197810E9454
:102BF000BF15089580911A0380FF02C0869508953D
:102C000080E0089590911E03933018F49F5F909395
:102C10001E03882391F020911A0330911B034091E9
:102C20001C0350911D0360911E0370911F0380913E
:102C30002003909121030E94BF15089581E00E9416
:102C40000216089590911E03992319F091509093C4
:102C50001E03882391F020911A0330911B034091A9
:102C60001C0350911D0360911E0370911F038091FE
:102C70002003909121030E94BF15089581E00E94D6
:102C80002216089570E00E94971C08956091120129
:102C900080911A0380FF0BC08091110123E0829F75
:102CA000C00111248E5D9C4F0E94421608958091B0
:102CB00013019091140123E0829FF0011124EE5D35
:102CC000FC4F891748F71182108212828F5F33966A
:102CD000F8CF90911A0390FF0EC0909113012091AC
:102CE000140133E0939FF0011124EE5DFC4F921725
:102CF00018F00E94461608958183608342839F5F87
:102D00003396F5CFA3E0B0E0E8E8F6E10C94432871
:102D100090911A0390FF0AC09E012F5F3F4F0E94BF
:102D200071154B8169818A810E9469162396E2E0C0
:102D30000C945F28CF93DF93EC01EC81F0E0E3513A
:102D4000FE4F4491EAE1F3E0628181810E948216A4
:102D50008C818F5F8C83DF91CF910895CF93DF9328
:102D6000EC01EAE1F3E0438162818C810E948216EA
:102D70008C818F5F8C83DF91CF910895A3E0B0E0C9
:102D8000E4ECF6E10C9441288C018091BB028111A6
:102D90000AC09E012F5F3F4F48E76FEF0E947115F9
:102DA0008A818093BB02F8016481613069F080916F
:102DB000BB0240E0662361F040E0623011F44091D4
:102DC000BB0280E060E004C06091BB0240E080E0B4
:102DD0000E946916F801848190E0019663E070E03A
:102DE0000E94C62784832396E4E00C945D28A3E028
:102DF000B0E0EDEFF6E10C943C28082FD62EF42E2F
:102E0000C22E90911A0390FF2EC0E92FE695AE2FA7
:102E1000B0E0A055BE4F8C918093D4029E7F92303B
:102E200031F59E012F5F3F4F802F0E9471154B811E
:102E300069818A810E94691600931B03D0921C034A
:102E4000F0921D03CC2079F020911A0360911E03AB
:102E500070911F03302F4D2D5F2D80912003909195
:102E600021030E94BF152396E9E00C945828823074
:102E700019F4F0901D03E0CF863019F400911B0384
:102E8000DBCF8930D9F38931B9F6E9516E2F617002
:102E9000B62EE695F0E0E351FD4F1491E12C6091E0
:102EA0001501E61618F00E944616C6CFE19EC00135
:102EB000112470E00E94B227802FB11014C0860F39
:102EC00020911301622F6E0D7727771F9B01220F30
:102ED000331F260F371F2E5D3C4F4F2D6D2D0E9447
:102EE0007115E394DCCF861BEBCFEAE1F3E091812F
:102EF000282F438162818AE0890F0E94F716089586
:102F000081E00E9475170895EAE1F3E09181282F8E
:102F10004381628186EF890F0E94F716089581E050
:102F20000E9484170895EAE1F3E0628121E1620FD3
:102F300008F46FEF282F438181810E94F7160895CE
:102F400081E00E9493170895EAE1F3E0628121E1B4
:102F5000621B08F460E0282F438181810E94F716EC
:102F6000089581E00E94A4170895EAE1F3E0438107
:102F700021E1420F08F44FEF282F628181810E94E6
:102F8000F716089581E00E94B5170895EAE1F3E08D
:102F9000438121E1421B08F440E0282F62818181B6
:102FA0000E94F716089581E00E94C617089520E058
:102FB0000E94F7160895EF92FF921F93CF93DF932D
:102FC000EC0110E0EE24EA94F12C60911501161743
:102FD00070F00E9446169A818C8190FF27C08F5F07
:102FE0008C83DF91CF911F91FF90EF9008952091F6
:102FF0001301422F410F5527551FCA019A01220F75
:10300000331F280F391F2E5D3C4F70E0C7010E940F
:10301000C627962F8C8140911D0360911C03199F38
:10302000800D11240E9471151F5FCFCF8150D8CF22
:10303000B0E0A0E0EEE1F8E10C943B28FC018281D5
:103040000FEF80FF01E010E043E0A42E8091150116
:10305000181798F00E9446168091BD02013009F0C1
:103060004FC0811102C08091150181508093BD0233
:10307000CDB7DEB7EAE00C945728C0911301C12EFA
:10308000D12CCC0DDD2DD11DCE01880F991FC80F7D
:10309000D91FCE5DDC4F198218821A8234E0E32EEC
:1030A000F12CB12C8091BD028B0D84301CF16A2D66
:1030B0000E94A427892F082E000C990BC816D90648
:1030C00091F480911D038E9DA0018F9D500D1124C0
:1030D00055954795559547959E0160911C038091A4
:1030E0001B030E947115B00EF1E0EF1AF108D1F642
:1030F0001F5FACCF87FFDFCF90911501890FDBCF2A
:1031000090E001966091150170E00E94C627AECF55
:103110000F931F93CF93DF9380911301909114012C
:1031200023E0829FF0011124EE5DFC4F891740F1EE
:10313000C0E0D3E060911501C61740F10E94461629
:1031400020910F018091BC02820F8093BC0290916C
:103150001001920F90931001191654F4082E000CD0
:10316000990B409115014150550B841795071CF0A0
:10317000219520930F01DF91CF911F910F91089519
:103180001182108212828F5F3396D0CF0C2F10E005
:1031900070E0C8010E94C62720911301820F482FBA
:1031A00050E02091BC02022E000C330B02171307D3
:1031B000BCF020911001022E000C330B20173107B8
:1031C0007CF08D9F900111242E5D3C4F40911D039A
:1031D00060911C0380911B030E947115CF5FAACFE1
:1031E000FA01EE0FFF1FE40FF51FEE5DFC4F118299
:1031F00010821282F3CFB0E0A0E0E1E0F9E10C949C
:103200003928EC014C81042F10E09801D8010E946C
:103210000A289B01AC010E9420284B015C01E0E2DE
:10322000F0E0E01BF10BA5E5B0E0AC019B010E94D2
:1032300020286B017C019F01DF010E9402289B0175
:10324000AC010E942B289B01AC01280D391D4A1DA1
:103250005B1DC701B6010E94DA27F22E822F90E093
:1032600039E23F1520F143E0249F90011124359568
:103270002795122F109500E085E5E82EEF18809134
:103280001501081718F10E9446169C8181E09923C8
:1032900019F0903219F48FEF80930E0180910E0196
:1032A000890F8C83CDB7DEB7ECE00C94552825E56B
:1032B00030E0B901681B790B9B01220F331F260FE9
:1032C000371F37FFD4CF2F5F3F4FD1CF8E2D01FD5A
:1032D0008F2D20911301622F600F7727771F9B019D
:1032E000220F331F260F371F2E5D3C4F412F609159
:1032F0001C030E9471150F5FC2CF0F931F93CF93D2
:10330000DF93EC0110E000E0909115019017110699
:1033100009F06CF40E9446168C8190E00196817051
:1033200099278C83DF91CF911F910F910895209160
:103330001301A801420F511D9A01220F331F240FC0
:10334000351F2E5D3C4F4C8160911C0380911B0307
:1033500096959017110651F04CF0442349F0409196
:103360001D030E9471150F5F1F4FCECF4423B9F389
:1033700040E0F7CFB0E0A0E0E0ECF9E10C943528B4
:10338000FC016280448081E08483EDEEF1E0749082
:10339000ECE6F2E0E491C0911D03C695C158D0E07F
:1033A000CC0FDD1FCD2FDD27812C75E0972EAA24B1
:1033B000AA94B12C55245A94E719EE2EF12C809141
:1033C0001501881638F00E944616CDB7DEB7E0E149
:1033D0000C945128C82CD12C82E0861568F09C9C56
:1033E000F0019D9CF00D1124E254FD4F80911B03D0
:1033F000808380911C038183411023C09C9CF00139
:103400009D9CF00D1124E254FD4F138212822091F5
:103410001301C601820F911D9C01220F331F280F3B
:10342000391F2E5D3C4F9C9CF0019D9CF00D11249A
:10343000E254FD4F4281618180810E947115839425
:10344000BECF9C9C80019D9C100D112402541D4FE9
:10345000F80183818823F1F081508383859DC00129
:103460001124648170E00E94B227FB01FF27E35121
:10347000FE4F8491E82FE719E59DC0011124B701A3
:103480000E94B22780911D03689FB0011124F801AA
:103490007283BDCF0E94EC28B5010E94C6278C170D
:1034A0009D070CF0B4CFF2E0F61598F40E94EC28DA
:1034B000B5010E94C627F80180830E94EC28209164
:1034C0001C032695622F70E00E94C627280FF80182
:1034D00021839C9CF0019D9CF00D1124E254FD4F32
:1034E000128280911D03893C58F088EC9C9CF0016D
:1034F0009D9CF00D1124E254FD4F8483838387CF7C
:103500008431A0F784E1F2CFEAE1F3E020812E7F5D
:1035100020833181428153816481758186819781C5
:103520000E94BF151092D5020E9446160895609120
:103530001A03669570E04BE050E086E191E00E944E
:10354000FC28892B19F481E08093D5020E948A20FF
:103550009093CE028093CD02089590911A0390FF2C
:1035600033C09170811131C0926090931A03662329
:1035700091F020911A0330911B0340911C0350914C
:103580001D0360911E0370911F0380912003909191
:1035900021030E94BF1560911A03669570E04BE00D
:1035A00050E086E191E00E94FC28892BA9F010925E
:1035B000D50281E08093D00240911D0360911C03ED
:1035C00080911B030E94D71708958B3210F09465E9
:1035D000CCCF880F982BC9CF0E94971AEACF682FBB
:1035E00090911A03969581E0890F8B3208F081E063
:1035F0000E94AD1A089581E00E94EF1A0895682F85
:1036000090911A0396958FEF890F09F48AE20E9430
:10361000AD1A089581E00E94FF1A089561E00E94AA
:10362000AD1A0895EAE1F3E0808181608083869598
:103630000E940E1B089580911A0380FF03C00E9410
:10364000841A08950E94121B089560E00E94AD1A2A
:1036500008958091D30281113EC00E94F10C811126
:1036600004C00E948F0D0E94E5150E948D152093C5
:103670001A0330931B0340931C0350931D03609364
:103680001E0370931F0380932003909321032E7FCA
:10369000A1F40E94E5150E948D1520931A03309322
:1036A0001B0340931C0350931D0360931E037093F0
:1036B0001F0380932003909321030E94771510929B
:1036C000D50280911A0380FF03C086950E94251BB6
:1036D00081E08093D30208950F931F93CF93DF93DC
:1036E0008091D5028823B9F18091D402E0911A0328
:1036F000E695E81BE093CF02823091F5F0E0E751C8
:10370000FE4FE491CE2FD0E00AE916E18091D0027D
:10371000882361F01092D0020E948A209093CE02FA
:103720008093CD021092D2021092D1020E948A2080
:10373000E091CD02F091CE028E1B9F0B8F3F9F47F1
:1037400050F4EC0FFD1FF093CE02E093CD028DEC10
:1037500092E0F8010995DF91CF911F910F910895A3
:10376000863049F4F0E0EA51FE4FE491CE2FD0E0EC
:103770000EEA16E1CBCF893051F4E695F0E0ED5139
:10378000FE4FE491CE2FD0E00BED17E1BFCF8F308D
:1037900051F4E695F0E0E052FE4FE491CE2FD0E0F8
:1037A00008E118E1B3CF853149F4F0E0E352FE4F70
:1037B000E491CE2FD0E008E818E1A8CFC8E2D0E02D
:1037C0000BEF18E1883109F4A1CF833239F4EBED26
:1037D000F1E0C591D4910EEB16E198CFC4EFD1E0A2
:1037E0000DE719E1843209F491CFC0EDD7E00FE580
:1037F00015E1853209F08ACF8E2F63E00E94982769
:10380000E92FF0E0E852FE4FE491CE2FD0E00AEB32
:1038100019E17CCFFA01811101C0FB0109950895DE
:10382000CF93DF93C82FD62F0E94FA158C1748F03C
:103830000E94FA158D1728F40E94FB1ADF91CF9190
:1038400008958C2F0E940E1BF9CF1F93CF93DF9307
:10385000EC01FB011581111110C00E94F00B827266
:10386000FE01E052F847E531F10508F05EC0EC5585
:10387000F64D0C94FC270E941B1B812FDF91CF91EA
:103880001F9108954AE05BE16BEF7AE10E940A1C08
:10389000F4CF4BEF5AE16AE07BE1F8CF4FE857E114
:1038A00060E877E1F3CF40E857E16FE877E1EECFEA
:1038B00041EB57E160EA77E1E9CF40EA57E161EB9C
:1038C00077E1E4CF43ED57E162EC77E1DFCF42EC03
:1038D00057E163ED77E1DACF4EE356E16EE176E151
:1038E000D5CF4EE156E16EE376E1D0CF81E00E9484
:1038F0000E1BC3CF65E082E00E94101CBECF68E0C3
:1039000086E0FACF6EE089E0F7CF64E18FE0F4CF94
:1039100067E185E1F1CF88E1EACF62E289E1ECCFAE
:1039200083E2E5CF6AE285E2E7CF11E0A6CF279AEE
:1039300045B14F7755B15068EFB7F8949B01220F0E
:10394000331F260F371F280F391F2817390741F457
:10395000EFBF8FE594E00197F1F700C000000895F4
:10396000DC016D91CD0178E055B9000000C067FF22
:1039700045B9660F000000C000C000C045B900C0D6
:103980007A9591F7E2CFCF93DF93EC01FB0185812C
:10399000882309F4D2C09E0130572332310508F044
:1039A000B2C00E94060D9093050380930403FE01AC
:1039B000E150F047E232F10520F4E754F64D0C9463
:1039C000FC278091040381608093040393C080915D
:1039D00005038860809305038DC080910403826095
:1039E000F3CF809104038460EFCF8091040388605B
:1039F000EBCF809105038160EDCF8091050382605C
:103A0000E9CF809104038061DFCF8091040380625D
:103A1000DBCF809104038064D7CF0E945D07809143
:103A200004038068D1CF809104038C60CDCF809156
:103A300005038360CFCF809104038E7FC5CF809133
:103A40000503877FC7CF809104038D7FBDCF809111
:103A500004038B7FB9CF80910403877FB5CF80911A
:103A600005038E7FB7CF809105038D7FB3CF809103
:103A700004038F7EA9CF809104038F7DA5CF809111
:103A800004038F7BA1CF0E945D07809104038F7791
:103A90009BCF80910403837F97CF809105038C7F18
:103AA00099CF8091040382FB992790F921E0922716
:103AB00090FB82F990FB83F987CF80910503982FC3
:103AC000909591708E7F892B90FB81F983CF909197
:103AD0000403892F8F7B96FF806476CF0E945D0759
:103AE00090910403892F97FB87F980586DCF81E06F
:103AF0000E94920D80910403909105030E940B0D8A
:103B00000E945D0780E0DF91CF91089580E0F0CFC3
:103B100090910403892F8F7E94FF806155CF9091FF
:103B20000403892F8E7F90FF81604ECF9091050313
:103B3000892F877F93FF88604DCF81E0E4CFCF93BB
:103B4000DF93EB0186319C4711F50E94F00B9D81BC
:103B5000992399F08A7A91E009F490E09093D60243
:103B6000811109C089E20E94C80B0E94490C80E0C3
:103B7000DF91CF91089585E3F6CF8091D602811130
:103B800004C089E20E94D00BF0CF85E3FBCF81E037
:103B9000EFCF0F931F93CF93DF93C42FD22FFC014E
:103BA00085818823C9F04093D9020E948A2090938E
:103BB000D8028093D70280E28C0F883040F4C7701F
:103BC00081E001C0880FCA95EAF70E940905DF91DC
:103BD000CF911F910F9108951091D902141332C003
:103BE0008091D7029091D8020E94A220883C910532
:103BF00048F5C0E2CD0F1D17B9F080E2810F883083
:103C000040F4177081E001C0880F1A95EAF70E940E
:103C10001005C83048F481E09D2F977001C0880FCF
:103C20009A95EAF70E940905802F0E940005C83086
:103C300070F6D77081E001C0880FDA95EAF70E942C
:103C40001005C5CF80E28C0F883008F6C77081E080
:103C500001C0880FCA95EAF7F2CF0F93DB018851B4
:103C60009C4787309105A0F5FC01E552F64D0C9478
:103C7000FC2706E221EE41EE6AE17CE7CD010E94DD
:103C8000C91D80E00F91089507E225EE45EE6BE136
:103C90007CE7F4CF06E221EE40EE68E17CE7EECF70
:103CA00007E225EE44EE69E17CE7E8CF06E221EE8B
:103CB00042EE6CE17CE7E2CF07E225EE46EE6DE1F5
:103CC0007CE7DCCF08E221E045EE6EE17CE7D6CF71
:103CD00015968C91882319F01092D902D3CF81E0E8
:103CE000D1CF9093DF028093DE020895E091DE024F
:103CF000F091DF02309729F00190F081E02D0995D5
:103D0000089580E00895E091DE02F091DF0230979F
:103D100099F020912901222359F02091040327FFD3
:103D200007C0DC012C9111962C93119726E02C935F
:103D30000280F381E02D09950895E091DE02F09173
:103D4000DF02309739F022E0DC012C930480F5810A
:103D5000E02D09950895A3E0B0E0E1EBFEE10C94BD
:103D600043282091DC023091DD0228173907A1F0A9
:103D70009093DD028093DC02E091DE02F091DF029D
:103D8000309751F023E029839B838A830680F78153
:103D9000E02DCE01019609952396E2E00C945F2870
:103DA000A3E0B0E0E6EDFEE10C9443282091DA02B6
:103DB0003091DB0228173907A1F09093DB02809342
:103DC000DA02E091DE02F091DF02309751F024E058
:103DD00029839B838A830680F781E02DCE0101969B
:103DE00009952396E2E00C945F28FC0132968091BD
:103DF0002901882321F0809104039EE187FF96E04A
:103E000080E0915008F4089521912223D1F38F5F2F
:103E1000F8CF662301F1209129012223F1F02091AE
:103E2000040327FF1AC0462F4695469546954E3106
:103E300090F4677021E030E002C0220F331F6A95D2
:103E4000E2F7840F911DFC01828190E02823392341
:103E500081E0232B69F480E00895FC0132960896F6
:103E60002191261721F0E817F907D1F7F4CF81E067
:103E700008959C01FC0132969FEF80E04191461726
:103E800051F09F3F19F4411101C0982F8F5F863088
:103E9000A9F79F3F09F40895290F311D97FD3A9521
:103EA000F90162830895FC01329608962191261348
:103EB00003C0DF0111971C92E817F907B9F70895BD
:103EC000E62FE695E695E695EE3168F4E80FF92FD2
:103ED000F11D677021E030E001C0220F6A95EAF71A
:103EE0008281822B82830895E62FE695E695E695FA
:103EF000EE3170F4E80FF92FF11D677021E030E02A
:103F000001C0220F6A95EAF7209582812823228337
:103F1000089520912901222339F02091040327FFDD
:103F200003C00E94601F08950E94391F08952091C8
:103F30002901222339F02091040327FF03C00E94A6
:103F4000741F08950E94531F0895FC0132968091BA
:103F50002901882351F08091040387FF06C08EE178
:103F6000DF011D928A95E9F7089586E0F9CFDC011B
:103F7000FB0111969C9111978181981322C0129692
:103F80008C911297882319F0928189131AC0139685
:103F90008C911397882319F09381891312C0159679
:103FA0008C911597882319F0958189130AC014966E
:103FB0009C91992321F081E02481291303C080E0A2
:103FC00001C081E08170089508950E94E41F089562
:103FD000811106C081E08093E0020E94E51F0895F0
:103FE00082E0F9CF83E08093E0020E94E51F08950C
:103FF0000E94E81F089581E08093E0020E94E51F7F
:1040000008950E94FB1F0895089508950E940520B9
:104010000895089508950E9404200895CF930E9462
:1040200009200E94A9110E940A20C0E08C2F0E9442
:10403000DE10892B31F4CF5FC530C1F780E0CF911E
:10404000089581E0FCCF85B7806885BF85B780681B
:1040500085BF08951F921FB61F9211248F939F93BF
:10406000AF93BF938091E102811113C080912B0324
:1040700090912C03A0912D03B0912E034196A11D88
:10408000B11D80932B0390932C03A0932D03B09329
:104090002E03BF91AF919F918F911F901FBE1F90D4
:1040A000189580913303843031F10E94DC03109223
:1040B000E10288E190E020E40FB6F894A89580939F
:1040C00060000FBE2093600083B7817F846083BF50
:1040D00083B7816083BF7894889583B78E7F83BFD1
:1040E0000FB6F894A8958091600088618093600075
:1040F000109260000FBE08950E945D070E94E103C8
:10410000089582E084BD93E095BD9AEF97BD8093BA
:104110006E0008952FB7F89480912B0390912C0393
:10412000A0912D03B0912E032FBF08952FB7F894BF
:1041300060912B0370912C0380912D0390912E039D
:104140002FBF08959C014FB7F89480912B03909155
:104150002C03A0912D03B0912E034FBF821B930B14
:10416000089578941F921FB61F9211248F939F93E6
:10417000AF93BF9380912B0390912C03A0912D03BB
:10418000B0912E030196A11DB11D80932B03909336
:104190002C03A0932D03B0932E03BF91AF919F9159
:1041A0008F911F901FBE1F90189581E08093E000B3
:1041B00080E28093D8001092C9008FE19EE40197BD
:1041C000F1F700C0000087E090EBDC0180933C0336
:1041D00090933D03A0933E03B0933F0388E19CE09E
:1041E0000FB6F894A895809360000FBE909360007E
:1041F000FFCF88E19CE00FB6F894A895809360000B
:104200000FBE90936000FFCF8091020308959B0141
:10421000BA01909133039430E9F48F708093E900F0
:104220009FEF8091E800915085FD06C085ED8A954D
:10423000F1F700009111F5CF8091E80085FF0AC0E9
:1042400050E040E0C9010E9411238091E8008E7780
:104250008093E800089543E050E0BC0182E00E94B2
:104260000721089546E050E0BC0182E00E9407214A
:104270000895CF93DF93EC0180912901811111C042
:1042800048E050E0BE0181E00E94072180E2FE018B
:10429000A2EEB2E001900D928A95E1F7DF91CF9105
:1042A00008958091040387FF05C040E282E050E05A
:1042B000BE01EACF48E081E0FACF8091320381115C
:1042C00009C00E94A1240E94FE248091E200846023
:1042D0008093E20008951092320308950E94FB1F1C
:1042E000089560912F0381E0611101C080E00E9478
:1042F000F21F08959091330381E0943009F080E03B
:1043000060912F030E94F81F089542E061EC81E064
:104310000E941D2442E261EC82E00E941D249091E3
:10432000330381E0943009F080E060912F030E9414
:10433000E81F089580913503833009F461C030F49B
:104340008130D1F1823009F49EC008958A3009F499
:104350008AC08B3009F46FC0893009F050C0809159
:104360003403813209F04BC08091380390913903B6
:10437000029708F044C08091E800877F8093E800AE
:104380008091E80082FF37C09091F3008091F200A5
:10439000029731F48091F100813011F0863021F4E0
:1043A0008091F100809302038091E8008B778093E5
:1043B000E8000E94512423C080913403813AF9F42B
:1043C0008091E800877F8093E80080913803909186
:1043D0003903892B61F460E282EE92E070E00E9482
:1043E00060238091E8008B778093E800089560E077
:1043F00090E080E0F3CF809133038111C1CF089525
:1044000080913403813AD9F7809138039091390330
:10441000892BA9F78091E800877F8093E80080913D
:10442000E80080FFFCCF809129018093F10080910A
:10443000E8008E77BCCF80913403813201F7809100
:10444000380390913903892BD1F68091E800877F5A
:104450008093E8000E9451248091360380932901C3
:104460000E945D07089580913403813241F6809166
:10447000E800877F8093E8000E94512480913703F1
:1044800080930303089580913403813A09F0B7CFF4
:104490008091E800877F8093E8008091E80080FFAA
:1044A000FCCF80910303C1CF84B7877F84BF0FB651
:1044B000F894A895809160008861809360001092C4
:1044C00060000FBE80E890E00FB6F8948093610022
:1044D000909361000FBE0E94012008950E94A124C4
:1044E0000E94FE24E2EEF0E0808184608083789474
:1044F0000E947D27089581E291E00E94711E089537
:1045000080913303853031F480913303853019F085
:104510000E947C2008950E945120809131038823BD
:1045200099F30E940E20882379F30E94FB220E94B7
:104530005D07EACF08959A0140913A0350913B03F9
:104540000E94A3220895492F55274330510519F1A0
:1045500068F44130510509F444C04230510509F472
:1045600045C090E080E050E040E025C04132510578
:1045700049F142325105A9F784E490E043E155E066
:1045800061157105C1F086EB90E04DE554E06130B6
:10459000710589F0E6CF99278130910581F0009768
:1045A00029F00297F1F6E2EFF3E002C0ECE0F4E06C
:1045B000849190E0AF01F901518340830895E2E0D6
:1045C000F4E0F6CF89E090E042E254E06115710535
:1045D00091F389E090E04BE354E06130710559F3C9
:1045E000C0CF82E190E04BE454E0E5CF8BE390E074
:1045F00040E154E0E0CF80E189BD82E189BD09B4AA
:1046000000FEFDCF8091D8008F7D8093D8008091EF
:10461000E00082608093E0008091E00081FDFCCFAB
:104620000895AF92BF92CF92DF92FF920F931F93A4
:10463000CF93DF936C01EB018A010E947024F82E66
:10464000811123C00115110539F0F8018081918194
:10465000C81BD90BC80ED91EB12CA12C2097A9F0CC
:104660008091E80085FD22C08091E8008E778093DC
:10467000E80001151105A1F0F80180819181A80ED3
:10468000B91EB182A08285E0F82E8F2DDF91CF91E7
:104690001F910F91FF90DF90CF90BF90AF90089542
:1046A0000E9470248823D1F2F82EEFCFF601819179
:1046B0006F018093F1002197FFEFAF1ABF0ACECFB1
:1046C000FC0180913A0390913B0386179707A0F075
:1046D0006115710529F49091E8009E779093E800A8
:1046E00090E06115710551F4911108C08091E800C6
:1046F00082FF34C080E00895BC01F2CF8091330383
:104700008823C1F18530C1F18091E80083FD30C07C
:104710008091E80082FDEACF8091E80080FFE1CF40
:104720008091F3002091F200382F6115710519F086
:104730002830310558F091E02830310509F090E03B
:104740002091E8002E772093E800CBCF81918093D1
:10475000F100615071092F5F3F4FE7CF8091330324
:10476000882341F0853041F08091E80083FFBECF7F
:1047700081E0089582E0089583E00895FC0180912E
:104780003A0390913B0386179707A0F061157105D6
:1047900029F48091E8008E778093E80090E061151D
:1047A000710551F4911108C08091E80082FF35C075
:1047B00080E00895BC01F2CF809133038823C9F1D2
:1047C0008530C9F18091E80083FD31C08091E80017
:1047D00082FDEACF8091E80080FFE1CF8091F30075
:1047E0002091F200382F6115710519F0283031053C
:1047F00058F091E02830310509F090E08091E80010
:104800008E778093E800CBCF84918093F10031962E
:10481000615071092F5F3F4FE6CF809133038823AA
:1048200041F0853041F08091E80083FFBDCF81E009
:10483000089582E0089583E00895982F973028F036
:104840008F708093E90081E008959093E900242F10
:10485000762F50E0981731F07091EC002091ED0028
:104860005091F00021FD02C09F5FE8CF3091EB0036
:104870003E7F3093EB003091ED003D7F3093ED00B3
:104880003091EB0031603093EB007093EC0020939B
:10489000ED005093F0002091EE0027FDE5CF80E081
:1048A00008958091340387FF13C08091E80082FF50
:1048B00006C08091E8008B778093E80004C0809167
:1048C00033038111F2CF0895809133038823D9F304
:1048D0008091E80080FFF8CF8091E8008E77ECCFE0
:1048E0002091E4003091E50095E6A9012091EC00CB
:1048F000822F817020FF06C08091E80080FF06C0F3
:1049000080E008952091E80022FD1AC080913303D1
:10491000882389F0853089F08091EB0085FD0FC0F8
:104920002091E4003091E50042175307F9F29150CD
:10493000E1F684E0089582E0089583E0089581E03F
:1049400008950E9410250E941825E0EEF0E0808175
:1049500081608083E8EDF0E080818F77808319BCEF
:10496000A7EDB0E08C918E7F8C9380818F7E8083C9
:104970001092320308950F931F93CF93DF930E94F9
:1049800010250E941825C8EDD0E088818F77888394
:1049900088818068888388818F7D888319BC109284
:1049A000330310922F03109231031092300300EE64
:1049B00010E0F80180818B7F80838881816088830B
:1049C00042E060E080E00E941D24E1EEF0E08081A2
:1049D0008E7F8083E2EEF0E0808181608083808141
:1049E00088608083F80180818E7F808388818061E8
:1049F0008883DF91CF911F910F910895E8EDF0E04A
:104A000080818F7E8083E7EDF0E08081816080830C
:104A100084E082BF81E0809332030E94BB2408952A
:104A2000E8EDF0E080818E7F80831092E2000895AF
:104A30001092DA001092E10008951F920F920FB6C3
:104A40000F9211242F933F934F935F936F937F9314
:104A50008F939F93AF93BF93EF93FF938091E10068
:104A600082FF0BC08091E20082FF07C08091E100CD
:104A70008B7F8093E1000E947C278091DA0080FF89
:104A800019C08091D80080FF15C08091DA008E7F18
:104A90008093DA008091D90080FF96C080E189BDC3
:104AA00082E189BD09B400FEFDCF81E0809333032C
:104AB0000E945D218091E10080FF19C08091E20099
:104AC00080FF15C08091E2008E7F8093E20080918C
:104AD000E20080618093E2008091D8008062809340
:104AE000D80019BC85E0809333030E947121809126
:104AF000E10084FF2BC08091E20084FF27C080E1A9
:104B000089BD82E189BD89B5982F917080FFFBCF67
:104B10008091D8008F7D8093D8008091E1008F7EB6
:104B20008093E1008091E2008F7E8093E20080918B
:104B3000E20081608093E20080912F03882309F4D2
:104B400049C084E0809333030E947A218091E10080
:104B500083FF29C08091E20083FF25C08091E1009E
:104B6000877F8093E10082E08093330310922F03CC
:104B70008091E1008E7F8093E1008091E2008E7F42
:104B80008093E2008091E20080618093E20042E045
:104B900060E080E00E941D248091F0008860809396
:104BA000F0000E946E21FF91EF91BF91AF919F9114
:104BB0008F917F916F915F914F913F912F910F90C6
:104BC0000FBE0F901F90189519BC109233030E94CE
:104BD0006B2170CF8091E30087FD93E090933303C6
:104BE000B3CF1F920F920FB60F9211242F933F93C2
:104BF0004F935F936F937F938F939F93AF93BF93E5
:104C0000CF93DF93EF93FF93D091E900DF70809112
:104C1000EC00C82FC17080FDC0E81092E9008091BF
:104C2000F000877F8093F00078940E9435261092E0
:104C3000E9008091F00088608093F000CD2BCF7068
:104C4000C093E900FF91EF91DF91CF91BF91AF91B8
:104C50009F918F917F916F915F914F913F912F9194
:104C60000F900FBE0F901F901895AAE2B0E0EBE3F3
:104C7000F6E20C94422884E393E02091F100FC01D9
:104C80002193CF01F3E08C339F07B9F70E949A215B
:104C90008091E80083FF1EC1809134039091350319
:104CA0009A3008F017C1E92FF0E0EE51F64D0C9460
:104CB000FC27803899F0823809F00CC180913803C4
:104CC0008F70873008F006C18093E9008091EB0077
:104CD00085FB882780F91092E90006C08091300397
:104CE00090913103911182609091E800977F9093A9
:104CF000E8008093F1001092F1008091E8008E7737
:104D0000E5C0882309F4D3C0823009F0E3C0809164
:104D100036038111D6C0809138038F702FEF280F92
:104D2000263008F0D7C08093E9002091EB0020FFE7
:104D3000C8C0933031F48091EB0080628093EB0027
:104D4000C0C09091EB0090619093EB0021E030E0C7
:104D500001C0220F8A95EAF72093EA001092EA0038
:104D60008091EB008860EACF8111B4C010913603C6
:104D70001F778091E3008078812B8093E3008091FE
:104D8000E800877F8093E8000E9451248091E8002A
:104D900080FFFCCF8091E30080688093E30082E095
:104DA000111183E08093330395C08058823008F05E
:104DB00091C080913603909137038C3D23E0920798
:104DC000A1F583E08A838AE289834FB7F894DE01F4
:104DD000139620E03EE051E2E32FF0E050935700BD
:104DE000E49120FF03C0E295EF703F5FEF708E2FDC
:104DF00090E0EA30C0F0C7968D939D932F5F2431E9
:104E000059F74FBF8091E800877F8093E8006AE2FE
:104E100070E0CE0101960E9460238091E8008B77BC
:104E20008093E80057C0C096E7CF60913803709137
:104E30003903AE014F5F5F4F0E949B22BC01892B5B
:104E400009F448C09091E800977F9093E800898129
:104E50009A810E94BE23E1CF8038E1F58091E8007D
:104E6000877F8093E80080912F038093F10045CFE6
:104E7000811130C090913603923060F58091E80046
:104E8000877F8093E80090932F030E9451248091A4
:104E90002F03882311F084E005C08091E30087FD93
:104EA000FACF81E0809333030E94852113C0809163
:104EB0003603813079F481E0933009F080E080930B
:104EC00031031092E9008091E800877F8093E80029
:104ED0000E9451248091E80083FF0AC08091E8007D
:104EE000877F8093E8008091EB0080628093EB00E5
:104EF000AA96E3E00C945E280895CF938091330343
:104F00008823A1F0C091E900CF709091EC00892F27
:104F1000817090FD80E8C82B1092E9008091E80034
:104F200083FD0E943526CF70C093E900CF9108958C
:104F3000991B79E004C0991F961708F0961B881FEB
:104F40007A95C9F78095089587FB082E062687FD78
:104F5000819567FD61950E9498270EF4919507FC55
:104F600081950895AA1BBB1B51E107C0AA1FBB1F57
:104F7000A617B70710F0A61BB70B881F991F5A95E5
:104F8000A9F780959095BC01CD01089597FB072E58
:104F900016F4009407D077FD09D00E94B22707FCD1
:104FA00005D03EF4909581959F4F08957095619539
:104FB0007F4F0895A1E21A2EAA1BBB1BFD010DC055
:104FC000AA1FBB1FEE1FFF1FA217B307E407F507B9
:104FD00020F0A21BB30BE40BF50B661F771F881F95
:104FE000991F1A9469F760957095809590959B012B
:104FF000AC01BD01CF010895EE0FFF1F0590F491A4
:10500000E02D09940E940A28332312F48A1B9B0B7B
:105010000C941B28A29FB001B39FC001A39F700DE9
:10502000811D1124911DB29F700D811D1124911DB0
:1050300008950E940A28B7FF0895821B930B0895D4
:105040000E940A28A59F900DB49F900DA49F800DEB
:10505000911D11240895B7FF0C9420280E94202848
:10506000821B930B08952F923F924F925F926F9203
:105070007F928F929F92AF92BF92CF92DF92EF92E8
:10508000FF920F931F93CF93DF93CDB7DEB7CA1B69
:10509000DB0B0FB6F894DEBF0FBECDBF09942A8894
:1050A000398848885F846E847D848C849B84AA843C
:1050B000B984C884DF80EE80FD800C811B81AA81C9
:1050C000B981CE0FD11D0FB6F894DEBF0FBECDBF94
:1050D000ED010895002E083090F0982F872F762F3D
:1050E000652F542F432F322F22270850F4CF220F41
:1050F000331F441F551F661F771F881F991F0A956E
:10510000B2F7002D089597FD1094002E083098F006
:105110000850232F342F452F562F672F782F892F94
:10512000912DF4CF15949795879577956795579519
:105130004795379527950A95AAF71124002D0895CC
:105140008F929F92AF92BF92CF92DF92EF92FF9297
:10515000CF93DF93EC01688179818A819B8161150E
:1051600071058105910521F464E279ED8BE597E005
:105170002DE133EF41E050E00E94772949015A01C7
:105180009B01AC01A7EAB1E40E9420286B017C01DD
:10519000ACEEB4EFA50194010E942E28DC01CB01F6
:1051A0008C0D9D1DAE1DBF1DB7FF03C00197A1094A
:1051B000B04888839983AA83BB839F77DF91CF917F
:1051C000FF90EF90DF90CF90BF90AF909F908F9027
:1051D00008950E94A028089580E091E00E94A028F0
:1051E0000895B0E0A0E08093000190930101A093A6
:1051F0000201B09303010895FC014150504030F08A
:1052000001900616D1F73197CF0108958827992785
:105210000895FB01DC0104C08D910190801921F4F7
:1052200041505040C8F7881B990B0895FB01DC01E1
:1052300002C001900D9241505040D8F70895F9995D
:10524000FECF92BD81BDF89A992780B50895A6E159
:10525000B0E044E050E00C946929A8E1B0E042E0FD
:1052600050E00C946929DC01A40FB51F4150504057
:1052700048F0CB01840F951F2E910E944429415084
:105280005040D0F70895262FF999FECF92BD81BDE9
:10529000F89A019700B4021639F01FBA20BD0FB674
:1052A000F894FA9AF99A0FBE08950396272F0E9450
:1052B00044290E944329252F0E944429242F0C941D
:1052C00044290196272F0E9444290C944329DC018C
:1052D000CB01FC01F999FECF06C0F2BDE1BDF89A01
:1052E000319600B40D9241505040B8F70895052E04
:1052F00097FB1EF400940E948E2957FD07D00E9450
:10530000DA2707FC03D04EF40C948E295095409573
:10531000309521953F4F4F4F5F4F08959095809561
:10532000709561957F4F8F4F9F4F0895F894FFCFF1
:1053300056055605A605A6050B062706850585050F
:105340002C069D06AC06AC063B1C421C491C4E1CA0
:10535000531C581C5D1C621C671C6C1C711C761C49
:105360007A1C7F1C821C851C881C8B1C8D1C901C2D
:10537000921C1B1D8F1D231DED1CF11C271DF51CF0
:105380002B1D371D011D881D051D3B1D091D3F1DC2
:10539000671D0D1D431D6E1D131D491D511DF91C5B
:1053A0002F1DFD1C331D171D4D1D5D1D771D861DF9
:1053B000E71C1F1D961D4A1E501E391E441E561EF8
:1053C0005C1E621E592681266A2781266A27B4261A
:0853D000D5266A272C27382797
:1053D800010000007402280850011E0A140101018E
:1053E80002000300030301191A1B1C1D1E1F2021A4
:1053F800220421392132212B2101E200E900EA00AF
:10540800B500B600B700CD008301CC008A01920137
:1054180094012102230224022502260227022A02DD
:10542800B300B4006F0070009F01CB019F02A0027F
:10543800818283E200E900EA00B500B600B700CD3A
:10544800008301CC008A01920194012102230224E5
:10545800022502260227022A02B300B4006F007058
:10546800009F01CB019F02A002818283F0F1F4F535
:10547800F6F767C666363534979694909192939569
:105488000001020202020606060909090909090FB4
:105498000F0F0F0F0F1515151819191919191919B3
:0C54A80019191923242525252525250088
:00000001FF
