:100000000C9436030C946E030C946E030C946E03E4
:100010000C946E030C946E030C946E030C946E039C
:100020000C946E030C946E030C94C81F0C94841FE4
:100030000C94C5200C946E030C946E030C946E0308
:100040000C946E030C946E030C946E030C946E036C
:100050000C946E030C94A1200C946E030C946E030C
:100060000C946E030C946E030C946E030C946E034C
:100070000C946E030C946E030C946E030C946E033C
:100080000C946E030C946E030C946E030C946E032C
:100090000C946E030C946E030C946E030C946E031C
:1000A0000C946E030C946E030C946E03050109020C
:1000B000A10185020901A1000509190129081500FE
:1000C0002501950875018102050109300931158165
:1000D000257F95027508810609381581257F9501D0
:1000E00075088106050C0A38021581257F95017572
:1000F000088106C0C005010980A101850319012AF4
:10010000B700150126B700950175108100C0050CD8
:100110000901A101850419012AA002150126A002E6
:10012000950175108100C005010906A1018506052C
:100130000719E029E71500250195087501810205D9
:1001400007190029EF1500250195F07501810205B9
:10015000081901290595057501910295017503910D
:1001600001C00660FF0961A1010962150026FF00B8
:100170009520750881020963150026FF00952075FA
:10018000089102C005010906A101050719E029E748
:1001900015002501950875018102950175088101F9
:1001A0000507190029FF150026FF0095067508812F
:1001B000000508190129051500250195057501910E
:1001C00002950175039101C00000000000000000CD
:1001D000000000000000000000000000000000001F
:1001E0000000000000000000000000007E0F00D4AE
:1001F000FFFFFFC7000000780000000000000000C3
:100200002A2B280000000000000000000000000071
:1002100000000029000000002C1E3420212224347C
:100220002627252E362D3738271E1F20212223244E
:1002300025263333362E37381F0405060708090AEA
:100240000B0C0D0E0F101112131415161718191A86
:100250001B1C1D2F3130232D350405060708090A04
:100260000B0C0D0E0F101112131415161718191A66
:100270001B1C1D2F3130354C1E0F0500047F3F1F06
:10028000643214643214783C1E1E140A0500010105
:100290000101010101010102020202020202020245
:1002A0000303030303030303040404040404040515
:1002B00005050505060606060607070707070808D9
:1002C0000808090909090A0A0A0B0B0B0C0C0C0D8A
:1002D0000D0D0E0E0E0F0F0F101011111112121323
:1002E000131414151516161717181819191A1A1B9E
:1002F0001B1C1D1D1E1E1F202021222223242425FD
:100300002626272829292A2B2C2D2D2E2F30313235
:1003100032333435363738393A3B3C3D3E3F404145
:1003200042434445464748494A4C4D4E4F5051532D
:1003300054555658595A5B5D5E5F616264656668E4
:10034000696B6C6D6F7072737577787A7B7D7E8068
:1003500082838587888A8C8E8F91939596989A9CB4
:100360009EA0A2A3A5A7A9ABADAFB1B3B5B7BABCC8
:10037000BEC0C2C4C6C9CBCDCFD1D4D6D8DBDDDF99
:10038000E2E4E7E9EBEEF0F3F5F8FAFDFFFFAA7F10
:1003900055402223252628292A2C2D2F303233356B
:1003A00036383A3B3D3E4042434547494A4C4E5021
:1003B00051535557595A5C5E6062646668696B6D4B
:1003C0006F71737577797B7D7F81838587898A8C4F
:1003D0008E90929496989A9C9E9FA1A3A5A7A8AA56
:1003E000ACAEAFB1B3B4B6B8B9BBBCBEBFC1C2C38B
:1003F000C5C6C7C9CACBCCCDCED0D1D2D2D3D4D525
:10040000D6D7D7D8D9D9DADADBDBDBDCDCDCDCDC4D
:10041000DDDDDDDDDCDCDCDCDCDBDBDBDADAD9D925
:10042000D8D7D7D6D5D4D3D2D2D1D0CECDCCCBCAB3
:10043000C9C7C6C5C3C2C1BFBEBCBBB9B8B6B4B3D9
:10044000B1AFAEACAAA8A7A5A3A19F9E9C9A98966F
:100450009492908E8C8A89878583817F7D7B797742
:100460007573716F6D6B6968666462605E5C5A5922
:1004700057555351504E4C4A4947454342403E3DE3
:100480003B3A3836353332302F2D2C2A2928262571
:100490002322290035001E001F0020002100220019
:1004A000230024002500260027002D002E002A000E
:1004B0004B002B0014001A000800150017001C0048
:1004C00018000C00120013002F00300031004E0005
:1004D000390004001600070009000A000B000D0097
:1004E0000E000F0033003400000028000000E1007F
:1004F0001D001B000600190005000500110010007A
:100500003600370038005200E5000000E000E3004C
:10051000E20000002C00000000002C00000021522E
:100520000000500051004F0035003A003B003C00F5
:100530003D003E003F0040004100420043004400B7
:1005400045004C0001000100010020782478237848
:10055000217826780100010001000100010001005E
:100560000100010001000100010001002778287846
:1005700025780100010001000100010001000000D8
:100580000100000001000100010001000100010064
:100590000100010001000100010001000100010053
:1005A0000000010001000100000001000000000047
:1005B000010000000100000001000100010009022B
:1005C0005B00030100A0FA0904000001030101001F
:1005D00009211101000122440007058103080001DF
:1005E0000904010002030000000921110100012299
:1005F00022000705820320000107050303200001F4
:100600000904020001030000000921110100012278
:10061000B60007058403200001120100020000005B
:1006200008414843530001010200011A03530065C9
:1006300000720069006300610020005200650076CE
:10064000002E00310000001E0341006E00640072A5
:10065000006F00640069002000530074007500649E
:100660000069006F000000040309040011241FBE8C
:10067000CFEFDAE0DEBFCDBF04B603FE18C0809135
:10068000E8029091E902A091EA02B091EB02873072
:10069000904BA740B04B59F41092E8021092E90237
:1006A0001092EA021092EB02E0E0F8E3099522E0F2
:1006B000A2EAB1E001C01D92A83EB207E1F711E045
:1006C000A0E0B1E0E8EEF1E502C005900D92A23A9B
:1006D000B107D9F70E94EC200C948B280C940000F1
:1006E000482F2091E4029091AB0257E0291302C0F9
:1006F00080E0089530E0529FF001539FF00D1124E7
:10070000E455FD4F8181681306C08081481303C002
:1007100085818111EECF2F5F3F4F2770E7CFE8ED46
:10072000F0E080818E7F80831092E2001092DA00E8
:100730001092E100A0EEB0E08C9181608C938081FA
:100740008F77808319BCA7EDB0E08C918E7F8C935E
:1007500080818F7E808310927C0208952091E40036
:100760003091E50095E6A9012091EC00822F81707F
:1007700020FF06C08091E80080FF06C080E0089559
:100780002091E80022FD1AC08091A102882389F0FF
:10079000853089F08091EB0085FD0FC02091E40049
:1007A0003091E50042175307F9F29150E1F684E0E9
:1007B000089582E0089583E0089581E0089580918E
:1007C000A30287FF13C08091E80082FF06C08091DA
:1007D000E8008B778093E80004C08091A10281112A
:1007E000F2CF08958091A1028823D9F38091E80087
:1007F00080FFF8CF8091E8008E77ECCF982F909310
:10080000E900242F762F50E0891731F07091EC0029
:100810002091ED005091F00021FD07C09F5F9730BF
:1008200071F78093E90081E008953091EB003E7FFD
:100830003093EB003091ED003D7F3093ED0030912F
:10084000EB0031603093EB007093EC002093ED00EF
:100850005093F0002091EE0027FDE0CF80E0089556
:10086000B0E0A0E0E6E3F4E00C94EB26C8EDD0E0C5
:1008700088818F7E8883E7EDF0E0808181608083CE
:1008800084E082BF81E080937C0288818E7F8883B0
:1008900002EE10E0F80110821092DA0081EEC82E0C
:1008A000D12CF601108288818F77888388818068B7
:1008B000888388818F7D888319BC1092A102109251
:1008C000A2021092A00210929F0290EEE92EF12C4B
:1008D000F70180818B7F808388818160888342E0FB
:1008E00060E080E00E94FE03F60180818E7F8083BD
:1008F000F801808181608083808188608083F70136
:1009000080818E7F8083888180618883CDB7DEB7C8
:10091000E8E00C940727FC018091A9029091AA02BB
:1009200086179707A0F06115710529F49091E800EA
:100930009E779093E80090E06115710551F4911154
:1009400008C08091E80082FF34C080E00895BC01B7
:10095000F2CF8091A1028823C1F18530C1F180914D
:10096000E80083FD30C08091E80082FDEACF8091ED
:10097000E80080FFE1CF8091F3002091F200382F52
:100980006115710519F02830310558F091E02830D3
:10099000310509F090E02091E8002E772093E800DF
:1009A000CBCF81918093F100615071092F5F3F4F50
:1009B000E7CF8091A102882341F0853041F08091FA
:1009C000E80083FFBECF81E0089582E0089583E0D0
:1009D000089580917E0208959C014FB7F89480910C
:1009E000760290917702A0917802B09179024FBF80
:1009F000821B930B08952FB7F89480917602909103
:100A00007702A0917802B09179022FBF08952091CA
:100A10001A012223C9F020917A0227FF15C0E62F80
:100A2000E695E695E695EE31D8F4E80FF92FF11D3D
:100A3000677021E030E001C0220F6A95EAF7209547
:100A40008281282322830895FC0132960896219101
:100A5000621303C0DF0111971C92E817F907B9F779
:100A6000089520911A012223C1F020917A0227FFD4
:100A700014C0E62FE695E695E695EE31F8F4E80F1A
:100A8000F92FF11D677021E030E001C0220F6A9557
:100A9000EAF78281822B82830895FC0132962FEF40
:100AA00030E04191641751F02F3F19F4411101C01A
:100AB000232F3F5F3630A9F72F3F09F40895820FA7
:100AC000911D27FD9A95FC0162830895A3E0B0E093
:100AD000ECE6F5E00C94F12620917302309174025B
:100AE00028173907A1F09093740280937302E09164
:100AF0007102F0917202309751F024E029839B83B8
:100B00008A830680F781E02DCE0101960995239610
:100B1000E2E00C940D27A3E0B0E0E1E9F5E00C94ED
:100B2000F12620916F023091700228173907A1F049
:100B30009093700280936F02E0917102F0917202C3
:100B4000309751F023E029839B838A830680F781C5
:100B5000E02DCE01019609952396E2E00C940D2735
:100B6000E0917102F0917202309729F00190F081CA
:100B7000E02D0995089580E00895FA01811101C0E2
:100B8000FB0109950895089580916702982F9E7F33
:100B900061F4817082608093670280916A02893774
:100BA00018F088E780936A0208958635B0F3817063
:100BB0008465F1CFAF92BF92DF92EF92FF920F93D5
:100BC0001F93CF93DF93182F062FE901493708F0C1
:100BD00048E7E42FF0E0E357FD4F011110C0E49126
:100BE0005E2F4E2F4983E8835A83DF91CF911F9167
:100BF0000F91FF90EF90DF90BF90AF900895202F5E
:100C000030E04491D42EE42EF12C56E0159FC00123
:100C10001124EFEFF0E0BF010E949D26812F90E0AC
:100C2000880F991F55E5569FD001579FB00D11248D
:100C30008A1B9B0B982F990F890F5F01A21AB30A89
:100C4000AE9CD001AF9CB00DBE9CB00D11245B2FAB
:100C5000089F80011124012F11275F01A01AB10AFA
:100C6000AE9C8001AF9C100DBE9C100D11245F0145
:100C7000A81AB108A29EC001A39E900DB29E900D2D
:100C80001124892F9927E81BF90BEE9DC001EF9DD8
:100C9000900DFE9D900D1124E92F62307105A1F099
:100CA00050F46115710509F49DCF6130710581F033
:100CB000EB2F512F97CF6430710569F080F06630CB
:100CC000710509F48FCFF4CFE42F4B2F592F8ACF22
:100CD000E42F412F87CFEB2F542F492F83CF4B2F5A
:100CE0005D2DE12F7FCF0E94FB049C01909140027B
:100CF00080914102982B21F030933D0220933C02D9
:100D00009091420280914302982B21F030933B0254
:100D100020933A02E0917102F0917202309749F00B
:100D200082E080933E020480F581E02D8EE392E024
:100D3000099508958091390280FD16C081FD16C085
:100D400082FD16C0809138028823A1F0883280F499
:100D500028E0829FC001112468E270E00E94B12661
:100D6000862F672B39F0089582E0089584E0089576
:100D700088E0089581E008958091390280FD14C0D3
:100D800081FD14C082FD16C080913702882381F056
:100D90008E3180F420E5829FC00111246EE170E065
:100DA0000E94B126862F089584E1089588E208956F
:100DB00088E0089580E50895282F35EB2303C001CE
:100DC000112497FF04C080589109892F08958058F5
:100DD0009F4FFBCF80E00895F894E82FE295EF70E5
:100DE000F0E031A1282F2F7081E090E001C0880F42
:100DF0002A95EAF7982F9095932391A392A1892B96
:100E000082A37894089590917A0292FF10C041E0F5
:100E1000282F2471243009F040E031E0282F287178
:100E2000283009F030E0431711F02CE0822793FFBF
:100E300010C041E0282F2471243109F040E031E056
:100E4000282F2871283109F030E0431711F02CE0E9
:100E5000822730917B0230FF10C051E0282F217192
:100E6000213009F050E041E0282F2871283009F0A6
:100E700040E0541711F029E0822731FF10C041E013
:100E8000282F2171213109F040E031E0282F28710D
:100E9000283109F030E0431711F029E0822794FD52
:100EA000877E089582389105B9F1B0F481339105B8
:100EB00009F47DC048F48932910509F46DC08A3285
:100EC000910509F47BC008958533910509F45FC04D
:100ED0008933910509F10895833E9105D9F138F4DC
:100EE000803E910529F1823E910579F10895863E73
:100EF0009105D9F1873E910509F43EC0843E9105E4
:100F000041F520917B0221FF24C080917A0284FD6B
:100F100019C087EE90E0089520917A02237009F0BD
:100F20005AC020917B0223FF14C089E290E008950B
:100F300020917A0220FD38C030917B0230FF09C039
:100F400024FF43C090E080E0089520917A0222FDC2
:100F5000F7CF089520917A0222FD3AC030917B02AA
:100F600030FD39C024FFF5CFEDCF20917A0223FF69
:100F7000F0CF24FDE7CFCDCF20917A0223FD2EC004
:100F800030917B0231FFEECF84EE90E00895209106
:100F90007A0225FFDECFC9CF20917A0225FD21C03C
:100FA00020917B0223FFD5CF89E390E0D2CF20911F
:100FB0007A0226FFCECF8AE290E0089520917A024D
:100FC00026FFC7CF81E390E0089583EE90E0089577
:100FD00082EE90E0089580EE90E0089586EE90E035
:100FE000089585E390E008951F93CF93DF930E94C7
:100FF0005207EC01C11580E5D807F0F5C11580E472
:10100000D80708F09CC0C03ED10520F5CD3CD105E5
:1010100008F082C0C83AD10578F4C53AD10508F085
:1010200073C0C130D10519F1209709F1C430D10541
:10103000F0F4D0E0C0E01BC0C33CD105D0F7C85AE3
:10104000D0E0CC0FDD1FC25EDE4F0990D881C02DED
:10105000D4640DC0C11580E2D80708F0D1C0C11515
:1010600081E0D80708F05AC0C83ED10510F7CE017C
:10107000DF91CF911F910895C03682E5D80718F50A
:10108000C03482E5D80708F06BC0C03282E5D807CB
:1010900008F05FC0C11582E5D80708F497C02C2F6F
:1010A0002695269580E2289F900111248C2F83702D
:1010B000C1E0D0E002C0CC0FDD1F8A95E2F7C22B61
:1010C000D32BDD68D4CFC03A82E5D80760F4C038AE
:1010D00082E5D80708F459C0CF71D0E0DC2FCC27C7
:1010E000C46FD06AC4CFC03C82E5D80708F462C0A0
:1010F000C03E82E5D80708F09CCFDC2FCC27CC2758
:10110000DF71C06FD06AB3CFC55AD0E0C55EDE4F85
:10111000C881D0E0D064ABCFD065A9CF8D2F0E941D
:101120000307182FCE0199270E945207C12FD0E044
:10113000DC2FCC27CC27DF71C82BD92B98CFCE0141
:1011400099270E945207CC27DF70C82BD92BD06A71
:101150008ECFCF71D0E0DC2FCC27C16FD06A87CF84
:101160002C2F26952695277080E2289F9001112428
:101170008C2F8370C1E0D0E002C0CC0FDD1F8A95B8
:10118000E2F7C22BD32BDC6872CF2C2F2695269545
:10119000277080E2289F900111248C2F8370C1E07A
:1011A000D0E002C0CC0FDD1F8A95E2F7C22BD32B13
:1011B000DA685DCF8C2F8F710E940307C82FD0E0B3
:1011C000DC2FCC27CC27DF71D06251CF8C2F8F71D1
:1011D0000E94030755E0D695C7955A95E1F7CF7061
:1011E000D0E0DC2FCC27282F30E084FF05C044E07E
:1011F000220F331F4A95E1F7C22BD32BD06937CF8B
:101200008D2F8F710E940307182FCE0199270E94FE
:101210005207C12FD0E0DC2FCC27CC27DF71C82BA1
:10122000D92BD2CF809590910E02982390930E02E5
:1012300008958091E4029091AB02981301C0089543
:101240008F5F8770FACF292F953078F58F3068F54A
:1012500090E03FE0239F800D911D1124682F67705F
:1012600023E0969587952A95E1F7FC01EE0FFF1F85
:10127000E80FF91FEA53FE4F50E040E080E0219173
:1012800030E0062E02C0369527950A94E2F72170C9
:101290003327042E01C0220F0A94EAF7822B4F5FF6
:1012A0005F4F4330510559F7089580E00895292F85
:1012B000953098F58F3088F590E03FE0239F800DC2
:1012C000911D1124282F277041E001C0440F2A9559
:1012D000EAF723E0969587952A95E1F7FC01EE0F52
:1012E000FF1FE80FF91FEA53FE4F30E020E070E0E7
:1012F0005191DF011197CB01022E02C0969587957F
:101300000A94E2F7817081958527842385278C9341
:101310002F5F3F4F2330310559F7089580931F0207
:10132000089590911F0221E030E0F90101C0EE0F15
:101330008A95EAF7D90102C0AA0FBB1F6A95E2F7A6
:10134000EA2B01C0220F4A95EAF7892F8E23E81372
:1013500005C0292B822F0E948E09089520952923EC
:10136000F9CF21E030E001C0220F8A95EAF72095FD
:1013700080911F0282230E948E0908959091EB01B3
:10138000809589238093EB01282F277069F48917B2
:1013900059F090917B0292FF07C0869586958695BD
:1013A0000E94B1091092EB01089521E030E001C0E4
:1013B000220F8A95EAF780911F02822B0E948E09E4
:1013C000089580930F020895662309F45DC08D3C53
:1013D00041F40E94BC068195809341020E947306ED
:1013E00008958E3C19F40E94BC06F6CF8F3C31F470
:1013F0000E94BC06819580934002F0CF803D19F495
:101400000E94BC06F8CF893D29F40E949A06809379
:101410004202E4CF8A3D21F40E949A068195F7CFDB
:101420008B3D31F40E949A06819580934302D6CF7A
:101430008C3D19F40E949A06F8CF9FE2980F9830DD
:1014400070F4815D990B21E030E001C0220F8A9594
:10145000EAF780913F02822B80933F02BFCF8D3D00
:1014600031F480913902816080933902B7CF8E3D8B
:1014700021F4809139028260F7CF8F3D09F0AECF21
:10148000809139028460F0CF409140028D3C59F444
:101490008091410287FF0DC01092410241110BC0A3
:1014A0001092370208C08E3C81F4809141021816D8
:1014B0009CF3442381F08091420290914302892B56
:1014C00009F08CCF1092380289CF8F3C49F447FF46
:1014D000F0CF10924002809141028111ECCFE0CF19
:1014E000803D19F41416ACF3E4CF90914202893D8B
:1014F00029F41916F4F610924202DBCF8A3D19F452
:1015000097FFD7CFF8CF909143028B3D29F497FFF7
:10151000D0CF10924302CDCF8C3D19F41916CCF3E5
:10152000C8CF9FE2980F983090F4815D990B21E02D
:1015300030E0B90102C0660F771F8A95E2F7CB0150
:10154000809590913F02892380933F02B2CF8D3DD9
:1015500031F4809139028E7F80933902AACF8E3D7B
:1015600021F4809139028D7FF7CF8F3D09F0A1CF13
:10157000809139028B7FF0CF0F931F93CF93DF932E
:101580008B01EA019091A102943061F58093E9000A
:101590008FEF9091E800815095FD06C095ED9A95EA
:1015A000F1F700008111F5CF8091E80085FF1AC0A6
:1015B0000E94AE03811111C08091E80085FD06C034
:1015C0008091E8008E778093E800F2CFF801819156
:1015D0008F018093F100219779F78091E8008E7751
:1015E0008093E800DF91CF911F910F91089543E020
:1015F00050E0BC0184E00E94BC0A089546E050E03F
:10160000BC0184E00E94BC0A0895CF93DF93EC01F3
:1016100080911A01811111C048E050E0BE0181E0C3
:101620000E94BC0A80E2FE01AFE7B2E001900D9299
:101630008A95E1F7DF91CF91089580917A0287FF33
:1016400005C040E284E050E0BE01EACF48E081E01E
:10165000FACF81E08093E00080E28093D80010927E
:10166000C9008FE19EE40197F1F700C0000087E018
:1016700090EBDC018093E8029093E902A093EA02E8
:10168000B093EB0288E19CE00FB6F894A8958093A4
:1016900060000FBE90936000FFCF8091670280FDD5
:1016A00012C01092500210924F02109251021092EA
:1016B000530210925202109254021092560210924B
:1016C000550210925702279A35B13F7725B120680D
:1016D0004FB7F8948FE492E0FC015191CF0168E09C
:1016E00025B9000000C057FF35B9550F000000C0F4
:1016F00000C000C035B900C06A9591F7F2E08835A6
:101700009F0751F74FBF8FE594E00197F1F700C0B5
:1017100000000895EF92FF920F931F93CF93DF93F2
:101720008C01CFE4D2E0F12CE12CF801948160919E
:10173000690280916802E114F104E9F49923E9F067
:101740009E0140916A020E94DA05FFEFEF1AFF0A3C
:10175000239683E0E816F10441F70E944D0BF8014F
:10176000848190E00196817099278483CDB7DEB79C
:10177000E6E00C940927992319F39E0140E0E3CF9A
:10178000B0E0A0E0E6ECFBE00C94E726EC014C8135
:10179000042F10E09801D8010E947C289B01AC0125
:1017A0000E9447284B015C01E0E2F0E0E01BF10BF6
:1017B000A5E5B0E0AC019B010E9447286B017C01CC
:1017C0009F01DF010E94D2269B01AC010E9452289A
:1017D0009B01AC01280D391D4A1D5B1DC701B601D7
:1017E0000E945A28F22E822F90E039E23F15A0F194
:1017F00043E0249F9001112435952795122F1095D1
:101800009FE4C92E92E0D92E00E085E5E82EEF187E
:10181000802F869589F58E2D9601412F6091690262
:101820000E94DA050F5F53E0C50ED11C033081F72B
:101830000E944D0B9C8181E0992319F0903219F49C
:101840008FEF8093190180911901890F8C83CDB797
:10185000DEB7ECE00C94032725E530E0A901481B36
:10186000590BCA019A01220F331F280F391F37FF66
:10187000C3CF2F5F3F4FC0CF8F2DCECF0F931F937E
:10188000CF93DF931092500210924F0210925102A8
:101890001092530210925202109254021092560269
:1018A0001092550210925702CFE4D2E010E000E00F
:1018B00080914D02082E000C990B081719078CF126
:1018C00080911801082E000C990B801791074CF19C
:1018D0009E0140916A0260916902809168020E94B3
:1018E000DA050F5F1F4F23960330110509F70E9499
:1018F0004D0B8091170190914D02980F90934D02DE
:1019000020911801280F20931801121614F4923018
:101910001CF0819580931701DF91CF911F910F915A
:101920000895198218821A82DCCFB0E0A0E0EBE9BA
:10193000FCE00C94EA26FC018281DD24DA9480FD2F
:1019400002C0DD24D3940FE412E0D0E0C0E023E035
:10195000B22EF80111821082128294E0E92EF12C4D
:10196000C12C80914C028C0D8430C4F16B2D0E94EF
:101970008F26892F082E000C990B8C179D0791F448
:1019800080916A028E9DA0018F9D500D1124559566
:101990004795559547959801609169028091680235
:1019A0000E94DA05CD0CF1E0EF1AF108D1F621968C
:1019B0000D5F1F4FC330D10561F60E944D0B809122
:1019C0004C0291E0D91210C081110CC082E08093CA
:1019D0004C02CDB7DEB7E9E00C94062787FFCACFEB
:1019E0008D5FC8CF8150F3CF90E00196BE010E9479
:1019F000B126EDCFEF92FF921F93CF93DF93EC01CF
:101A00008FE4E82E82E0F82E10E08C81970140915F
:101A10006A0260916902810F0E94DA051B5A83E015
:101A2000E80EF11C1F3F89F70E944D0B9A818C81B3
:101A300090FF08C08F5F8C83DF91CF911F91FF9043
:101A4000EF9008958150F7CF9091670290FF14C0F6
:101A50008093500260934F0240935102809353024F
:101A60006093520240935402809356026093550251
:101A7000409357020E944D0B0895A3E0B0E0E3E4C9
:101A8000FDE00C94EF268C0180914E0281110AC07A
:101A90009E012F5F3F4F48E76FEF0E94DA058A8172
:101AA00080934E02F8016481613069F080914E02AA
:101AB00040E0662361F040E0623011F440914E0254
:101AC00080E060E004C060914E0240E080E00E944F
:101AD000240DF801848190E0019663E070E00E949B
:101AE000B12684832396E4E00C940B27A3E0B0E0B6
:101AF000ECE7FDE00C94F1269091670290FF0AC09C
:101B00009E012F5F3F4F0E94DA054B8169818A81D8
:101B10000E94240D2396E2E00C940D27CF93DF93CF
:101B2000EC01E7E6F2E0438162818C810E94760D50
:101B30008C818F5F8C83DF91CF910895CF93DF935A
:101B4000EC01EC81F0E0EE56FC4F4491E7E6F2E068
:101B5000628181810E94760D8C818F5F8C83DF9101
:101B6000CF910895CF93DF93C1E8D2E060E0CE013A
:101B70000E94F4272196C11584E0D807B9F7DF91B8
:101B8000CF9108951F93CF93DF93122F8430E0F409
:101B90006530D0F44F30C0F4C42FD0E0CC0FDD1F3F
:101BA0009EE1699FC00DD11D112496E9899FC00D4A
:101BB000D11D1124632FCE0189960E94F427612F35
:101BC000CE018A960E94F427DF91CF911F9108954C
:101BD000B0E0A0E0EEEEFDE00C94EB2692E9E92EF9
:101BE00094E0F92ED12C8701C12C1CC04C2F81E030
:101BF00021E030E08D1540F0FE01EE0FFF1FE00FF9
:101C0000F11F859194919C016C2D8D2D0E94C20D28
:101C10002196CF30D10551F7C394025E1F4F85E066
:101C2000C81619F0D0E0C0E0E1CFD39486E9E80E01
:101C3000F11C84E0D812D7CFCDB7DEB7E8E00C9422
:101C40000727CF93C82F6FEF811164E285E290E000
:101C50000E94F4276FEFC11163E086E290E00E94DA
:101C6000F4276FEFC11160E287E290E00E94F42751
:101C7000CF91089580E00E94210E60E088E290E01C
:101C80000E94F4270E94E80D0E94B20D81E00E949C
:101C9000210E08950F931F93CF93DF93843030F577
:101CA000653020F54F3010F5C42FD0E0CC0FDD1F8C
:101CB0002EE1629FC00DD11D112436E9839FC00D16
:101CC000D11D1124CE0189960E94D027082F10E043
:101CD000102F0027CE018A960E94D0279801282B2A
:101CE000C901DF91CF911F910F91089590E080E09D
:101CF000F8CF462F753040F46F3030F4843020F444
:101D0000672F0E944A0E089590E080E00895CF92D8
:101D1000DF92FF920F931F93CF93DF936C0100919B
:101D20001F0280910F02082BC3E0D0E010E0FC2ED0
:101D3000C8010C2E02C0959587950A94E2F780FDA4
:101D40000CC02197A0F7F12C8F2DDF91CF911F911F
:101D50000F91FF90DF90CF900895B6018C2F0E94D5
:101D6000790E0E94F407019761F3EECFCF93DF93D2
:101D7000EC010E94870EBE010E94790E0E94F407BA
:101D8000DF91CF910895FC0124812223C1F080814D
:101D900091810E94B60E92959F70963091F058F402
:101DA000925F9F70923058F4803F19F030F4883E73
:101DB00030F481E008959A5FF4CF843FD1F380E05E
:101DC0000895883EB0F3813FD1F7F3CFA6E0B0E0AD
:101DD000ECEEFEE00C94F02649835A8349815A8147
:101DE0009923A1F0222391F0CA010E94870E182F97
:101DF000682F89819A810E94570969817A81812F90
:101E00000E94790E2696E3E00C940C27CA010E94EA
:101E10002309182FF2CF85E290E00E94D027843268
:101E200089F486E290E00E94D027833059F487E25B
:101E300090E00E94D02791E0803209F090E0892F55
:101E40008170089580E0FCCFB0E0A0E0EAE2FFE01E
:101E50000C94E326FC016280448081E08483E2E903
:101E6000F3E07490E1E1F4E0E49100916A020695F8
:101E7000015810E0000F111F012F1127C8E5D2E013
:101E80002FE4C22E22E0D22E37E6832E32E0932EAC
:101E9000AA24AA94B12C55245A94E719EE2EF12CB9
:101EA00082E0861530F08091680288838091690213
:101EB0008983411016C01B821A8296014A8169816A
:101EC00088810E94DA05259683E0C80ED11C8C1605
:101ED0009D0631F70E944D0BCDB7DEB7E0E10C94C3
:101EE000FF268B818823E9F081508B83859DC0017B
:101EF00011246C8170E00E949D26FB01FF27EE56A5
:101F0000FC4F8491E82FE719E59DC0011124B7012A
:101F10000E949D2680916A02689FB00111247A83F5
:101F2000CCCF0E94A627B5010E94B1268017910749
:101F300024F682E0861588F40E94A627B5010E9447
:101F4000B12688830E94A627209169022695622FD8
:101F500070E00E94B126280F29831A8280916A02BC
:101F6000893C20F088EC8C838B83A7CF8431D8F711
:101F700084E1F9CFB0E0A0E0E0ECFFE00C94E726CC
:101F800049015A016B017C010E94C4058401A4012E
:101F90006A2D7B2D88E090E00E94062894014A2D4E
:101FA0005B2DB601C70100E20E943327622F84E255
:101FB00090E00E94F427CDB7DEB7ECE00C94032745
:101FC000A3E0B0E0E6EEFFE00C94E426F82E762ED7
:101FD000E42E622E9091670290FF2EC0E92FE695C5
:101FE000AE2FB0E0A859BE4F8C9180934A029E7FDD
:101FF000923031F59E012F5F3F4F8F2D0E94DA0501
:102000004B8169818A810E94240DF092680270924E
:102010006902E0926A02662079F02091670260917D
:102020006B0270916C023F2D472D5E2D80916D02E9
:1020300090916E020E94BA0F2396EFE00C94002755
:10204000823019F4E0906A02E0CF863019F4F09003
:102050006802DBCF8930D9F38931B9F6E9518E2F87
:102060008170582EE695F0E0E357FC4FE4910E2F77
:1020700010E08FE4C82E82E0D82EB12CA12C93E082
:10208000892E912CC501B4010E949D268F2D5110DF
:1020900013C0860F96014E2D672D0E94DA05A00E03
:1020A000B11E83E0C80ED11C88E5C81682E0D806B0
:1020B00049F70E944D0BA9CF861BECCFE7E6F2E073
:1020C000438121E1421B08F440E021E062818181EB
:1020D0000E94E00F0895E7E6F2E0438121E1420F1C
:1020E00008F44FEF21E0628181810E94E00F0895A2
:1020F000E7E6F2E0628121E1621B08F460E021E0A2
:10210000438181810E94E00F0895E7E6F2E0628159
:1021100021E1620F08F46FEF21E0438181810E9489
:10212000E00F0895E7E6F2E0818121E043816281DA
:102130008A500E94E00F0895E7E6F2E0818121E0F5
:1021400043816281865F0E94E00F089580916B0257
:10215000882319F0815080936B022091670230919F
:1021600068024091690250916A0260916B0270911D
:102170006C0280916D0290916E020E94BA0F0895D8
:1021800080916B02833018F48F5F80936B022091F3
:102190006702309168024091690250916A02609131
:1021A0006B0270916C0280916D0290916E020E94A0
:1021B000BA0F08959091670290FF34C09170811119
:1021C00032C0926090936702662391F0209167027B
:1021D000309168024091690250916A0260916B02ED
:1021E00070916C0280916D0290916E020E94BA0F04
:1021F00060916702669570E04BE050E08CE091E002
:102200000E94B627892BB1F010924B0281E0809397
:10221000470220E040916A02609169028091680261
:102220000E94E00F08958B3210F09465CBCF880F99
:10223000982BC8CF81E080934B020E94FB049093BF
:10224000450280934402E2CF8091670286958150D7
:1022500009F48AE261E00E94DA1008958091670231
:1022600086958F5F8B3208F081E061E00E94DA1082
:1022700008959091670290FF08C09695981728F0EE
:10228000961718F40E942E11089561E00E94DA104A
:102290000895E7E6F2E083E0808311828FEF828386
:1022A00088E783831482758123E030E04FEF58E79D
:1022B00060E0868197810E94BA0F089590917B0219
:1022C00092FB222720F9281779F080FB92F990934E
:1022D0007B0260917A0270917B0284E090E00E9420
:1022E000122882E00E94BE09089590E080E00E94DA
:1022F000DE27863E9E4F19F40E940B0F089580E062
:10230000089580910E0290910D02892B8093A40173
:1023100090910C029923A1F0892B8093A4018091C4
:102320001A018823E1F180917A0287FF38C08EE19B
:10233000E6EAF1E090E08150A0F5911110920C02D4
:1023400040E250E06CEE71E084EA91E00E94C32725
:10235000892B21F180E2E4EAF1E0ACEEB1E00190FA
:102360000D928A95E1F7E0917102F0917202309737
:10237000A9F080911A01882359F080917A0287FF91
:1023800007C08091A4018093A50186E08093A401F9
:102390000280F381E02D84EA91E00995089586E0BA
:1023A000C7CF2191222339F29F5FC5CF10920E0231
:1023B00080911A01E6EAF1E0882329F180917A02FE
:1023C00087FF21C08EE1DF011D928A95E9F790E039
:1023D00080E00E948B0590E080E00E9466051092EC
:1023E0000D020E94811186E0EEE3F2E0DF011D9212
:1023F0008A95E9F71092370210923802109239024A
:102400000E947306089586E0DECFAAE2B0E0EBE01A
:10241000F2E10C94F02683EA92E02091F100DC01D5
:102420002D93CD01B2E08B3A9B07B9F78091A402BE
:10243000833009F472C0B8F4813009F449C08230A5
:1024400009F4B3C08091E80083FF8BC28091A3029E
:102450009091A4029A3008F084C2E92FF0E0E3578B
:10246000F74D0C94C5268A3009F48EC08B3009F4E0
:1024700071C0893039F78091A302813219F78091B8
:10248000A7029091A802009711F00297D9F68091C7
:10249000E800877F8093E8008091E80082FF38C0E1
:1024A0009091F3008091F200029731F48091F10055
:1024B000813011F0863021F48091F10080937E020A
:1024C0008091E8008B778093E8000E94DF03BACF09
:1024D0008091A302813A09F0B5CF8091E800877F0F
:1024E0008093E8008091A7029091A802892B61F463
:1024F00060E28FE792E070E00E948B048091E80038
:102500008B778093E8009ECF60E090E080E0F3CF8F
:102510008091A1028111C0CF95CF8091A302813A11
:1025200009F090CF8091A7029091A802892B09F021
:1025300089CF8091E800877F8093E8008091E80050
:1025400080FFFCCF80911A018093F1008091E80018
:102550008E77B9CF8091A302813209F073CF809139
:10256000A7029091A802892B09F06CCF8091E80016
:10257000877F8093E8000E94DF038091A50280930B
:102580001A010E94D6115ECF8091A302813209F018
:1025900059CF8091E800877F8093E8000E94DF0395
:1025A0008091A60280937D024DCF8091A302813A53
:1025B00009F048CF8091E800877F8093E800809100
:1025C000E80080FFFCCF80917D02BECF803899F07B
:1025D000823809F0C6C18091A7028F70873008F059
:1025E000C0C18093E9008091EB0085FB882780F9CA
:1025F0001092E90006C080919F029091A002911173
:1026000082609091E800977F9093E8008093F100BA
:102610001092F1008091E8008E779FC1882309F421
:102620008DC1823009F09DC18091A502811190C1B8
:102630008091A7028F702FEF280F263008F091C1EC
:102640008093E9002091EB0020FF82C1933031F4A8
:102650008091EB0080628093EB007AC19091EB0057
:1026600090619093EB0021E030E001C0220F8A9549
:10267000EAF72093EA001092EA008091EB0088606C
:10268000EACF81116EC11091A5021F778091E300FE
:102690008078812B8093E3008091E800877F80938E
:1026A000E8000E94DF038091E80080FFFCCF80916A
:1026B000E30080688093E30082E0111183E080935F
:1026C000A1024FC18058823008F04BC12091A50271
:1026D0003091A6022C3DE3E03E07A1F583E08A831A
:1026E0008AE289834FB7F894DE01139620E03EE03A
:1026F00051E2E32FF0E050935700E49120FF03C034
:10270000E295EF703F5FEF708E2F90E0EA30C0F0FF
:10271000C7968D939D932F5F243159F74FBF8091BA
:10272000E800877F8093E8006AE270E0CE010196BE
:102730000E948B048091E8008B778093E80011C1A0
:10274000C096E7CF8091A7029091A802432F55270A
:102750004330510509F44AC078F54130510509F478
:102760007AC08BE590E0EEEBF5E04230510509F0E0
:10277000F8C02091E800277F2093E8002091A9026B
:102780003091AA028217930708F49C0140E02115BA
:10279000310509F065C0411163C08091E80082FDF8
:1027A000C9CF8091A102882329F2853019F2809146
:1027B000E80083FFF2CFBECF4132510509F43CC09F
:1027C0004232510509F0CDC08330910508F0C9C0EF
:1027D000FC01EE0FFF1FEA56FE4F0190F081E02D45
:1027E0008D569E4FDC018C9190E01AC0332721302A
:1027F0003105D1F02115310561F02230310509F0A4
:10280000B0C0EBE2F6E0E4918E2F90E0EBE2F6E070
:1028100007C0E7E6F6E0E4918E2F90E0E7E6F6E009
:10282000009709F49EC0A5CFE7E4F6E0E4918E2F6F
:1028300090E0E7E4F6E0F4CF8330910508F091C032
:10284000880F991FFC01E456FE4F0190F081E02DA6
:1028500089E090E08ECF82E190E0E9E1F6E089CF77
:102860008091A102882309F465CF853009F462CFF5
:102870008091E80083FD5ECF8091E80082FD8DCFDE
:102880008091E80080FF83CF9091F3008091F20067
:102890002115310519F08830910550F041E0089775
:1028A00009F040E08091E8008E778093E8006FCFD8
:1028B00044914093F1003196215031090196E8CFBF
:1028C000803809F04EC08091E800877F8093E8004F
:1028D0008091A2028093F1009DCE811142C010919F
:1028E000A5021230F0F58091E800877F8093E80020
:1028F0001093A2020E94DF03112311F084E005C0AF
:102900008091E30087FDFACF81E08093A10242E04D
:1029100061EC81E00E94FE0342E261EC84E00E94EF
:10292000FE0342E261EC82E00E94FE0342E260ECC0
:1029300083E00E94FE038091A10213C08091A50252
:10294000813079F481E0933009F080E08093A00237
:102950001092E9008091E800877F8093E8000E9450
:10296000DF038091E80083FF0AC08091E800877F41
:102970008093E8008091EB0080628093EB00AA9640
:10298000E3E00C940C270E94D6112FEF84E39CE027
:10299000215080409040E1F700C0000088E19CE0B9
:1029A0000FB6F894A895809360000FBE90936000D6
:1029B000FFCF882321F00E9412090E9481110895FF
:1029C000882339F090910E02982B90930E020E946A
:1029D00081110895882399F19CEF980F913A40F462
:1029E000682F84EA91E00E9407050E9481110895F2
:1029F00090E2980F983050F4877091E001C0990FE1
:102A00008A95EAF7892F0E941209EFCF9BE5980F6C
:102A1000933028F490E080E00E948B05089598E5BB
:102A2000980F9B3128F490E080E00E94660508959D
:102A300093E3980F933118F460E00E94E40908953D
:102A4000CF93C82F8823D9F18CEF8C0F813AC8F52A
:102A500080911A01882311F180917A0287FF1EC0AC
:102A6000EC2FE695E695E695F0E0EC55FE4F828179
:102A700090E04C2F477021E030E002C0220F331F5E
:102A80004A95E2F782239323892B91F06C2F84EAF5
:102A900091E00E9407050E9481110AC0E6EAF1E078
:102AA0008CEA91E02191C21789F38E179F07D1F725
:102AB0006C2F84EA91E00E9431050E948111CF9130
:102AC000089580E28C0F883068F4C77021E030E010
:102AD00001C0220FCA95EAF780910E02822B8093E3
:102AE0000E02EBCFEBE5EC0FE33040F4F0E0E55EF7
:102AF000FE4F808190E00E948B05E1CFE8E5EC0F6E
:102B0000EB3150F4F0E0EE0FFF1FE25EFE4F8081EC
:102B100091810E946605D3CF83E38C0F833178F6D1
:102B200061E08C2F0E94E409CACF1F93CF93DF93FB
:102B3000182FD0E0C0E0893311F4C0E5D0E0812F38
:102B40000E942015209739F4812F0E94EA14DF910A
:102B5000CF911F9108958FE99FE00197F1F700C091
:102B600000002197EFCF0F931F93CF93DF93C62FD2
:102B7000D42F022FFC0185818823A9F06093E702FE
:102B80000E94FB049093E6028093E502C77081E007
:102B900001C0880FCA95EAF70E94E014DF91CF9137
:102BA0001F910F9108958091E702681332C08091C0
:102BB000E5029091E6020E94EC04883C910548F5FC
:102BC00010E21D0FCD17B9F080E28C0F883040F471
:102BD000C77081E001C0880FCA95EAF70E94D91436
:102BE000183048F481E09D2F977001C0880F9A95A6
:102BF000EAF70E94E014802F0E949515183070F6B5
:102C0000D77081E001C0880FDA95EAF70E94D914E5
:102C1000C5CFC77081E001C0880FCA95EAF7F6CF2B
:102C2000A8E0B0E0E6E1F6E10C94E3268C01DC01DB
:102C300014968C911497882309F4B8C021E04C9124
:102C400011965C91119712966C91129713967C9144
:102C5000139715969C910E94E60E7C01F8018581E0
:102C6000882309F43CC1C70197578038910508F0C3
:102C700096C5FFE0FE1508F489C08FEF93E00E942F
:102C8000D027811183C061E8A62E62E0B62EE11044
:102C900047C0FE01339686E0DF011D928A95E9F771
:102CA0005AE0452E7501BFEFEB1AFB0AC5010E94E1
:102CB000D02789831A82882309F468C0813009F0FB
:102CC00079C06501E2E0CE0ED11CC7010E94D02779
:102CD0008A83882309F45AC09FEF980F933070F5C8
:102CE000F3E0AF0EB11CC6010E94D0278B8388236E
:102CF00009F44CC01C82DE0111967D01F701208190
:102D0000222381F2213009F095C091818281913096
:102D100009F052C0F2E0EF0EF11C0E94951553C06D
:102D2000A11424E0B20691F1C5010E94D0278111BF
:102D300001C0EA943FEFA31AB30AA9CF5601843029
:102D4000D1F642E0E42EF12C56012FEFA21AB20A7E
:102D5000C6010E94D027E1E0F0E0EC0FFD1FEE0D70
:102D6000FF1D8083882391F08C3741F4E2E0F0E08E
:102D7000EC0FFD1FEE0DFF1D1082BDCF3FEFE31ADC
:102D8000F30A650187E0E816F104F1F68091EB01A2
:102D9000877061F0D80115968C91882339F0809165
:102DA0007B0282FF03C082E00E94BE092896E0E118
:102DB0000C94FF2657019FCF923049F422E0E20E97
:102DC000F11C0E942015EFEFEE1AFE0A97CF933008
:102DD00031F432E0E30EF11C0E94EA14F4CF943097
:102DE00021F08FEFE81AF80AEECF92E0E90EF11C1D
:102DF00030E020E0B7016F5F7F4FD70111964C9113
:102E00008053990B8A30910550F021503109D8F246
:102E1000EFE9FFE03197F1F700C00000F6CF429EE6
:102E2000F001439EF00D11249C012E0F3F1F842FB3
:102E30007B01E0CFE22FF0E0E850FE4F5490822F6C
:102E400086958695869590E0FC01E851FE4F64904A
:102E50002770712C022E02C0759467940A94E2F7D1
:102E600031E063227724FC01E852FE4F8490912CDC
:102E7000022E02C0959487940A94E2F7A1E08A2278
:102E80009924FC01E853FE4FC490D12C02C0D59484
:102E9000C7942A95E2F7B1E0CB22DD2461147104D6
:102EA00019F081EE0E9420158114910419F086EE2C
:102EB0000E942015852D0E9495158114910419F00A
:102EC00086EE0E94EA146114710419F081EE0E94EA
:102ED000EA14C114D10409F476CF8CE21ECFF701B5
:102EE000E851FC47E730F10508F045C4E956F74DD5
:102EF0000C94C52626E241EE61EEC8010E94B3158E
:102F000045CF27E245EE65EEF8CF26E241EE60EED2
:102F1000F4CF27E245EE64EEF0CF26E241EE62EE1A
:102F2000ECCF27E245EE66EEE8CF28E241E0EBCFBA
:102F300080917A02816080937A0295C080917B02B1
:102F4000886080937B028FC080917A028260F3CF89
:102F500080917A028460EFCF80917A028860EBCF13
:102F600080917B028160EDCF80917B028260E9CF0E
:102F700080917A028061DFCF80917A028062DBCF1C
:102F800080917A028064D7CF0E94D61180917A0214
:102F90008068D1CF80917A028C60CDCF80917B0206
:102FA0008360CFCF80917A028E7FC5CF80917B02E4
:102FB000877FC7CF80917A028D7FBDCF80917A02C3
:102FC0008B7FB9CF80917A02877FB5CF80917B02CA
:102FD0008E7FB7CF80917B028D7FB3CF80917A02B5
:102FE0008F7EA9CF80917A028F7DA5CF80917A02C2
:102FF0008F7BA1CF0E94D61180917A028F779BCFD1
:1030000080917A02837F97CF80917B028C7F99CFCA
:1030100080917A0282FB992790F921E0922790FB18
:1030200082F990FB83F987CF80917B02982F90954E
:1030300091708E7F892B90FB81F983CF90917A02DA
:10304000892F8F7B96FF806476CF0E94D611909156
:103050007A02892F97FB87F980586DCF61E08EE067
:1030600090E00E94F42760917A0270917B0284E0E4
:1030700090E00E9412280E94D61188CE60E0EFCF27
:1030800090917A02892F8F7E94FF806154CF909126
:103090007A02892F8E7F90FF81604DCF90917B02C5
:1030A000892F877F93FF88604CCF8091C40169E2AC
:1030B000811165E384EA91E00E94070559C3F7E7AF
:1030C000EF16FCE7FF0609F022C381E00E94D50954
:1030D00043E062E081E00E94910958CE809167024E
:1030E00080FF19C0282F2E7F20936702309168023D
:1030F0004091690250916A0260916B0270916C027A
:1031000080916D0290916E020E94BA0F10924B0254
:103110000E944D0B3BCE81608093670261E08695F3
:103120000E94DA1033CE44E251E16EE271E10E9476
:10313000BD052CCE4EE251E164E271E1F8CF42E9E7
:1031400050E16CE970E1F3CF4CE950E162E970E1E4
:10315000EECF48E750E165E870E1E9CF45E850E19E
:1031600068E770E1E4CF4EE550E16BE670E1DFCF58
:103170004BE650E16EE570E1DACF46EA50E160ECF3
:1031800070E1D5CF40EC50E166EA70E1D0CF61E06C
:1031900081E0C6CF65E082E00E943911F7CD68E09A
:1031A00086E0FACF6EE089E0F7CF64E18FE0F4CFFC
:1031B00067E185E1F1CF61E088E1B2CF62E289E1C8
:1031C000EBCF61E083E2ACCF6AE285E2E5CF27E7AF
:1031D000E2162CE7F20609F457C038E7E3163CE79D
:1031E000F30609F455C0F8018581E080F180882359
:1031F00009F482C0C7010E94870ED82E682FC7012C
:103200000E945709B7018D2D0E94790E0E94F40784
:103210007C01882ED8011596AC90159716969C9037
:1032200092943FE093228091EB018770F1F0CA2CD9
:10323000AA20E1F08F2D807F803451F080E28E0D46
:10324000883098F0911004C08F2D807E803269F014
:1032500080917B0282FF09C082E00E94BE098091BA
:10326000EB018770CC24C3948111C12CBF2CB29484
:103270002FE0B222BBE0BB1508F4A6C0EB2DF0E0B6
:10328000E256F74D0C94C52681E00E94B10920CF8B
:1032900082E0FBCFEBE5EE16ECE7FE0659F1FCE52C
:1032A000EF16FCE7FF06E1F02AE5E2162CE7F2064E
:1032B00009F099CF81E01BC00E94D6113FEF84E353
:1032C0009CE0315080409040E1F700C000000E9437
:1032D000290B6FEF7FEF90E080E00E94122831C24F
:1032E00080917B0282FB882780F991E089270E94E8
:1032F0005E1179CF80E0FBCFC7010E942309D82E51
:1033000081CFEF2DEF70DE2E8F2D807F19F0D294BC
:1033100090EFD922AA20B9F0DD2069F080E28E0D6D
:10332000883010F0811009C080910E02D82AD09206
:103330000E020E9481118E2D45C080910D02D82A67
:10334000D0920D02F6CF8E2D0E94EA14DD20E1F11D
:1033500080E28E0D883010F0811004C08D2D0E9407
:10336000120906C0D09480910D02D822D0920D028D
:103370000E94811129C0FF2DFF70DF2E8F2D807FCD
:10338000803219F0D29480EFD822882059F021E0C1
:10339000821609F481C0AA2009F48DC0992009F48D
:1033A0004FC0C9CF80917B0282FD46C0AA20F1F1B7
:1033B000DD2039F080910E02D82AD0920E020E94B0
:1033C000811180E00E942015AB2DA850BB0B1497F3
:1033D00010F40E94B005CC20A9F08091EB0180FD93
:1033E00011C0F80115828695869586950E94D509AB
:1033F000C8010E9410168091EB01869586958695EE
:103400000E94B10920E0D8014C9111965C9111976E
:1034100012966C91129713967C91139714968C9137
:10342000149715969C910E94E60EC0CC80E00E94F5
:10343000EA14DD2049F292CFAA20A1F0911004C035
:103440008D2D0E94E014C0CF31E09312BDCF80914A
:103450000C029D2D9823D91609F4B6CFD82AD09204
:103460000C02B2CF9110B0CF8D2D0E94D914909143
:103470000C028D2D892329F08D2D80958923809331
:103480000C028091C5019D2D982309F49DCFD09405
:10349000D822D092C50198CFAA2029F085E08915BD
:1034A00008F492CFCDCF94E0991508F48DCF8D2DEF
:1034B0000E94D91489CF9920D1F3A9E38A1209C0B7
:1034C000BFEFE7EEF3E0B150E040F040E1F700C0BD
:1034D00000008E2D0E94EA1477CF8F2D8695869559
:1034E000837061F0813009F06FCFC7019370A11034
:1034F00002C080E090E00E94660566CFC70193702D
:10350000A11002C080E090E00E948B055DCF6A2D83
:103510008E2D0E94E40958CF8F2D837091F5A11054
:1035200053CF4E2D429546954770440F440F8E2D34
:103530008F70042E01C0880F0A94EAF72E2D207197
:10354000E4FE07C02FE030E001C0220F4A95EAF701
:1035500020953F2D369536953370323069F050F412
:1035600040910F02313029F0822B84230E94E1091F
:103570002BCF842B822BFACF282B80910F0282270E
:10358000F5CF8695AA2011F08F2D8170882309F43C
:103590001BCF4E2D429546954770440F440F8E2DFC
:1035A0008F70042E01C0880F0A94EAF72E2D207127
:1035B000E4FE07C02FE030E001C0220F4A95EAF791
:1035C00020953F2D369536953370323069F050F4A2
:1035D00040911F02313029F0822B84230E948E09F2
:1035E000F3CE842B822BFACF282B80911F028227C7
:1035F000F5CF2F2D2F70F22EAA2029F0822F0E94B6
:10360000D5098E2D1ECF8E2D0E94D9148F2D0E948C
:10361000B109DACE8E2D32EF8316B1F1381570F084
:1036200090EF8916D1F0A1EF8A1691F0AA2009F443
:103630005EC0911080CE8F2D8F712AC0B3EF8B1694
:1036400051F1E4EF8E12F2CF80917B0282FD2FC008
:103650008F2D8F71AA20D9F21BC0AA2081F0F4E02F
:10366000F91508F4B1CE2F2D2F7181E090E001C043
:10367000880F2A95EAF790911F028927AFCF25E09E
:10368000291508F4A1CEEFCF8F2D8F71A110BFCFD8
:103690000E94D50999CE80E0AA2009F49FCF9F2DE2
:1036A0009F7181E001C0880F9A95EAF797CFAA2011
:1036B00099F03F2D3F71F32E832F0E94D509809101
:1036C0007B0282FF07C0A8E0FA9EC001112483603C
:1036D0008093EB018F2DDCCF81E00E94BE09B1E029
:1036E000B91508F071CE82E00E94BE096DCE992016
:1036F00059F0893309F0EDCEEFEFF7EE23E0E1501A
:10370000F0402040E1F7E3CE8F2D8F7180CF82E033
:10371000B8E7EB16BCE7FB0609F4D8CC83E0E81663
:103720008CE7F80609F4D5CD08F0B4CDE114ACE788
:10373000FA0609F4C1CDB1E0EB16BCE7FB0609F0CF
:1037400052CD0E94C314E6E1EE16ECE7FE0609F046
:10375000B6CC80910E028A7A91E009F490E09093C1
:10376000C40169E2811165E384EA91E00E943105B8
:103770000E9481110BCBF6E1EF16FCE7FF0609F47E
:1037800094CC80910E028272F701E052F847E53145
:10379000F10508F01CCDE655F74D0C94C526F70150
:1037A000E851FC47E730F10508F4A0CB1092E7029E
:1037B000C7019057839738F684E090E00E94DE2797
:1037C00090937B0280937A02F701E150F047E23256
:1037D000F10508F0ADCBE154F74D0C94C526CF931D
:1037E000DF938091EA01807F09F04DC08091E9016B
:1037F000882309F448C0E091E4025091AB02C091E3
:10380000E501D091E4016091E6017091E70147E0A4
:103810005E17C9F18E2F90E0E49FF0011124E4556A
:10382000FD4F2481222391F1489FF001499FF00D23
:103830001124DF01A455BD4F11962C9111972C1323
:1038400025C02C912D1322C015962C91159721116E
:103850001DC012962D913C91261B370B283C31053B
:10386000A8F48091EA018F7080618093EA01EE54A0
:10387000FD4F80818F708061808384EE91E00E9493
:1038800010160E941909DF91CF910895FC0131961D
:10389000E770BECFA4E1B0E0E0E5FCE10C94E726E0
:1038A0008C0186E0F801DE011F9601900D928A9549
:1038B000E1F7F8018481E58094EEA92E91E0B92E1C
:1038C0009091E801911128C0882319F1EE20F1F0C0
:1038D000C8010E94C30EF82E8823C1F087E0F801CA
:1038E000D50101900D928A95E1F78091E801813030
:1038F00031F48091E4019091E5010E94B60E0E949E
:10390000EF1B8F2D6496ECE00C940327C8010E94F6
:103910001016FF24F394F5CFD080C180828093806D
:10392000F090E9012091E6013091E701A401421BEA
:10393000530BFF2009F4D9C0483C510508F092C050
:103940008823F9F29091E5018091EA01282F207FE8
:1039500009F056C0C91214C09091E401D91210C0E8
:10396000E11048C08F7080618093EA0184EE91E09D
:103970000E9410168091EA01F8018683F12CC1CFD4
:10398000E11038C06C2D8D2D0E9470036C2D8D2D93
:103990000E947003E82E8111F1CFDF86C88A8F85DF
:1039A00098890E94B60E292F22952F70243058F442
:1039B0009F70223088F0992399F0F8019681907FCA
:1039C00079F4FE2C9ECF2A5F2F70223068F0C80158
:1039D0000E941016EF2CF5CF992311F0882389F35C
:1039E000805E883070F3F3CF803F58F3815F83307F
:1039F00070F7E7CF8091EA0181608093EA01BECF42
:103A0000C91207C09091E401D91203C0EE2009F455
:103A10008DC0C8010E94C30E882309F477CFEE2021
:103A200009F474CF8091EA01803288F02091E4019A
:103A30003091E501398728879B868A869091E80135
:103A40009C871D868E87CE0108960E94101687E0FF
:103A5000F801A4EEB1E001900D928A95E1F70E9481
:103A6000EF1B57CF9091EA01292F207F51F484EE6C
:103A700091E00E94101687E0F50111928A95E9F70E
:103A80007DCF882309F43DCF8091E5018C1110C0D2
:103A90008091E401D8120CC0E1100AC09683C801DD
:103AA0000E94101687E0F50111928A95E9F729CF57
:103AB000C8010E94C30E882309F428CFEE2009F420
:103AC00025CF8091EA01803210F22091E4013091FB
:103AD000E5013A8329839C828B829091E8019D8342
:103AE0001E828F83CE010196B0CF483C5105D0F69F
:103AF000882309F40ECFFE2CEE2009F407CF809125
:103B0000E5018C1120C08091E401D8121CC0809185
:103B1000EA0180FD0FC0982F907F61F08683903F6F
:103B200031F0982F907F905F8F70892B8683C8012A
:103B30000E94101687E0F801A4EEB1E001900D920A
:103B40008A95E1F7DECEC8010E94C30E81117FCFB6
:103B50008091EA0181608093EA01C8010E941016F9
:103B6000D0CEABE1B0E0E7EBFDE10C94EF264E8B5D
:103B70005F8B688F798F8A8F9B8F192F911110928D
:103B80000D021D8A86E0FE017696DE011F960190E9
:103B90000D928A95E1F70A8D002341F021E04F85CF
:103BA000588969897A89C8010E94E60E0B8B1C8BA3
:103BB00087E0FE013F96DE01189601900D928A95EE
:103BC000E1F7CE0108960E944A1C81110CC087E0E3
:103BD000FE013896DE01119601900D928A95E1F76B
:103BE0008C8581110BC017E08091E4029091AB02AB
:103BF000891331C06B96E4E00C940B272091AB0243
:103C000030E0C9010196877099274091E402481776
:103C1000190699F097E0929FD001939FB00D11245F
:103C2000A455BD4FFE01319601900D929A95E1F792
:103C30008093AB020E941909D6CF0E94D611109230
:103C4000AB021092E40287E0E4EEF1E0DF011D92A6
:103C50008A95E9F7C8CF819FC001112484559D4FF3
:103C60000E944A1C882331F28091E40290E0019680
:103C7000877099278093E402B7CFA6E0B0E0E3E431
:103C8000FEE10C94EF260E94FB048C01809110024F
:103C9000909111028017910781F019821A820E9477
:103CA000FB04682F49815A81792F80E090E00E94BF
:103CB000B11D10931102009310022696E4E00C94BB
:103CC0000B27AAE0B0E0E7E6FEE10C94E7268E01C0
:103CD0000F5F1F4F8AE0F80111928A95E9F794E58A
:103CE000E92E91E0F92E6801AA24A394B12CF701E2
:103CF00081917F018F3F09F446C0F894E82FE29547
:103D0000EF70F0E021A18F70A50102C0440F551F94
:103D10008A95E2F7CA01922F982B91A392A18095E0
:103D2000892382A3789400C0E9E5F1E021E030E046
:103D3000912C812C41914F3F09F467C0A42FA2958B
:103D4000AF70B0E090968C9190E04F7002C0959566
:103D500087954A95E2F780FD58C0C901882A992ABB
:103D6000220F331F51E0E836F50721F7F7013197AD
:103D700080818F3F11F00E94EC0680EA8A95F1F76E
:103D8000F60191828082F2E0CF0ED11C49E5E41663
:103D900041E0F40609F0ABCF4AE050E0B80185E11C
:103DA00092E00E94C327892B99F18AE0F801A5E1EE
:103DB000B2E001900D928A95E1F781E080931402C0
:103DC0000E94FB04909313028093120280911202CE
:103DD000909113020E94EC040597F0F04AE050E045
:103DE00065E172E08DE292E00E94C327892BC9F061
:103DF0008AE0E5E1F2E0ADE2B2E001900D928A9551
:103E0000E1F781E01092140208C090E080E0A6CFB4
:103E1000809114028111DACF80E02A96ECE00C94B4
:103E2000032780E0EFCFA8E0B0E0E9E1FFE10C94E8
:103E3000F12666EE7EEF90E080E00E94122860E0BE
:103E400082E090E00E94F42760E083E090E00E942E
:103E5000F42710920F0260E074E184E090E00E9489
:103E6000122860E086E090E00E94F4276FEF87E080
:103E700090E00E94F42740E050E0BA0188E090E032
:103E80000E94062860E084E290E00E94F42760E04F
:103E900087E190E00E94F42760E08CE090E00E94CF
:103EA000F42760E08DE090E00E94F42719821A82E6
:103EB0001B821C821D821E821F82188648E050E0F1
:103EC00068E170E0CE0101960E94E42740E050E0F6
:103ED000BA0180E290E00E94062880E00E94210E54
:103EE0000E943A0E40E050E0BA018FE090E00E945C
:103EF000062840E050E0BA0183E190E00E940628E5
:103F00002896E2E00C940D271F920F920FB60F92A5
:103F100011242F933F934F935F936F937F938F93CE
:103F20009F93AF93BF93CF93DF93EF93FF93D09182
:103F3000E900DF708091EC00C82FC17080FDC0E8FF
:103F40001092E9008091F000877F8093F0007894D0
:103F50000E9405121092E9008091F0008860809321
:103F6000F000CD2BCF70C093E900FF91EF91DF916E
:103F7000CF91BF91AF919F918F917F916F915F9101
:103F80004F913F912F910F900FBE0F901F9018955A
:103F90001F920F920FB60F9211242F933F934F93BE
:103FA0005F936F937F938F939F93AF93BF93EF93A1
:103FB000FF938091E10082FF09C08091E20082FFBF
:103FC00005C08091E1008B7F8093E1008091DA0051
:103FD00080FF24C08091D80080FF20C08091DA004B
:103FE0008E7F8093DA008091D90080FF9DC080E1B0
:103FF00089BD82E189BD09B400FEFDCF81E08093D7
:10400000A10280917C02811109C00E948F030E944D
:1040100030048091E20084608093E2008091E100AE
:1040200080FF17C08091E20080FF13C08091E20002
:104030008E7F8093E2008091E20080618093E200B5
:104040008091D80080628093D80019BC85E080936D
:10405000A1028091E10084FF2BC08091E20084FFE7
:1040600027C080E189BD82E189BD89B5982F917013
:1040700080FFFBCF8091D8008F7D8093D800809106
:10408000E1008F7E8093E1008091E2008F7E80933B
:10409000E2008091E20081608093E2008091A202C0
:1040A000882309F447C084E08093A1028091A10293
:1040B0008091E10083FF27C08091E20083FF23C04D
:1040C0008091E100877F8093E10082E08093A102EC
:1040D0001092A2028091E1008E7F8093E100809196
:1040E000E2008E7F8093E2008091E2008061809305
:1040F000E20042E060E080E00E94FE038091F00078
:1041000088608093F000FF91EF91BF91AF919F91F4
:104110008F917F916F915F914F913F912F910F9070
:104120000FBE0F901F90189519BC1092A10210920B
:104130007C0274CF8091E30087FD93E09093A1020D
:10414000B5CF78941F921FB61F9211248F939F931F
:10415000AF93BF938091760290917702A0917802FD
:10416000B09179020196A11DB11D809376029093C2
:104170007702A0937802B0937902BF91AF919F919B
:104180008F911F901FBE1F9018951F921FB61F92F0
:1041900011248F939F93AF93BF93809175028111E8
:1041A00013C08091760290917702A0917802B0912D
:1041B00079024196A11DB11D8093760290937702FA
:1041C000A0937802B0937902BF91AF919F918F91A4
:1041D0001F901FBE1F901895CDB7DEB7A6970FB6DC
:1041E000F894DEBF0FBECDBF85B7806885BF85B7A9
:1041F000806885BF84B7877F84BF0FB6F894A89581
:1042000080916000886180936000109260000FBE12
:1042100080E890E00FB6F89480936100909361007D
:104220000FBE8AEE96E09093A3018093A2010E94B4
:104230008F030E9430048091E20084608093E2004A
:1042400078948091A1028823A1F01091E9001F7059
:104250009091EC00892F817090FD80E8182B1092CE
:10426000E9008091E80083FD0E9405121F70109301
:10427000E90082E084BD93E095BD9AEF97BD8093FD
:104280006E000E940B0F811102C00E943A0E04E5DD
:1042900011E0A9E5EA2EA1E0FA2ED8018D918D0159
:1042A0008F3F11F00E94EC06E016F106B1F709E528
:1042B00011E0F8E6EF2EF1E0FF2EF80181918F0179
:1042C0008F3F11F00E94EC06E016F106B1F78AE08C
:1042D000EDE2F2E0DF01282F1D922A95E9F7E5E1F2
:1042E000F2E0DF011D928A95E9F70E9475118111B4
:1042F00002C00E94131F82E090E00E94D0278093AA
:10430000210284E090E00E94DE2790937B0280935C
:104310007A020E94611EBFEFE6E7F1E0B150E04093
:10432000F040E1F700C000000E94611E80912D0264
:1043300080FF08C06FEF7FEF90E080E00E941228BE
:104340000E94290B83E090E00E94D0270E94E1099F
:1043500080912002811173C00E947511811104C0E7
:104360000E94131F0E94491188E090E00E94D82704
:104370004B015C0184E290E00E94D027282F30E0BE
:1043800040E050E060E070E080E090E000E20E94F9
:104390001827282939294A295B2920936702309355
:1043A00068024093690250936A0260936B027093B3
:1043B0006C0280936D0290936E022E7F89F50E94AD
:1043C000491188E090E00E94D8276B017C0184E2CB
:1043D00090E00E94D027282F30E040E050E060E0DD
:1043E00070E080E090E00E941827B22FA32FF42FF6
:1043F000E52F5B0197018601BC29A12BFE29E32B48
:10440000B0936702A0936802F0936902E0936A0296
:1044100060936B02B0926C0280936D0290936E0277
:104420000E94C40510924B028091670280FF04C075
:1044300060E086950E94DA1081E08093200284E09B
:1044400091E0909372028093710277E3472E72E0BD
:10445000572EECE26E2EE2E07E2E8091A10200E16A
:1044600012E1853009F497C00E94611E52E2A52E28
:1044700052E0B52E6DE2862E62E0962ED401F50153
:10448000219131918D919D916E167F0609F48DC019
:1044900028173907A9F3312CF401019111914F012B
:1044A000D501CD90DD905D01C016D10661F1C02629
:1044B000D126212CEE24E394F12CC6018E219F21DC
:1044C000892BB9F029A23AA20E94FB049CA38BA3DA
:1044D000B1E0BDA391E098012E213F21232B09F4E7
:1044E00090E09EA349A15AA16BA17CA18DA10E943D
:1044F000B11D2394EE0CFF1CEFE02E12DECFF50170
:104500003297118300833394F5E03F12C5CF8FB704
:10451000F894409176025091770260917802709100
:1045200079028FBF48C08091A102843021F110929E
:10453000750288E190E0A0E40FB6F894A895809306
:1045400060000FBEA093600083B7817F846083BF4B
:1045500083B7816083BF7894889583B78E7F83BF4C
:104560000FB6F894A89580916000886180936000F0
:10457000109260000FBE8091A002882361F00E941B
:10458000611EEDE2F2E081919191892B09F099C3CE
:104590004E165F06C1F78091A102853009F4C3CFA2
:1045A0000E94D6110E94B0055FCF2817390709F085
:1045B00072CF0E943D1E80914B028823D1F18091E1
:1045C0004A02E0916702E695E81BE09346028230DA
:1045D00009F045C1F0E0E757FD4FE4910E2F10E0E0
:1045E0002EE9E22E2DE0F22E80914702882361F021
:1045F000109247020E94FB0490934502809344026C
:1046000010924902109248020E94FB04E091440279
:10461000F09145028E1B9F0B8F3F9F4750F4E00F98
:10462000F11FF0934502E093440284E492E0F70125
:10463000099586E0EEE3F2E0DE01119601900D921D
:104640008A95E1F7D0903F0210914002009141021B
:10465000E0904202F0904302109240021092410218
:104660001092420210924302812F802B09F445C020
:1046700080913C0290913D020E94EC049C0190913B
:104680003702992309F446C325313105B0F19F3F24
:1046900019F09F5F90933702112359F00E94BC06D6
:1046A0009FEF11160CF491E0899F802D11248093C7
:1046B0004002002359F00E94BC0691E010160CF055
:1046C0009FEF899F802D11248093410280914002A9
:1046D000882399F0C0904102CC2079F00E94DC063A
:1046E000882309F42CC1809340028C2D0E94DC06A3
:1046F000882309F426C1809341028E2D8F2909F465
:1047000045C080913A0290913B020E94EC049C01CA
:1047100090913802992309F4F8C221353105B0F19E
:104720009F3F19F09F5F90933802EE2059F00E944E
:104730009A069FEF1E140CF491E0899F802D11249E
:1047400080934202FF2059F00E949A0691E01F14C4
:104750000CF09FEF899F802D11248093430280915C
:104760004202882399F0E0904302EE2079F00E9403
:10477000DC06882309F4E7C0809342028E2D0E9454
:10478000DC06882309F4E1C08093430280913F0254
:104790008D1117C080914002882311F0181311C0A9
:1047A00020914102222311F020130BC0909143026B
:1047B000992311F09F1105C030914202332309F46F
:1047C00096C20E94730686E0FE013196AEE3B2E027
:1047D00001900D928A95E1F70E94B00590912C020C
:1047E000891769F080932C028FB7F8944091760274
:1047F0005091770260917802709179028FBF809119
:10480000A102843009F029CE83E08093E9008091F1
:10481000E80082FF22CE8091E80090E085FF0CC086
:104820000E94AE0340E2E42EF12C8E010F5F1F4F79
:10483000882309F496C091E08091E8008B778093FB
:10484000E800992309F409CE8981EFEFE80FE331FD
:1048500008F0A0C0F0E0EF51F74D0C94C52686306B
:1048600059F4F0E0EA57FD4FE4910E2F10E09EE876
:10487000E92E9DE0F92EB8CE893061F4E695F0E09E
:10488000ED57FD4FE4910E2F10E08AEFE82E8CE0FB
:10489000F82EAACE8F3061F4E695F0E0E058FD4F97
:1048A000E4910E2F10E0B5E9EB2EBCE0FB2E9CCE80
:1048B000853159F4F0E0E358FD4FE4910E2F10E0FC
:1048C000AEE3EA2EACE0FA2E8FCE08E210E070ECF8
:1048D000E72E7BE0F72E883109F486CE833249F447
:1048E000EBE7F2E005911491FDE3EF2EFDE0FF2EE2
:1048F0007BCE04EF11E06AE8E62E6BE0F62E843200
:1049000009F472CE00ED17E053ECE52E55E0F52EDC
:10491000853209F069CE8BEAE89F812D11248695B6
:10492000982F990F890FE81BF0E0E858FD4FE491AC
:104930000E2F10E0E4E2EE2EEFE0FE2E55CE81E0E9
:10494000D2CE81E0D8CE81E017CF81E01DCF80911B
:10495000F100D8018D938D01B1E0EB1AF10809F453
:104960006ACF8091E80085FDF2CF8091E8008B77D7
:104970008093E8000E94AE03882399F35CCF1A82EB
:104980008CE08B8324C08A81823009F4B5C128F47D
:10499000813061F08FEF89831AC0833009F1843050
:1049A000C9F71B821C821D821E8211C02FB7F8948A
:1049B00060917602709177028091780290917902ED
:1049C0002FBF0E94CB266B837C838D839E8340E226
:1049D00050E0BE016F5F7F4F82E00E94BC0A3DCD78
:1049E0002B81822F90E0FE013196225F8530910568
:1049F00070F7DC01AA0FBB1FA35DBD4F3C91119660
:104A00004C9143833483019632962813EFCFDFCF46
:104A10008A81823089F0853009F0BCCF80916702AD
:104A200080FF15C0809167028E7F8093670210928D
:104A30004B020E944D0BCBCF6B817C818D819E817F
:104A40000E94CB2688E290E00E94F427C0CF8160CC
:104A50008093670260E086950E94DA10B8CF4C819F
:104A60006B818A810E944A0E9827892798279E8306
:104A70008D83ADCF2D813E813227232732274C8174
:104A80006B818A810E94C20DA2CF0E94E80D9FCF48
:104A90009A81923009F07ECF8830D9F1893009F4BB
:104AA00063C08B81823009F1A8F4813009F08FCF87
:104AB0008C81E8E78E9FC00111246FEF70E00E94A7
:104AC0009D26462F20E060916902809168020E9435
:104AD000E00F7DCF8330C9F0843009F078CF20E03B
:104AE00040916A026D818C81F2CF8C81882309F418
:104AF00099CF8091670281608093670260E086951C
:104B00000E94DA1060E08C81A7CF8C8180936B02C9
:104B10005ECF8B818230E1F078F4813009F057CF9D
:104B200080916A02FFEF8F9FC001112468E770E057
:104B30000E949D266C834BCF833099F0843009F01E
:104B400046CF809168028C83809169028D833FCF2C
:104B50008091670280FF03C086958C8338CF80E008
:104B6000FCCF80916B02F9CF2091670230916802EF
:104B70004091690250916A0260916B0270916C02DF
:104B800080916D0290916E020E94BA0F20CF80E159
:104B90008A831DCF81E08A838FE7F3CE0A811B8150
:104BA000102701271027CE0101967C01CC80DC0163
:104BB000AC0DB11D6D01C8018F579D4FEC14FD0464
:104BC00009F405CF0F37B1E01B0750F40E94D0273E
:104BD000F70184830F5F1F4FBFEFEB1AFB0AEBCF88
:104BE000D70114961C92F6CF0A811B81102701274A
:104BF0001027FE0131966F01EC80E00EF12EF11CC2
:104C0000C8018F579D4F0E151F0509F4E0CE0F37D1
:104C1000F1E01F0728F4D60114966C910E94F42746
:104C2000BFEFCB1ADB0A0F5F1F4FEACF0E94B20D16
:104C3000CECE84E0ADCF0A811B811027012710273B
:104C4000FE0131967F01CC80CF018C0D911D6C014E
:104C5000C8018996CE14DF0409F4B9CE0835A2E064
:104C60001A0750F40E94D027F70184830F5F1F4F6B
:104C7000BFEFEB1AFB0AECCFD70114961C92F6CFCC
:104C80000A811B81102701271027FE0131966F0131
:104C9000EC80E00EF12EF11CC8018996E016F106B9
:104CA00009F495CE0835F2E01F0728F4D6011496D2
:104CB0006C910E94F427BFEFCB1ADB0A0F5F1F4FE6
:104CC000EBCF09BD19BD09B400FEFDCF8091D8001E
:104CD0008F7D8093D8008091E00082608093E00017
:104CE0008091E00081FDFCCF0E94D61154CC822B34
:104CF000892B09F468CD65CD88E290E00E94D02729
:104D00001B821C821D828E8362CE2B30310508F0FF
:104D100009CD3CCD2B30310508F0BBCCEECC87FB68
:104D2000082E062687FD819567FD61950E944E2716
:104D30000EF4919507FC81950895AA1BBB1B51E1C8
:104D400007C0AA1FBB1FA617B70710F0A61BB70BFB
:104D5000881F991F5A95A9F780959095BC01CD01A0
:104D6000089597FB072E16F4009407D077FD09D01D
:104D70000E949D2607FC05D03EF4909581959F4F9B
:104D80000895709561957F4F0895EE0FFF1F059070
:104D9000F491E02D099469279627692778278727BA
:104DA000782708950E947C28332312F48A1B9B0BDA
:104DB0000C94DC260E947C28B7FF0895821B930B7D
:104DC00008952F923F924F925F926F927F928F92AF
:104DD0009F92AF92BF92CF92DF92EF92FF920F938A
:104DE0001F93CF93DF93CDB7DEB7CA1BDB0B0FB694
:104DF000F894DEBF0FBECDBF09942A883988488851
:104E00005F846E847D848C849B84AA84B984C884E6
:104E1000DF80EE80FD800C811B81AA81B981CE0FDD
:104E2000D11D0FB6F894DEBF0FBECDBFED010895C2
:104E3000002E083090F0982F872F762F652F542F53
:104E4000432F322F22270850F4CF220F331F441F45
:104E5000551F661F771F881F991F0A95B2F7002DEF
:104E6000089597FD1094002E083098F00850232FD5
:104E7000342F452F562F672F782F892F912DF4CF60
:104E80001594979587957795679557954795379595
:104E900027950A95AAF71124002D0895991B79E00A
:104EA00004C0991F961708F0961B881F7A95C9F7BA
:104EB000809508958F929F92AF92BF92CF92DF928A
:104EC000EF92FF92CF93DF93EC01688179818A8121
:104ED0009B81611571058105910521F464E279EDED
:104EE0008BE597E02DE133EF41E050E00E94282868
:104EF00049015A019B01AC01A7EAB1E40E9447288D
:104F00006B017C01ACEEB4EFA50194010E94552821
:104F1000DC01CB018C0D9D1DAE1DBF1DB7FF03C075
:104F20000197A109B04888839983AA83BB839F779F
:104F3000DF91CF91FF90EF90DF90CF90BF90AF9037
:104F40009F908F9008950E945A27089580E091E0E5
:104F50000E945A270895B0E0A0E08093000190934A
:104F60000101A0930201B09303010895FC01415097
:104F7000504030F001900616D1F73197CF010895D7
:104F8000882799270895FB01DC0104C08D910190C9
:104F9000801921F441505040C8F7881B990B08959F
:104FA000F999FECF92BD81BDF89A992780B50895F1
:104FB000A6E1B0E044E050E00C941A28A8E1B0E08B
:104FC00042E050E00C941A28DC01A40FB51F4150B8
:104FD000504048F0CB01840F951F2E910E94F52779
:104FE00041505040D0F70895262FF999FECF92BD39
:104FF00081BDF89A019700B4021639F01FBA20BD9E
:105000000FB6F894FA9AF99A0FBE08950396272FCF
:105010000E94F5270E94F427252F0E94F527242FB0
:105020000C94F5270196272F0E94F5270C94F4275E
:10503000DC01CB01FC01F999FECF06C0F2BDE1BD58
:10504000F89A319600B40D9241505040B8F7089547
:10505000052E97FB1EF400940E943F2857FD07D0B1
:105060000E945A2807FC03D04EF40C943F28509518
:105070004095309521953F4F4F4F5F4F0895909544
:105080008095709561957F4F8F4F9F4F08950E9437
:105090007C28A59F900DB49F900DA49F800D911D1D
:1050A00011240895B7FF0C9447280E944728821BBB
:1050B000930B0895A1E21A2EAA1BBB1BFD010DC084
:1050C000AA1FBB1FEE1FFF1FA217B307E407F507B8
:1050D00020F0A21BB30BE40BF50B661F771F881F94
:1050E000991F1A9469F760957095809590959B012A
:1050F000AC01BD01CF010895A29FB001B39FC001D3
:10510000A39F700D811D1124911DB29F700D811DF3
:105110001124911D0895F894FFCFE6120E13B114D7
:105120000E13B11441136213B11460146D1485177A
:1051300089177A1781178D1791179517811981197A
:10514000BB19BB196D1A871AE419E4198C1AF91ADC
:105150000A1B0A1B6E1893189A189F18A418A918EE
:10516000AE18B318B818BD18C218C718CA18CF1887
:10517000D218D518D818DB18DE18E118E418D217A1
:105180004718DA17A417A817DE17AC17E217EE179F
:10519000B8174018BC17F217C017F6171E18C41717
:1051A000FA172518CA1700180818B017E617B41709
:1051B000EA17CE17041814182E183E189E17D61783
:1051C0004E18BF24C32408252F253A2545254825F8
:1051D00048254825CA24CA24C725CA25CE25F42532
:0851E000162619261B264026A5
:1051E80001000000E904050BFE0AF70A01191A1B61
:1051F8001C1D1E1F20212201020101818283E20061
:10520800E900EA00B500B600B700CD008301CC0084
:105218008A01920194012102230224022502260216
:1052280027022A02B300B4006F0070009F01CB016F
:105238009F02A0029091929395F0F1F4F5F6F7672A
:10524800C6663635349796940001020202020606B5
:10525800060909090909090F0F0F0F0F0F15151571
:10526800181919191919191919191923242525256E
:105278002525254422B684016201AC00D005E90544
:02528800090615
:00000001FF
